{
	"contracts/EtherWallet2.sol": {
		"EtherWallet2": {
			"abi": [
				{
					"inputs": [],
					"stateMutability": "nonpayable",
					"type": "constructor"
				},
				{
					"anonymous": false,
					"inputs": [
						{
							"indexed": true,
							"internalType": "address",
							"name": "newOwner",
							"type": "address"
						},
						{
							"indexed": false,
							"internalType": "uint256",
							"name": "timestamp",
							"type": "uint256"
						}
					],
					"name": "NewOwnerSet",
					"type": "event"
				},
				{
					"anonymous": false,
					"inputs": [
						{
							"indexed": true,
							"internalType": "address",
							"name": "from",
							"type": "address"
						},
						{
							"indexed": false,
							"internalType": "uint256",
							"name": "amount",
							"type": "uint256"
						},
						{
							"indexed": false,
							"internalType": "uint256",
							"name": "fundsAvailable",
							"type": "uint256"
						},
						{
							"indexed": false,
							"internalType": "uint256",
							"name": "timestamp",
							"type": "uint256"
						}
					],
					"name": "ReceivedFunds",
					"type": "event"
				},
				{
					"anonymous": false,
					"inputs": [
						{
							"indexed": true,
							"internalType": "address",
							"name": "from",
							"type": "address"
						},
						{
							"indexed": true,
							"internalType": "address",
							"name": "votedFor",
							"type": "address"
						},
						{
							"indexed": false,
							"internalType": "uint256",
							"name": "timestamp",
							"type": "uint256"
						}
					],
					"name": "VoteForNewOwner",
					"type": "event"
				},
				{
					"anonymous": false,
					"inputs": [
						{
							"indexed": true,
							"internalType": "address",
							"name": "from",
							"type": "address"
						},
						{
							"indexed": true,
							"internalType": "address",
							"name": "to",
							"type": "address"
						},
						{
							"indexed": false,
							"internalType": "uint256",
							"name": "amount",
							"type": "uint256"
						},
						{
							"indexed": false,
							"internalType": "uint256",
							"name": "fundsAvailable",
							"type": "uint256"
						},
						{
							"indexed": false,
							"internalType": "uint256",
							"name": "timestamp",
							"type": "uint256"
						}
					],
					"name": "WithdrawFunds",
					"type": "event"
				},
				{
					"stateMutability": "payable",
					"type": "fallback"
				},
				{
					"inputs": [
						{
							"internalType": "address",
							"name": "newGuardian",
							"type": "address"
						}
					],
					"name": "addGuardian",
					"outputs": [],
					"stateMutability": "nonpayable",
					"type": "function"
				},
				{
					"inputs": [
						{
							"internalType": "address",
							"name": "",
							"type": "address"
						}
					],
					"name": "balances",
					"outputs": [
						{
							"internalType": "uint256",
							"name": "",
							"type": "uint256"
						}
					],
					"stateMutability": "view",
					"type": "function"
				},
				{
					"inputs": [
						{
							"internalType": "address",
							"name": "addr",
							"type": "address"
						}
					],
					"name": "checkAllowance",
					"outputs": [
						{
							"internalType": "uint256",
							"name": "",
							"type": "uint256"
						}
					],
					"stateMutability": "view",
					"type": "function"
				},
				{
					"inputs": [
						{
							"internalType": "address",
							"name": "guardianAddress",
							"type": "address"
						}
					],
					"name": "checkGuardian",
					"outputs": [
						{
							"internalType": "bool",
							"name": "",
							"type": "bool"
						}
					],
					"stateMutability": "view",
					"type": "function"
				},
				{
					"inputs": [
						{
							"internalType": "address",
							"name": "candidate",
							"type": "address"
						}
					],
					"name": "countTrueVotes",
					"outputs": [
						{
							"internalType": "uint8",
							"name": "",
							"type": "uint8"
						}
					],
					"stateMutability": "view",
					"type": "function"
				},
				{
					"inputs": [],
					"name": "deposit",
					"outputs": [],
					"stateMutability": "payable",
					"type": "function"
				},
				{
					"inputs": [],
					"name": "owner",
					"outputs": [
						{
							"internalType": "address",
							"name": "",
							"type": "address"
						}
					],
					"stateMutability": "view",
					"type": "function"
				},
				{
					"inputs": [
						{
							"internalType": "address",
							"name": "addr",
							"type": "address"
						}
					],
					"name": "resetAddressAllowance",
					"outputs": [],
					"stateMutability": "nonpayable",
					"type": "function"
				},
				{
					"inputs": [
						{
							"internalType": "address",
							"name": "addr",
							"type": "address"
						},
						{
							"internalType": "uint256",
							"name": "newAllowance",
							"type": "uint256"
						}
					],
					"name": "setAllowance",
					"outputs": [],
					"stateMutability": "nonpayable",
					"type": "function"
				},
				{
					"inputs": [
						{
							"internalType": "address",
							"name": "candidate",
							"type": "address"
						}
					],
					"name": "voteNewOwner",
					"outputs": [],
					"stateMutability": "nonpayable",
					"type": "function"
				},
				{
					"inputs": [
						{
							"internalType": "address payable",
							"name": "to",
							"type": "address"
						},
						{
							"internalType": "uint256",
							"name": "amount",
							"type": "uint256"
						}
					],
					"name": "withdraw",
					"outputs": [],
					"stateMutability": "nonpayable",
					"type": "function"
				},
				{
					"stateMutability": "payable",
					"type": "receive"
				}
			],
			"devdoc": {
				"kind": "dev",
				"methods": {
					"addGuardian(address)": {
						"details": "Adds a new guardian",
						"params": {
							"newGuardian": "The address of the new guardian"
						}
					},
					"checkAllowance(address)": {
						"details": "Checks the allowance of a specified address",
						"params": {
							"addr": "The address to check"
						},
						"returns": {
							"_0": "The allowance amount"
						}
					},
					"checkGuardian(address)": {
						"details": "Checks if an address is a guardian",
						"params": {
							"guardianAddress": "The address to check"
						},
						"returns": {
							"_0": "True if the address is a guardian, false otherwise"
						}
					},
					"constructor": {
						"details": "Sets the contract deployer as the owner and the first guardian"
					},
					"countTrueVotes(address)": {
						"details": "Counts the number of true votes for a specified address",
						"params": {
							"candidate": "The address to count votes for"
						},
						"returns": {
							"_0": "count The number of votes"
						}
					},
					"deposit()": {
						"details": "Records the deposit and updates the sender's balance"
					},
					"resetAddressAllowance(address)": {
						"details": "Resets the allowance for a specified address",
						"params": {
							"addr": "The address for which to reset the allowance"
						}
					},
					"setAllowance(address,uint256)": {
						"details": "Sets the allowance for a specified address",
						"params": {
							"addr": "The address for which to set the allowance",
							"newAllowance": "The new allowance amount"
						}
					},
					"voteNewOwner(address)": {
						"details": "Allows guardians to vote for a new owner",
						"params": {
							"candidate": "The address of the candidate for the new owner"
						}
					},
					"withdraw(address,uint256)": {
						"details": "Allows the sender to withdraw a specified amount of Ether to a specified address",
						"params": {
							"amount": "The amount of Ether to withdraw",
							"to": "The address to send the Ether to"
						}
					}
				},
				"version": 1
			},
			"evm": {
				"assembly": "    /* \"contracts/EtherWallet2.sol\":118:5657  contract EtherWallet2{... */\n  mstore(0x40, 0x80)\n    /* \"contracts/EtherWallet2.sol\":1392:1521  constructor(){... */\n  callvalue\n  dup1\n  iszero\n  tag_1\n  jumpi\n  0x00\n  dup1\n  revert\ntag_1:\n  pop\n    /* \"contracts/EtherWallet2.sol\":1424:1434  msg.sender */\n  caller\n    /* \"contracts/EtherWallet2.sol\":1416:1421  owner */\n  0x00\n  dup1\n    /* \"contracts/EtherWallet2.sol\":1416:1434  owner = msg.sender */\n  0x0100\n  exp\n  dup2\n  sload\n  dup2\n  0xffffffffffffffffffffffffffffffffffffffff\n  mul\n  not\n  and\n  swap1\n  dup4\n  0xffffffffffffffffffffffffffffffffffffffff\n  and\n  mul\n  or\n  swap1\n  sstore\n  pop\n    /* \"contracts/EtherWallet2.sol\":1469:1473  true */\n  0x01\n    /* \"contracts/EtherWallet2.sol\":1445:1454  guardians */\n  0x02\n    /* \"contracts/EtherWallet2.sol\":1445:1466  guardians[msg.sender] */\n  0x00\n    /* \"contracts/EtherWallet2.sol\":1455:1465  msg.sender */\n  caller\n    /* \"contracts/EtherWallet2.sol\":1445:1466  guardians[msg.sender] */\n  0xffffffffffffffffffffffffffffffffffffffff\n  and\n  0xffffffffffffffffffffffffffffffffffffffff\n  and\n  dup2\n  mstore\n  0x20\n  add\n  swap1\n  dup2\n  mstore\n  0x20\n  add\n  0x00\n  keccak256\n  0x00\n    /* \"contracts/EtherWallet2.sol\":1445:1473  guardians[msg.sender] = true */\n  0x0100\n  exp\n  dup2\n  sload\n  dup2\n  0xff\n  mul\n  not\n  and\n  swap1\n  dup4\n  iszero\n  iszero\n  mul\n  or\n  swap1\n  sstore\n  pop\n    /* \"contracts/EtherWallet2.sol\":1484:1496  guardianList */\n  0x01\n    /* \"contracts/EtherWallet2.sol\":1502:1512  msg.sender */\n  caller\n    /* \"contracts/EtherWallet2.sol\":1484:1513  guardianList.push(msg.sender) */\n  swap1\n  dup1\n  0x01\n  dup2\n  sload\n  add\n  dup1\n  dup3\n  sstore\n  dup1\n  swap2\n  pop\n  pop\n  0x01\n  swap1\n  sub\n  swap1\n  0x00\n  mstore\n  keccak256(0x00, 0x20)\n  add\n  0x00\n  swap1\n  swap2\n  swap1\n  swap2\n  swap1\n  swap2\n  0x0100\n  exp\n  dup2\n  sload\n  dup2\n  0xffffffffffffffffffffffffffffffffffffffff\n  mul\n  not\n  and\n  swap1\n  dup4\n  0xffffffffffffffffffffffffffffffffffffffff\n  and\n  mul\n  or\n  swap1\n  sstore\n  pop\n    /* \"contracts/EtherWallet2.sol\":118:5657  contract EtherWallet2{... */\n  dataSize(sub_0)\n  dup1\n  dataOffset(sub_0)\n  0x00\n  codecopy\n  0x00\n  return\nstop\n\nsub_0: assembly {\n        /* \"contracts/EtherWallet2.sol\":118:5657  contract EtherWallet2{... */\n      mstore(0x40, 0x80)\n      jumpi(tag_1, lt(calldatasize, 0x04))\n      shr(0xe0, calldataload(0x00))\n      dup1\n      0x8da5cb5b\n      gt\n      tag_14\n      jumpi\n      dup1\n      0x8da5cb5b\n      eq\n      tag_8\n      jumpi\n      dup1\n      0xa428b362\n      eq\n      tag_9\n      jumpi\n      dup1\n      0xa526d83b\n      eq\n      tag_10\n      jumpi\n      dup1\n      0xd0e30db0\n      eq\n      tag_11\n      jumpi\n      dup1\n      0xe1721f7b\n      eq\n      tag_12\n      jumpi\n      dup1\n      0xf3fef3a3\n      eq\n      tag_13\n      jumpi\n      jump(tag_2)\n    tag_14:\n      dup1\n      0x1a197a26\n      eq\n      tag_3\n      jumpi\n      dup1\n      0x1ef4e720\n      eq\n      tag_4\n      jumpi\n      dup1\n      0x27e235e3\n      eq\n      tag_5\n      jumpi\n      dup1\n      0x310ec4a7\n      eq\n      tag_6\n      jumpi\n      dup1\n      0x7aa6a7f6\n      eq\n      tag_7\n      jumpi\n      jump(tag_2)\n    tag_1:\n      jumpi(tag_2, calldatasize)\n        /* \"contracts/EtherWallet2.sol\":1642:1651  deposit() */\n      tag_17\n        /* \"contracts/EtherWallet2.sol\":1642:1649  deposit */\n      tag_18\n        /* \"contracts/EtherWallet2.sol\":1642:1651  deposit() */\n      jump\t// in\n    tag_17:\n        /* \"contracts/EtherWallet2.sol\":118:5657  contract EtherWallet2{... */\n      stop\n    tag_2:\n        /* \"contracts/EtherWallet2.sol\":1794:1803  deposit() */\n      tag_21\n        /* \"contracts/EtherWallet2.sol\":1794:1801  deposit */\n      tag_18\n        /* \"contracts/EtherWallet2.sol\":1794:1803  deposit() */\n      jump\t// in\n    tag_21:\n        /* \"contracts/EtherWallet2.sol\":118:5657  contract EtherWallet2{... */\n      stop\n        /* \"contracts/EtherWallet2.sol\":5546:5654  function checkAllowance(address addr) public view returns(uint256) {... */\n    tag_3:\n      callvalue\n      dup1\n      iszero\n      tag_22\n      jumpi\n      0x00\n      dup1\n      revert\n    tag_22:\n      pop\n      tag_23\n      0x04\n      dup1\n      calldatasize\n      sub\n      dup2\n      add\n      swap1\n      tag_24\n      swap2\n      swap1\n      tag_25\n      jump\t// in\n    tag_24:\n      tag_26\n      jump\t// in\n    tag_23:\n      mload(0x40)\n      tag_27\n      swap2\n      swap1\n      tag_28\n      jump\t// in\n    tag_27:\n      mload(0x40)\n      dup1\n      swap2\n      sub\n      swap1\n      return\n        /* \"contracts/EtherWallet2.sol\":4615:4903  function countTrueVotes(address candidate) public view returns (uint8) {... */\n    tag_4:\n      callvalue\n      dup1\n      iszero\n      tag_29\n      jumpi\n      0x00\n      dup1\n      revert\n    tag_29:\n      pop\n      tag_30\n      0x04\n      dup1\n      calldatasize\n      sub\n      dup2\n      add\n      swap1\n      tag_31\n      swap2\n      swap1\n      tag_25\n      jump\t// in\n    tag_31:\n      tag_32\n      jump\t// in\n    tag_30:\n      mload(0x40)\n      tag_33\n      swap2\n      swap1\n      tag_34\n      jump\t// in\n    tag_33:\n      mload(0x40)\n      dup1\n      swap2\n      sub\n      swap1\n      return\n        /* \"contracts/EtherWallet2.sol\":832:875  mapping(address => uint256) public balances */\n    tag_5:\n      callvalue\n      dup1\n      iszero\n      tag_35\n      jumpi\n      0x00\n      dup1\n      revert\n    tag_35:\n      pop\n      tag_36\n      0x04\n      dup1\n      calldatasize\n      sub\n      dup2\n      add\n      swap1\n      tag_37\n      swap2\n      swap1\n      tag_25\n      jump\t// in\n    tag_37:\n      tag_38\n      jump\t// in\n    tag_36:\n      mload(0x40)\n      tag_39\n      swap2\n      swap1\n      tag_28\n      jump\t// in\n    tag_39:\n      mload(0x40)\n      dup1\n      swap2\n      sub\n      swap1\n      return\n        /* \"contracts/EtherWallet2.sol\":3370:3484  function setAllowance(address addr, uint256 newAllowance) public {... */\n    tag_6:\n      callvalue\n      dup1\n      iszero\n      tag_40\n      jumpi\n      0x00\n      dup1\n      revert\n    tag_40:\n      pop\n      tag_41\n      0x04\n      dup1\n      calldatasize\n      sub\n      dup2\n      add\n      swap1\n      tag_42\n      swap2\n      swap1\n      tag_43\n      jump\t// in\n    tag_42:\n      tag_44\n      jump\t// in\n    tag_41:\n      stop\n        /* \"contracts/EtherWallet2.sol\":3847:4437  function voteNewOwner(address candidate) public onlyGuardian{... */\n    tag_7:\n      callvalue\n      dup1\n      iszero\n      tag_45\n      jumpi\n      0x00\n      dup1\n      revert\n    tag_45:\n      pop\n      tag_46\n      0x04\n      dup1\n      calldatasize\n      sub\n      dup2\n      add\n      swap1\n      tag_47\n      swap2\n      swap1\n      tag_25\n      jump\t// in\n    tag_47:\n      tag_48\n      jump\t// in\n    tag_46:\n      stop\n        /* \"contracts/EtherWallet2.sol\":148:168  address public owner */\n    tag_8:\n      callvalue\n      dup1\n      iszero\n      tag_49\n      jumpi\n      0x00\n      dup1\n      revert\n    tag_49:\n      pop\n      tag_50\n      tag_51\n      jump\t// in\n    tag_50:\n      mload(0x40)\n      tag_52\n      swap2\n      swap1\n      tag_53\n      jump\t// in\n    tag_52:\n      mload(0x40)\n      dup1\n      swap2\n      sub\n      swap1\n      return\n        /* \"contracts/EtherWallet2.sol\":5275:5400  function checkGuardian(address guardianAddress) public view returns(bool){... */\n    tag_9:\n      callvalue\n      dup1\n      iszero\n      tag_54\n      jumpi\n      0x00\n      dup1\n      revert\n    tag_54:\n      pop\n      tag_55\n      0x04\n      dup1\n      calldatasize\n      sub\n      dup2\n      add\n      swap1\n      tag_56\n      swap2\n      swap1\n      tag_25\n      jump\t// in\n    tag_56:\n      tag_57\n      jump\t// in\n    tag_55:\n      mload(0x40)\n      tag_58\n      swap2\n      swap1\n      tag_59\n      jump\t// in\n    tag_58:\n      mload(0x40)\n      dup1\n      swap2\n      sub\n      swap1\n      return\n        /* \"contracts/EtherWallet2.sol\":2963:3187  function addGuardian(address newGuardian) public onlyOwner {... */\n    tag_10:\n      callvalue\n      dup1\n      iszero\n      tag_60\n      jumpi\n      0x00\n      dup1\n      revert\n    tag_60:\n      pop\n      tag_61\n      0x04\n      dup1\n      calldatasize\n      sub\n      dup2\n      add\n      swap1\n      tag_62\n      swap2\n      swap1\n      tag_25\n      jump\t// in\n    tag_62:\n      tag_63\n      jump\t// in\n    tag_61:\n      stop\n        /* \"contracts/EtherWallet2.sol\":1886:2062  function deposit() public payable {... */\n    tag_11:\n      tag_64\n      tag_18\n      jump\t// in\n    tag_64:\n      stop\n        /* \"contracts/EtherWallet2.sol\":3617:3707  function resetAddressAllowance(address addr) public {... */\n    tag_12:\n      callvalue\n      dup1\n      iszero\n      tag_65\n      jumpi\n      0x00\n      dup1\n      revert\n    tag_65:\n      pop\n      tag_66\n      0x04\n      dup1\n      calldatasize\n      sub\n      dup2\n      add\n      swap1\n      tag_67\n      swap2\n      swap1\n      tag_25\n      jump\t// in\n    tag_67:\n      tag_68\n      jump\t// in\n    tag_66:\n      stop\n        /* \"contracts/EtherWallet2.sol\":2272:2861  function withdraw(address payable to, uint256 amount) public {... */\n    tag_13:\n      callvalue\n      dup1\n      iszero\n      tag_69\n      jumpi\n      0x00\n      dup1\n      revert\n    tag_69:\n      pop\n      tag_70\n      0x04\n      dup1\n      calldatasize\n      sub\n      dup2\n      add\n      swap1\n      tag_71\n      swap2\n      swap1\n      tag_72\n      jump\t// in\n    tag_71:\n      tag_73\n      jump\t// in\n    tag_70:\n      stop\n        /* \"contracts/EtherWallet2.sol\":1886:2062  function deposit() public payable {... */\n    tag_18:\n        /* \"contracts/EtherWallet2.sol\":1954:1963  msg.value */\n      callvalue\n        /* \"contracts/EtherWallet2.sol\":1931:1939  balances */\n      0x05\n        /* \"contracts/EtherWallet2.sol\":1931:1951  balances[msg.sender] */\n      0x00\n        /* \"contracts/EtherWallet2.sol\":1940:1950  msg.sender */\n      caller\n        /* \"contracts/EtherWallet2.sol\":1931:1951  balances[msg.sender] */\n      0xffffffffffffffffffffffffffffffffffffffff\n      and\n      0xffffffffffffffffffffffffffffffffffffffff\n      and\n      dup2\n      mstore\n      0x20\n      add\n      swap1\n      dup2\n      mstore\n      0x20\n      add\n      0x00\n      keccak256\n        /* \"contracts/EtherWallet2.sol\":1931:1963  balances[msg.sender] = msg.value */\n      dup2\n      swap1\n      sstore\n      pop\n        /* \"contracts/EtherWallet2.sol\":1993:2003  msg.sender */\n      caller\n        /* \"contracts/EtherWallet2.sol\":1979:2054  ReceivedFunds(msg.sender, msg.value, balances[msg.sender], block.timestamp) */\n      0xffffffffffffffffffffffffffffffffffffffff\n      and\n      0x5f74095c3cf9cd2b4407992767113d77fc65cb2423a83ecc71977f3ace6b34f4\n        /* \"contracts/EtherWallet2.sol\":2005:2014  msg.value */\n      callvalue\n        /* \"contracts/EtherWallet2.sol\":2016:2024  balances */\n      0x05\n        /* \"contracts/EtherWallet2.sol\":2016:2036  balances[msg.sender] */\n      0x00\n        /* \"contracts/EtherWallet2.sol\":2025:2035  msg.sender */\n      caller\n        /* \"contracts/EtherWallet2.sol\":2016:2036  balances[msg.sender] */\n      0xffffffffffffffffffffffffffffffffffffffff\n      and\n      0xffffffffffffffffffffffffffffffffffffffff\n      and\n      dup2\n      mstore\n      0x20\n      add\n      swap1\n      dup2\n      mstore\n      0x20\n      add\n      0x00\n      keccak256\n      sload\n        /* \"contracts/EtherWallet2.sol\":2038:2053  block.timestamp */\n      timestamp\n        /* \"contracts/EtherWallet2.sol\":1979:2054  ReceivedFunds(msg.sender, msg.value, balances[msg.sender], block.timestamp) */\n      mload(0x40)\n      tag_75\n      swap4\n      swap3\n      swap2\n      swap1\n      tag_76\n      jump\t// in\n    tag_75:\n      mload(0x40)\n      dup1\n      swap2\n      sub\n      swap1\n      log2\n        /* \"contracts/EtherWallet2.sol\":1886:2062  function deposit() public payable {... */\n      jump\t// out\n        /* \"contracts/EtherWallet2.sol\":5546:5654  function checkAllowance(address addr) public view returns(uint256) {... */\n    tag_26:\n        /* \"contracts/EtherWallet2.sol\":5604:5611  uint256 */\n      0x00\n        /* \"contracts/EtherWallet2.sol\":5631:5640  allowance */\n      0x03\n        /* \"contracts/EtherWallet2.sol\":5631:5646  allowance[addr] */\n      0x00\n        /* \"contracts/EtherWallet2.sol\":5641:5645  addr */\n      dup4\n        /* \"contracts/EtherWallet2.sol\":5631:5646  allowance[addr] */\n      0xffffffffffffffffffffffffffffffffffffffff\n      and\n      0xffffffffffffffffffffffffffffffffffffffff\n      and\n      dup2\n      mstore\n      0x20\n      add\n      swap1\n      dup2\n      mstore\n      0x20\n      add\n      0x00\n      keccak256\n      sload\n        /* \"contracts/EtherWallet2.sol\":5624:5646  return allowance[addr] */\n      swap1\n      pop\n        /* \"contracts/EtherWallet2.sol\":5546:5654  function checkAllowance(address addr) public view returns(uint256) {... */\n      swap2\n      swap1\n      pop\n      jump\t// out\n        /* \"contracts/EtherWallet2.sol\":4615:4903  function countTrueVotes(address candidate) public view returns (uint8) {... */\n    tag_32:\n        /* \"contracts/EtherWallet2.sol\":4679:4684  uint8 */\n      0x00\n        /* \"contracts/EtherWallet2.sol\":4697:4708  uint8 count */\n      dup1\n        /* \"contracts/EtherWallet2.sol\":4711:4712  0 */\n      0x00\n        /* \"contracts/EtherWallet2.sol\":4697:4712  uint8 count = 0 */\n      swap1\n      pop\n        /* \"contracts/EtherWallet2.sol\":4727:4733  uint i */\n      0x00\n        /* \"contracts/EtherWallet2.sol\":4723:4873  for(uint i = 0; i < guardianList.length; i++){... */\n    tag_79:\n        /* \"contracts/EtherWallet2.sol\":4743:4755  guardianList */\n      0x01\n        /* \"contracts/EtherWallet2.sol\":4743:4762  guardianList.length */\n      dup1\n      sload\n      swap1\n      pop\n        /* \"contracts/EtherWallet2.sol\":4739:4740  i */\n      dup2\n        /* \"contracts/EtherWallet2.sol\":4739:4762  i < guardianList.length */\n      lt\n        /* \"contracts/EtherWallet2.sol\":4723:4873  for(uint i = 0; i < guardianList.length; i++){... */\n      iszero\n      tag_80\n      jumpi\n        /* \"contracts/EtherWallet2.sol\":4786:4791  votes */\n      0x04\n        /* \"contracts/EtherWallet2.sol\":4786:4808  votes[guardianList[i]] */\n      0x00\n        /* \"contracts/EtherWallet2.sol\":4792:4804  guardianList */\n      0x01\n        /* \"contracts/EtherWallet2.sol\":4805:4806  i */\n      dup4\n        /* \"contracts/EtherWallet2.sol\":4792:4807  guardianList[i] */\n      dup2\n      sload\n      dup2\n      lt\n      tag_82\n      jumpi\n      tag_83\n      tag_84\n      jump\t// in\n    tag_83:\n    tag_82:\n      swap1\n      0x00\n      mstore\n      keccak256(0x00, 0x20)\n      add\n      0x00\n      swap1\n      sload\n      swap1\n      0x0100\n      exp\n      swap1\n      div\n      0xffffffffffffffffffffffffffffffffffffffff\n      and\n        /* \"contracts/EtherWallet2.sol\":4786:4808  votes[guardianList[i]] */\n      0xffffffffffffffffffffffffffffffffffffffff\n      and\n      0xffffffffffffffffffffffffffffffffffffffff\n      and\n      dup2\n      mstore\n      0x20\n      add\n      swap1\n      dup2\n      mstore\n      0x20\n      add\n      0x00\n      keccak256\n        /* \"contracts/EtherWallet2.sol\":4786:4819  votes[guardianList[i]][candidate] */\n      0x00\n        /* \"contracts/EtherWallet2.sol\":4809:4818  candidate */\n      dup6\n        /* \"contracts/EtherWallet2.sol\":4786:4819  votes[guardianList[i]][candidate] */\n      0xffffffffffffffffffffffffffffffffffffffff\n      and\n      0xffffffffffffffffffffffffffffffffffffffff\n      and\n      dup2\n      mstore\n      0x20\n      add\n      swap1\n      dup2\n      mstore\n      0x20\n      add\n      0x00\n      keccak256\n      0x00\n      swap1\n      sload\n      swap1\n      0x0100\n      exp\n      swap1\n      div\n      0xff\n      and\n        /* \"contracts/EtherWallet2.sol\":4783:4862  if(votes[guardianList[i]][candidate]){... */\n      iszero\n      tag_86\n      jumpi\n        /* \"contracts/EtherWallet2.sol\":4839:4846  count++ */\n      dup2\n      dup1\n      tag_87\n      swap1\n      tag_88\n      jump\t// in\n    tag_87:\n      swap3\n      pop\n      pop\n        /* \"contracts/EtherWallet2.sol\":4783:4862  if(votes[guardianList[i]][candidate]){... */\n    tag_86:\n        /* \"contracts/EtherWallet2.sol\":4764:4767  i++ */\n      dup1\n      dup1\n      tag_89\n      swap1\n      tag_90\n      jump\t// in\n    tag_89:\n      swap2\n      pop\n      pop\n        /* \"contracts/EtherWallet2.sol\":4723:4873  for(uint i = 0; i < guardianList.length; i++){... */\n      jump(tag_79)\n    tag_80:\n      pop\n        /* \"contracts/EtherWallet2.sol\":4890:4895  count */\n      dup1\n        /* \"contracts/EtherWallet2.sol\":4883:4895  return count */\n      swap2\n      pop\n      pop\n        /* \"contracts/EtherWallet2.sol\":4615:4903  function countTrueVotes(address candidate) public view returns (uint8) {... */\n      swap2\n      swap1\n      pop\n      jump\t// out\n        /* \"contracts/EtherWallet2.sol\":832:875  mapping(address => uint256) public balances */\n    tag_38:\n      mstore(0x20, 0x05)\n      dup1\n      0x00\n      mstore\n      keccak256(0x00, 0x40)\n      0x00\n      swap2\n      pop\n      swap1\n      pop\n      sload\n      dup2\n      jump\t// out\n        /* \"contracts/EtherWallet2.sol\":3370:3484  function setAllowance(address addr, uint256 newAllowance) public {... */\n    tag_44:\n        /* \"contracts/EtherWallet2.sol\":3464:3476  newAllowance */\n      dup1\n        /* \"contracts/EtherWallet2.sol\":3446:3455  allowance */\n      0x03\n        /* \"contracts/EtherWallet2.sol\":3446:3461  allowance[addr] */\n      0x00\n        /* \"contracts/EtherWallet2.sol\":3456:3460  addr */\n      dup5\n        /* \"contracts/EtherWallet2.sol\":3446:3461  allowance[addr] */\n      0xffffffffffffffffffffffffffffffffffffffff\n      and\n      0xffffffffffffffffffffffffffffffffffffffff\n      and\n      dup2\n      mstore\n      0x20\n      add\n      swap1\n      dup2\n      mstore\n      0x20\n      add\n      0x00\n      keccak256\n        /* \"contracts/EtherWallet2.sol\":3446:3476  allowance[addr] = newAllowance */\n      dup2\n      swap1\n      sstore\n      pop\n        /* \"contracts/EtherWallet2.sol\":3370:3484  function setAllowance(address addr, uint256 newAllowance) public {... */\n      pop\n      pop\n      jump\t// out\n        /* \"contracts/EtherWallet2.sol\":3847:4437  function voteNewOwner(address candidate) public onlyGuardian{... */\n    tag_48:\n        /* \"contracts/EtherWallet2.sol\":1198:1207  guardians */\n      0x02\n        /* \"contracts/EtherWallet2.sol\":1198:1219  guardians[msg.sender] */\n      0x00\n        /* \"contracts/EtherWallet2.sol\":1208:1218  msg.sender */\n      caller\n        /* \"contracts/EtherWallet2.sol\":1198:1219  guardians[msg.sender] */\n      0xffffffffffffffffffffffffffffffffffffffff\n      and\n      0xffffffffffffffffffffffffffffffffffffffff\n      and\n      dup2\n      mstore\n      0x20\n      add\n      swap1\n      dup2\n      mstore\n      0x20\n      add\n      0x00\n      keccak256\n      0x00\n      swap1\n      sload\n      swap1\n      0x0100\n      exp\n      swap1\n      div\n      0xff\n      and\n        /* \"contracts/EtherWallet2.sol\":1190:1287  require(guardians[msg.sender], \"Only wallet Guardians are allowed to vote for new wallet owner.\") */\n      tag_93\n      jumpi\n      mload(0x40)\n      0x08c379a000000000000000000000000000000000000000000000000000000000\n      dup2\n      mstore\n      0x04\n      add\n      tag_94\n      swap1\n      tag_95\n      jump\t// in\n    tag_94:\n      mload(0x40)\n      dup1\n      swap2\n      sub\n      swap1\n      revert\n    tag_93:\n        /* \"contracts/EtherWallet2.sol\":3939:3944  owner */\n      0x00\n      dup1\n      sload\n      swap1\n      0x0100\n      exp\n      swap1\n      div\n      0xffffffffffffffffffffffffffffffffffffffff\n      and\n        /* \"contracts/EtherWallet2.sol\":3926:3944  candidate != owner */\n      0xffffffffffffffffffffffffffffffffffffffff\n      and\n        /* \"contracts/EtherWallet2.sol\":3926:3935  candidate */\n      dup2\n        /* \"contracts/EtherWallet2.sol\":3926:3944  candidate != owner */\n      0xffffffffffffffffffffffffffffffffffffffff\n      and\n      sub\n        /* \"contracts/EtherWallet2.sol\":3918:3984  require(candidate != owner, \"Address is already the wallet owner\") */\n      tag_97\n      jumpi\n      mload(0x40)\n      0x08c379a000000000000000000000000000000000000000000000000000000000\n      dup2\n      mstore\n      0x04\n      add\n      tag_98\n      swap1\n      tag_99\n      jump\t// in\n    tag_98:\n      mload(0x40)\n      dup1\n      swap2\n      sub\n      swap1\n      revert\n    tag_97:\n        /* \"contracts/EtherWallet2.sol\":4004:4009  votes */\n      0x04\n        /* \"contracts/EtherWallet2.sol\":4004:4021  votes[msg.sender] */\n      0x00\n        /* \"contracts/EtherWallet2.sol\":4010:4020  msg.sender */\n      caller\n        /* \"contracts/EtherWallet2.sol\":4004:4021  votes[msg.sender] */\n      0xffffffffffffffffffffffffffffffffffffffff\n      and\n      0xffffffffffffffffffffffffffffffffffffffff\n      and\n      dup2\n      mstore\n      0x20\n      add\n      swap1\n      dup2\n      mstore\n      0x20\n      add\n      0x00\n      keccak256\n        /* \"contracts/EtherWallet2.sol\":4004:4032  votes[msg.sender][candidate] */\n      0x00\n        /* \"contracts/EtherWallet2.sol\":4022:4031  candidate */\n      dup3\n        /* \"contracts/EtherWallet2.sol\":4004:4032  votes[msg.sender][candidate] */\n      0xffffffffffffffffffffffffffffffffffffffff\n      and\n      0xffffffffffffffffffffffffffffffffffffffff\n      and\n      dup2\n      mstore\n      0x20\n      add\n      swap1\n      dup2\n      mstore\n      0x20\n      add\n      0x00\n      keccak256\n      0x00\n      swap1\n      sload\n      swap1\n      0x0100\n      exp\n      swap1\n      div\n      0xff\n      and\n        /* \"contracts/EtherWallet2.sol\":4003:4032  !votes[msg.sender][candidate] */\n      iszero\n        /* \"contracts/EtherWallet2.sol\":3995:4078  require(!votes[msg.sender][candidate], \"You have already voted for this candidate\") */\n      tag_100\n      jumpi\n      mload(0x40)\n      0x08c379a000000000000000000000000000000000000000000000000000000000\n      dup2\n      mstore\n      0x04\n      add\n      tag_101\n      swap1\n      tag_102\n      jump\t// in\n    tag_101:\n      mload(0x40)\n      dup1\n      swap2\n      sub\n      swap1\n      revert\n    tag_100:\n        /* \"contracts/EtherWallet2.sol\":4122:4126  true */\n      0x01\n        /* \"contracts/EtherWallet2.sol\":4091:4096  votes */\n      0x04\n        /* \"contracts/EtherWallet2.sol\":4091:4108  votes[msg.sender] */\n      0x00\n        /* \"contracts/EtherWallet2.sol\":4097:4107  msg.sender */\n      caller\n        /* \"contracts/EtherWallet2.sol\":4091:4108  votes[msg.sender] */\n      0xffffffffffffffffffffffffffffffffffffffff\n      and\n      0xffffffffffffffffffffffffffffffffffffffff\n      and\n      dup2\n      mstore\n      0x20\n      add\n      swap1\n      dup2\n      mstore\n      0x20\n      add\n      0x00\n      keccak256\n        /* \"contracts/EtherWallet2.sol\":4091:4119  votes[msg.sender][candidate] */\n      0x00\n        /* \"contracts/EtherWallet2.sol\":4109:4118  candidate */\n      dup4\n        /* \"contracts/EtherWallet2.sol\":4091:4119  votes[msg.sender][candidate] */\n      0xffffffffffffffffffffffffffffffffffffffff\n      and\n      0xffffffffffffffffffffffffffffffffffffffff\n      and\n      dup2\n      mstore\n      0x20\n      add\n      swap1\n      dup2\n      mstore\n      0x20\n      add\n      0x00\n      keccak256\n      0x00\n        /* \"contracts/EtherWallet2.sol\":4091:4126  votes[msg.sender][candidate] = true */\n      0x0100\n      exp\n      dup2\n      sload\n      dup2\n      0xff\n      mul\n      not\n      and\n      swap1\n      dup4\n      iszero\n      iszero\n      mul\n      or\n      swap1\n      sstore\n      pop\n        /* \"contracts/EtherWallet2.sol\":4170:4179  candidate */\n      dup1\n        /* \"contracts/EtherWallet2.sol\":4142:4197  VoteForNewOwner(msg.sender, candidate, block.timestamp) */\n      0xffffffffffffffffffffffffffffffffffffffff\n      and\n        /* \"contracts/EtherWallet2.sol\":4158:4168  msg.sender */\n      caller\n        /* \"contracts/EtherWallet2.sol\":4142:4197  VoteForNewOwner(msg.sender, candidate, block.timestamp) */\n      0xffffffffffffffffffffffffffffffffffffffff\n      and\n      0x2a29cab36d74cab0b1382c2e828019bda76c7994a8e09266d4b60a9cf68fb4cf\n        /* \"contracts/EtherWallet2.sol\":4181:4196  block.timestamp */\n      timestamp\n        /* \"contracts/EtherWallet2.sol\":4142:4197  VoteForNewOwner(msg.sender, candidate, block.timestamp) */\n      mload(0x40)\n      tag_103\n      swap2\n      swap1\n      tag_28\n      jump\t// in\n    tag_103:\n      mload(0x40)\n      dup1\n      swap2\n      sub\n      swap1\n      log3\n        /* \"contracts/EtherWallet2.sol\":256:257  3 */\n      0x03\n        /* \"contracts/EtherWallet2.sol\":4274:4321  countTrueVotes(candidate) >= MINIMUM_VOTE_COUNT */\n      0xff\n      and\n        /* \"contracts/EtherWallet2.sol\":4274:4299  countTrueVotes(candidate) */\n      tag_104\n        /* \"contracts/EtherWallet2.sol\":4289:4298  candidate */\n      dup3\n        /* \"contracts/EtherWallet2.sol\":4274:4288  countTrueVotes */\n      tag_32\n        /* \"contracts/EtherWallet2.sol\":4274:4299  countTrueVotes(candidate) */\n      jump\t// in\n    tag_104:\n        /* \"contracts/EtherWallet2.sol\":4274:4321  countTrueVotes(candidate) >= MINIMUM_VOTE_COUNT */\n      0xff\n      and\n      lt\n        /* \"contracts/EtherWallet2.sol\":4271:4430  if(countTrueVotes(candidate) >= MINIMUM_VOTE_COUNT){... */\n      tag_105\n      jumpi\n        /* \"contracts/EtherWallet2.sol\":4337:4359  setNewOwner(candidate) */\n      tag_106\n        /* \"contracts/EtherWallet2.sol\":4349:4358  candidate */\n      dup2\n        /* \"contracts/EtherWallet2.sol\":4337:4348  setNewOwner */\n      tag_107\n        /* \"contracts/EtherWallet2.sol\":4337:4359  setNewOwner(candidate) */\n      jump\t// in\n    tag_106:\n        /* \"contracts/EtherWallet2.sol\":4391:4400  candidate */\n      dup1\n        /* \"contracts/EtherWallet2.sol\":4379:4418  NewOwnerSet(candidate, block.timestamp) */\n      0xffffffffffffffffffffffffffffffffffffffff\n      and\n      0x40f6412cf1328603fc3d500d164e0f08a7b7839b837a3bc5b8f23bedcd219300\n        /* \"contracts/EtherWallet2.sol\":4402:4417  block.timestamp */\n      timestamp\n        /* \"contracts/EtherWallet2.sol\":4379:4418  NewOwnerSet(candidate, block.timestamp) */\n      mload(0x40)\n      tag_108\n      swap2\n      swap1\n      tag_28\n      jump\t// in\n    tag_108:\n      mload(0x40)\n      dup1\n      swap2\n      sub\n      swap1\n      log2\n        /* \"contracts/EtherWallet2.sol\":4271:4430  if(countTrueVotes(candidate) >= MINIMUM_VOTE_COUNT){... */\n    tag_105:\n        /* \"contracts/EtherWallet2.sol\":3847:4437  function voteNewOwner(address candidate) public onlyGuardian{... */\n      pop\n      jump\t// out\n        /* \"contracts/EtherWallet2.sol\":148:168  address public owner */\n    tag_51:\n      0x00\n      dup1\n      sload\n      swap1\n      0x0100\n      exp\n      swap1\n      div\n      0xffffffffffffffffffffffffffffffffffffffff\n      and\n      dup2\n      jump\t// out\n        /* \"contracts/EtherWallet2.sol\":5275:5400  function checkGuardian(address guardianAddress) public view returns(bool){... */\n    tag_57:\n        /* \"contracts/EtherWallet2.sol\":5343:5347  bool */\n      0x00\n        /* \"contracts/EtherWallet2.sol\":5366:5375  guardians */\n      0x02\n        /* \"contracts/EtherWallet2.sol\":5366:5392  guardians[guardianAddress] */\n      0x00\n        /* \"contracts/EtherWallet2.sol\":5376:5391  guardianAddress */\n      dup4\n        /* \"contracts/EtherWallet2.sol\":5366:5392  guardians[guardianAddress] */\n      0xffffffffffffffffffffffffffffffffffffffff\n      and\n      0xffffffffffffffffffffffffffffffffffffffff\n      and\n      dup2\n      mstore\n      0x20\n      add\n      swap1\n      dup2\n      mstore\n      0x20\n      add\n      0x00\n      keccak256\n      0x00\n      swap1\n      sload\n      swap1\n      0x0100\n      exp\n      swap1\n      div\n      0xff\n      and\n        /* \"contracts/EtherWallet2.sol\":5359:5392  return guardians[guardianAddress] */\n      swap1\n      pop\n        /* \"contracts/EtherWallet2.sol\":5275:5400  function checkGuardian(address guardianAddress) public view returns(bool){... */\n      swap2\n      swap1\n      pop\n      jump\t// out\n        /* \"contracts/EtherWallet2.sol\":2963:3187  function addGuardian(address newGuardian) public onlyOwner {... */\n    tag_63:\n        /* \"contracts/EtherWallet2.sol\":1013:1018  owner */\n      0x00\n      dup1\n      sload\n      swap1\n      0x0100\n      exp\n      swap1\n      div\n      0xffffffffffffffffffffffffffffffffffffffff\n      and\n        /* \"contracts/EtherWallet2.sol\":999:1018  msg.sender == owner */\n      0xffffffffffffffffffffffffffffffffffffffff\n      and\n        /* \"contracts/EtherWallet2.sol\":999:1009  msg.sender */\n      caller\n        /* \"contracts/EtherWallet2.sol\":999:1018  msg.sender == owner */\n      0xffffffffffffffffffffffffffffffffffffffff\n      and\n      eq\n        /* \"contracts/EtherWallet2.sol\":991:1063  require(msg.sender == owner, \"You must be wallet owner for this action\") */\n      tag_111\n      jumpi\n      mload(0x40)\n      0x08c379a000000000000000000000000000000000000000000000000000000000\n      dup2\n      mstore\n      0x04\n      add\n      tag_112\n      swap1\n      tag_113\n      jump\t// in\n    tag_112:\n      mload(0x40)\n      dup1\n      swap2\n      sub\n      swap1\n      revert\n    tag_111:\n        /* \"contracts/EtherWallet2.sol\":3042:3051  guardians */\n      0x02\n        /* \"contracts/EtherWallet2.sol\":3042:3064  guardians[newGuardian] */\n      0x00\n        /* \"contracts/EtherWallet2.sol\":3052:3063  newGuardian */\n      dup3\n        /* \"contracts/EtherWallet2.sol\":3042:3064  guardians[newGuardian] */\n      0xffffffffffffffffffffffffffffffffffffffff\n      and\n      0xffffffffffffffffffffffffffffffffffffffff\n      and\n      dup2\n      mstore\n      0x20\n      add\n      swap1\n      dup2\n      mstore\n      0x20\n      add\n      0x00\n      keccak256\n      0x00\n      swap1\n      sload\n      swap1\n      0x0100\n      exp\n      swap1\n      div\n      0xff\n      and\n        /* \"contracts/EtherWallet2.sol\":3041:3064  !guardians[newGuardian] */\n      iszero\n        /* \"contracts/EtherWallet2.sol\":3033:3098  require(!guardians[newGuardian], \"Address is already a guardian\") */\n      tag_115\n      jumpi\n      mload(0x40)\n      0x08c379a000000000000000000000000000000000000000000000000000000000\n      dup2\n      mstore\n      0x04\n      add\n      tag_116\n      swap1\n      tag_117\n      jump\t// in\n    tag_116:\n      mload(0x40)\n      dup1\n      swap2\n      sub\n      swap1\n      revert\n    tag_115:\n        /* \"contracts/EtherWallet2.sol\":3134:3138  true */\n      0x01\n        /* \"contracts/EtherWallet2.sol\":3109:3118  guardians */\n      0x02\n        /* \"contracts/EtherWallet2.sol\":3109:3131  guardians[newGuardian] */\n      0x00\n        /* \"contracts/EtherWallet2.sol\":3119:3130  newGuardian */\n      dup4\n        /* \"contracts/EtherWallet2.sol\":3109:3131  guardians[newGuardian] */\n      0xffffffffffffffffffffffffffffffffffffffff\n      and\n      0xffffffffffffffffffffffffffffffffffffffff\n      and\n      dup2\n      mstore\n      0x20\n      add\n      swap1\n      dup2\n      mstore\n      0x20\n      add\n      0x00\n      keccak256\n      0x00\n        /* \"contracts/EtherWallet2.sol\":3109:3138  guardians[newGuardian] = true */\n      0x0100\n      exp\n      dup2\n      sload\n      dup2\n      0xff\n      mul\n      not\n      and\n      swap1\n      dup4\n      iszero\n      iszero\n      mul\n      or\n      swap1\n      sstore\n      pop\n        /* \"contracts/EtherWallet2.sol\":3149:3161  guardianList */\n      0x01\n        /* \"contracts/EtherWallet2.sol\":3167:3178  newGuardian */\n      dup2\n        /* \"contracts/EtherWallet2.sol\":3149:3179  guardianList.push(newGuardian) */\n      swap1\n      dup1\n      0x01\n      dup2\n      sload\n      add\n      dup1\n      dup3\n      sstore\n      dup1\n      swap2\n      pop\n      pop\n      0x01\n      swap1\n      sub\n      swap1\n      0x00\n      mstore\n      keccak256(0x00, 0x20)\n      add\n      0x00\n      swap1\n      swap2\n      swap1\n      swap2\n      swap1\n      swap2\n      0x0100\n      exp\n      dup2\n      sload\n      dup2\n      0xffffffffffffffffffffffffffffffffffffffff\n      mul\n      not\n      and\n      swap1\n      dup4\n      0xffffffffffffffffffffffffffffffffffffffff\n      and\n      mul\n      or\n      swap1\n      sstore\n      pop\n        /* \"contracts/EtherWallet2.sol\":2963:3187  function addGuardian(address newGuardian) public onlyOwner {... */\n      pop\n      jump\t// out\n        /* \"contracts/EtherWallet2.sol\":3617:3707  function resetAddressAllowance(address addr) public {... */\n    tag_68:\n        /* \"contracts/EtherWallet2.sol\":3698:3699  0 */\n      0x00\n        /* \"contracts/EtherWallet2.sol\":3680:3689  allowance */\n      0x03\n        /* \"contracts/EtherWallet2.sol\":3680:3695  allowance[addr] */\n      0x00\n        /* \"contracts/EtherWallet2.sol\":3690:3694  addr */\n      dup4\n        /* \"contracts/EtherWallet2.sol\":3680:3695  allowance[addr] */\n      0xffffffffffffffffffffffffffffffffffffffff\n      and\n      0xffffffffffffffffffffffffffffffffffffffff\n      and\n      dup2\n      mstore\n      0x20\n      add\n      swap1\n      dup2\n      mstore\n      0x20\n      add\n      0x00\n      keccak256\n        /* \"contracts/EtherWallet2.sol\":3680:3699  allowance[addr] = 0 */\n      dup2\n      swap1\n      sstore\n      pop\n        /* \"contracts/EtherWallet2.sol\":3617:3707  function resetAddressAllowance(address addr) public {... */\n      pop\n      jump\t// out\n        /* \"contracts/EtherWallet2.sol\":2272:2861  function withdraw(address payable to, uint256 amount) public {... */\n    tag_73:\n        /* \"contracts/EtherWallet2.sol\":2362:2371  allowance */\n      0x03\n        /* \"contracts/EtherWallet2.sol\":2362:2383  allowance[msg.sender] */\n      0x00\n        /* \"contracts/EtherWallet2.sol\":2372:2382  msg.sender */\n      caller\n        /* \"contracts/EtherWallet2.sol\":2362:2383  allowance[msg.sender] */\n      0xffffffffffffffffffffffffffffffffffffffff\n      and\n      0xffffffffffffffffffffffffffffffffffffffff\n      and\n      dup2\n      mstore\n      0x20\n      add\n      swap1\n      dup2\n      mstore\n      0x20\n      add\n      0x00\n      keccak256\n      sload\n        /* \"contracts/EtherWallet2.sol\":2352:2358  amount */\n      dup2\n        /* \"contracts/EtherWallet2.sol\":2352:2383  amount <= allowance[msg.sender] */\n      gt\n      iszero\n        /* \"contracts/EtherWallet2.sol\":2344:2454  require(amount <= allowance[msg.sender], \"Withdraw amount is larger than allowance, increase your allowance.\") */\n      tag_121\n      jumpi\n      mload(0x40)\n      0x08c379a000000000000000000000000000000000000000000000000000000000\n      dup2\n      mstore\n      0x04\n      add\n      tag_122\n      swap1\n      tag_123\n      jump\t// in\n    tag_122:\n      mload(0x40)\n      dup1\n      swap2\n      sub\n      swap1\n      revert\n    tag_121:\n        /* \"contracts/EtherWallet2.sol\":2497:2503  amount */\n      dup1\n        /* \"contracts/EtherWallet2.sol\":2473:2481  balances */\n      0x05\n        /* \"contracts/EtherWallet2.sol\":2473:2493  balances[msg.sender] */\n      0x00\n        /* \"contracts/EtherWallet2.sol\":2482:2492  msg.sender */\n      caller\n        /* \"contracts/EtherWallet2.sol\":2473:2493  balances[msg.sender] */\n      0xffffffffffffffffffffffffffffffffffffffff\n      and\n      0xffffffffffffffffffffffffffffffffffffffff\n      and\n      dup2\n      mstore\n      0x20\n      add\n      swap1\n      dup2\n      mstore\n      0x20\n      add\n      0x00\n      keccak256\n      sload\n        /* \"contracts/EtherWallet2.sol\":2473:2503  balances[msg.sender] >= amount */\n      lt\n      iszero\n        /* \"contracts/EtherWallet2.sol\":2465:2528  require(balances[msg.sender] >= amount, \"Insufficient balance\") */\n      tag_124\n      jumpi\n      mload(0x40)\n      0x08c379a000000000000000000000000000000000000000000000000000000000\n      dup2\n      mstore\n      0x04\n      add\n      tag_125\n      swap1\n      tag_126\n      jump\t// in\n    tag_125:\n      mload(0x40)\n      dup1\n      swap2\n      sub\n      swap1\n      revert\n    tag_124:\n        /* \"contracts/EtherWallet2.sol\":2565:2571  amount */\n      dup1\n        /* \"contracts/EtherWallet2.sol\":2541:2549  balances */\n      0x05\n        /* \"contracts/EtherWallet2.sol\":2541:2561  balances[msg.sender] */\n      0x00\n        /* \"contracts/EtherWallet2.sol\":2550:2560  msg.sender */\n      caller\n        /* \"contracts/EtherWallet2.sol\":2541:2561  balances[msg.sender] */\n      0xffffffffffffffffffffffffffffffffffffffff\n      and\n      0xffffffffffffffffffffffffffffffffffffffff\n      and\n      dup2\n      mstore\n      0x20\n      add\n      swap1\n      dup2\n      mstore\n      0x20\n      add\n      0x00\n      keccak256\n      0x00\n        /* \"contracts/EtherWallet2.sol\":2541:2571  balances[msg.sender] -= amount */\n      dup3\n      dup3\n      sload\n      tag_127\n      swap2\n      swap1\n      tag_128\n      jump\t// in\n    tag_127:\n      swap3\n      pop\n      pop\n      dup2\n      swap1\n      sstore\n      pop\n        /* \"contracts/EtherWallet2.sol\":2607:2613  amount */\n      dup1\n        /* \"contracts/EtherWallet2.sol\":2582:2591  allowance */\n      0x03\n        /* \"contracts/EtherWallet2.sol\":2582:2603  allowance[msg.sender] */\n      0x00\n        /* \"contracts/EtherWallet2.sol\":2592:2602  msg.sender */\n      caller\n        /* \"contracts/EtherWallet2.sol\":2582:2603  allowance[msg.sender] */\n      0xffffffffffffffffffffffffffffffffffffffff\n      and\n      0xffffffffffffffffffffffffffffffffffffffff\n      and\n      dup2\n      mstore\n      0x20\n      add\n      swap1\n      dup2\n      mstore\n      0x20\n      add\n      0x00\n      keccak256\n      0x00\n        /* \"contracts/EtherWallet2.sol\":2582:2613  allowance[msg.sender] -= amount */\n      dup3\n      dup3\n      sload\n      tag_129\n      swap2\n      swap1\n      tag_128\n      jump\t// in\n    tag_129:\n      swap3\n      pop\n      pop\n      dup2\n      swap1\n      sstore\n      pop\n        /* \"contracts/EtherWallet2.sol\":2663:2675  bool success */\n      0x00\n        /* \"contracts/EtherWallet2.sol\":2681:2683  to */\n      dup3\n        /* \"contracts/EtherWallet2.sol\":2681:2688  to.call */\n      0xffffffffffffffffffffffffffffffffffffffff\n      and\n        /* \"contracts/EtherWallet2.sol\":2697:2703  amount */\n      dup3\n        /* \"contracts/EtherWallet2.sol\":2681:2708  to.call{value : amount}(\"\") */\n      mload(0x40)\n      tag_130\n      swap1\n      tag_131\n      jump\t// in\n    tag_130:\n      0x00\n      mload(0x40)\n      dup1\n      dup4\n      sub\n      dup2\n      dup6\n      dup8\n      gas\n      call\n      swap3\n      pop\n      pop\n      pop\n      returndatasize\n      dup1\n      0x00\n      dup2\n      eq\n      tag_134\n      jumpi\n      mload(0x40)\n      swap2\n      pop\n      and(add(returndatasize, 0x3f), not(0x1f))\n      dup3\n      add\n      0x40\n      mstore\n      returndatasize\n      dup3\n      mstore\n      returndatasize\n      0x00\n      0x20\n      dup5\n      add\n      returndatacopy\n      jump(tag_133)\n    tag_134:\n      0x60\n      swap2\n      pop\n    tag_133:\n      pop\n        /* \"contracts/EtherWallet2.sol\":2662:2708  (bool success, ) = to.call{value : amount}(\"\") */\n      pop\n      swap1\n      pop\n        /* \"contracts/EtherWallet2.sol\":2727:2734  success */\n      dup1\n        /* \"contracts/EtherWallet2.sol\":2719:2759  require(success, \"Withdraw unsuccesful\") */\n      tag_135\n      jumpi\n      mload(0x40)\n      0x08c379a000000000000000000000000000000000000000000000000000000000\n      dup2\n      mstore\n      0x04\n      add\n      tag_136\n      swap1\n      tag_137\n      jump\t// in\n    tag_136:\n      mload(0x40)\n      dup1\n      swap2\n      sub\n      swap1\n      revert\n    tag_135:\n        /* \"contracts/EtherWallet2.sol\":2803:2805  to */\n      dup3\n        /* \"contracts/EtherWallet2.sol\":2777:2853  WithdrawFunds(msg.sender, to, amount, balances[msg.sender], block.timestamp) */\n      0xffffffffffffffffffffffffffffffffffffffff\n      and\n        /* \"contracts/EtherWallet2.sol\":2791:2801  msg.sender */\n      caller\n        /* \"contracts/EtherWallet2.sol\":2777:2853  WithdrawFunds(msg.sender, to, amount, balances[msg.sender], block.timestamp) */\n      0xffffffffffffffffffffffffffffffffffffffff\n      and\n      0x2795acad0bded62e0795d80c0c6a89688f6b0517146a7a9a52abc38ff3fe0955\n        /* \"contracts/EtherWallet2.sol\":2807:2813  amount */\n      dup5\n        /* \"contracts/EtherWallet2.sol\":2815:2823  balances */\n      0x05\n        /* \"contracts/EtherWallet2.sol\":2815:2835  balances[msg.sender] */\n      0x00\n        /* \"contracts/EtherWallet2.sol\":2824:2834  msg.sender */\n      caller\n        /* \"contracts/EtherWallet2.sol\":2815:2835  balances[msg.sender] */\n      0xffffffffffffffffffffffffffffffffffffffff\n      and\n      0xffffffffffffffffffffffffffffffffffffffff\n      and\n      dup2\n      mstore\n      0x20\n      add\n      swap1\n      dup2\n      mstore\n      0x20\n      add\n      0x00\n      keccak256\n      sload\n        /* \"contracts/EtherWallet2.sol\":2837:2852  block.timestamp */\n      timestamp\n        /* \"contracts/EtherWallet2.sol\":2777:2853  WithdrawFunds(msg.sender, to, amount, balances[msg.sender], block.timestamp) */\n      mload(0x40)\n      tag_138\n      swap4\n      swap3\n      swap2\n      swap1\n      tag_76\n      jump\t// in\n    tag_138:\n      mload(0x40)\n      dup1\n      swap2\n      sub\n      swap1\n      log3\n        /* \"contracts/EtherWallet2.sol\":2333:2861  {... */\n      pop\n        /* \"contracts/EtherWallet2.sol\":2272:2861  function withdraw(address payable to, uint256 amount) public {... */\n      pop\n      pop\n      jump\t// out\n        /* \"contracts/EtherWallet2.sol\":5014:5097  function setNewOwner(address newOwner) internal {... */\n    tag_107:\n        /* \"contracts/EtherWallet2.sol\":5081:5089  newOwner */\n      dup1\n        /* \"contracts/EtherWallet2.sol\":5073:5078  owner */\n      0x00\n      dup1\n        /* \"contracts/EtherWallet2.sol\":5073:5089  owner = newOwner */\n      0x0100\n      exp\n      dup2\n      sload\n      dup2\n      0xffffffffffffffffffffffffffffffffffffffff\n      mul\n      not\n      and\n      swap1\n      dup4\n      0xffffffffffffffffffffffffffffffffffffffff\n      and\n      mul\n      or\n      swap1\n      sstore\n      pop\n        /* \"contracts/EtherWallet2.sol\":5014:5097  function setNewOwner(address newOwner) internal {... */\n      pop\n      jump\t// out\n        /* \"#utility.yul\":88:205   */\n    tag_141:\n        /* \"#utility.yul\":197:198   */\n      0x00\n        /* \"#utility.yul\":194:195   */\n      dup1\n        /* \"#utility.yul\":187:199   */\n      revert\n        /* \"#utility.yul\":334:460   */\n    tag_143:\n        /* \"#utility.yul\":371:378   */\n      0x00\n        /* \"#utility.yul\":411:453   */\n      0xffffffffffffffffffffffffffffffffffffffff\n        /* \"#utility.yul\":404:409   */\n      dup3\n        /* \"#utility.yul\":400:454   */\n      and\n        /* \"#utility.yul\":389:454   */\n      swap1\n      pop\n        /* \"#utility.yul\":334:460   */\n      swap2\n      swap1\n      pop\n      jump\t// out\n        /* \"#utility.yul\":466:562   */\n    tag_144:\n        /* \"#utility.yul\":503:510   */\n      0x00\n        /* \"#utility.yul\":532:556   */\n      tag_186\n        /* \"#utility.yul\":550:555   */\n      dup3\n        /* \"#utility.yul\":532:556   */\n      tag_143\n      jump\t// in\n    tag_186:\n        /* \"#utility.yul\":521:556   */\n      swap1\n      pop\n        /* \"#utility.yul\":466:562   */\n      swap2\n      swap1\n      pop\n      jump\t// out\n        /* \"#utility.yul\":568:690   */\n    tag_145:\n        /* \"#utility.yul\":641:665   */\n      tag_188\n        /* \"#utility.yul\":659:664   */\n      dup2\n        /* \"#utility.yul\":641:665   */\n      tag_144\n      jump\t// in\n    tag_188:\n        /* \"#utility.yul\":634:639   */\n      dup2\n        /* \"#utility.yul\":631:666   */\n      eq\n        /* \"#utility.yul\":621:684   */\n      tag_189\n      jumpi\n        /* \"#utility.yul\":680:681   */\n      0x00\n        /* \"#utility.yul\":677:678   */\n      dup1\n        /* \"#utility.yul\":670:682   */\n      revert\n        /* \"#utility.yul\":621:684   */\n    tag_189:\n        /* \"#utility.yul\":568:690   */\n      pop\n      jump\t// out\n        /* \"#utility.yul\":696:835   */\n    tag_146:\n        /* \"#utility.yul\":742:747   */\n      0x00\n        /* \"#utility.yul\":780:786   */\n      dup2\n        /* \"#utility.yul\":767:787   */\n      calldataload\n        /* \"#utility.yul\":758:787   */\n      swap1\n      pop\n        /* \"#utility.yul\":796:829   */\n      tag_191\n        /* \"#utility.yul\":823:828   */\n      dup2\n        /* \"#utility.yul\":796:829   */\n      tag_145\n      jump\t// in\n    tag_191:\n        /* \"#utility.yul\":696:835   */\n      swap3\n      swap2\n      pop\n      pop\n      jump\t// out\n        /* \"#utility.yul\":841:1170   */\n    tag_25:\n        /* \"#utility.yul\":900:906   */\n      0x00\n        /* \"#utility.yul\":949:951   */\n      0x20\n        /* \"#utility.yul\":937:946   */\n      dup3\n        /* \"#utility.yul\":928:935   */\n      dup5\n        /* \"#utility.yul\":924:947   */\n      sub\n        /* \"#utility.yul\":920:952   */\n      slt\n        /* \"#utility.yul\":917:1036   */\n      iszero\n      tag_193\n      jumpi\n        /* \"#utility.yul\":955:1034   */\n      tag_194\n      tag_141\n      jump\t// in\n    tag_194:\n        /* \"#utility.yul\":917:1036   */\n    tag_193:\n        /* \"#utility.yul\":1075:1076   */\n      0x00\n        /* \"#utility.yul\":1100:1153   */\n      tag_195\n        /* \"#utility.yul\":1145:1152   */\n      dup5\n        /* \"#utility.yul\":1136:1142   */\n      dup3\n        /* \"#utility.yul\":1125:1134   */\n      dup6\n        /* \"#utility.yul\":1121:1143   */\n      add\n        /* \"#utility.yul\":1100:1153   */\n      tag_146\n      jump\t// in\n    tag_195:\n        /* \"#utility.yul\":1090:1153   */\n      swap2\n      pop\n        /* \"#utility.yul\":1046:1163   */\n      pop\n        /* \"#utility.yul\":841:1170   */\n      swap3\n      swap2\n      pop\n      pop\n      jump\t// out\n        /* \"#utility.yul\":1176:1253   */\n    tag_147:\n        /* \"#utility.yul\":1213:1220   */\n      0x00\n        /* \"#utility.yul\":1242:1247   */\n      dup2\n        /* \"#utility.yul\":1231:1247   */\n      swap1\n      pop\n        /* \"#utility.yul\":1176:1253   */\n      swap2\n      swap1\n      pop\n      jump\t// out\n        /* \"#utility.yul\":1259:1377   */\n    tag_148:\n        /* \"#utility.yul\":1346:1370   */\n      tag_198\n        /* \"#utility.yul\":1364:1369   */\n      dup2\n        /* \"#utility.yul\":1346:1370   */\n      tag_147\n      jump\t// in\n    tag_198:\n        /* \"#utility.yul\":1341:1344   */\n      dup3\n        /* \"#utility.yul\":1334:1371   */\n      mstore\n        /* \"#utility.yul\":1259:1377   */\n      pop\n      pop\n      jump\t// out\n        /* \"#utility.yul\":1383:1605   */\n    tag_28:\n        /* \"#utility.yul\":1476:1480   */\n      0x00\n        /* \"#utility.yul\":1514:1516   */\n      0x20\n        /* \"#utility.yul\":1503:1512   */\n      dup3\n        /* \"#utility.yul\":1499:1517   */\n      add\n        /* \"#utility.yul\":1491:1517   */\n      swap1\n      pop\n        /* \"#utility.yul\":1527:1598   */\n      tag_200\n        /* \"#utility.yul\":1595:1596   */\n      0x00\n        /* \"#utility.yul\":1584:1593   */\n      dup4\n        /* \"#utility.yul\":1580:1597   */\n      add\n        /* \"#utility.yul\":1571:1577   */\n      dup5\n        /* \"#utility.yul\":1527:1598   */\n      tag_148\n      jump\t// in\n    tag_200:\n        /* \"#utility.yul\":1383:1605   */\n      swap3\n      swap2\n      pop\n      pop\n      jump\t// out\n        /* \"#utility.yul\":1611:1697   */\n    tag_149:\n        /* \"#utility.yul\":1646:1653   */\n      0x00\n        /* \"#utility.yul\":1686:1690   */\n      0xff\n        /* \"#utility.yul\":1679:1684   */\n      dup3\n        /* \"#utility.yul\":1675:1691   */\n      and\n        /* \"#utility.yul\":1664:1691   */\n      swap1\n      pop\n        /* \"#utility.yul\":1611:1697   */\n      swap2\n      swap1\n      pop\n      jump\t// out\n        /* \"#utility.yul\":1703:1815   */\n    tag_150:\n        /* \"#utility.yul\":1786:1808   */\n      tag_203\n        /* \"#utility.yul\":1802:1807   */\n      dup2\n        /* \"#utility.yul\":1786:1808   */\n      tag_149\n      jump\t// in\n    tag_203:\n        /* \"#utility.yul\":1781:1784   */\n      dup3\n        /* \"#utility.yul\":1774:1809   */\n      mstore\n        /* \"#utility.yul\":1703:1815   */\n      pop\n      pop\n      jump\t// out\n        /* \"#utility.yul\":1821:2035   */\n    tag_34:\n        /* \"#utility.yul\":1910:1914   */\n      0x00\n        /* \"#utility.yul\":1948:1950   */\n      0x20\n        /* \"#utility.yul\":1937:1946   */\n      dup3\n        /* \"#utility.yul\":1933:1951   */\n      add\n        /* \"#utility.yul\":1925:1951   */\n      swap1\n      pop\n        /* \"#utility.yul\":1961:2028   */\n      tag_205\n        /* \"#utility.yul\":2025:2026   */\n      0x00\n        /* \"#utility.yul\":2014:2023   */\n      dup4\n        /* \"#utility.yul\":2010:2027   */\n      add\n        /* \"#utility.yul\":2001:2007   */\n      dup5\n        /* \"#utility.yul\":1961:2028   */\n      tag_150\n      jump\t// in\n    tag_205:\n        /* \"#utility.yul\":1821:2035   */\n      swap3\n      swap2\n      pop\n      pop\n      jump\t// out\n        /* \"#utility.yul\":2041:2163   */\n    tag_151:\n        /* \"#utility.yul\":2114:2138   */\n      tag_207\n        /* \"#utility.yul\":2132:2137   */\n      dup2\n        /* \"#utility.yul\":2114:2138   */\n      tag_147\n      jump\t// in\n    tag_207:\n        /* \"#utility.yul\":2107:2112   */\n      dup2\n        /* \"#utility.yul\":2104:2139   */\n      eq\n        /* \"#utility.yul\":2094:2157   */\n      tag_208\n      jumpi\n        /* \"#utility.yul\":2153:2154   */\n      0x00\n        /* \"#utility.yul\":2150:2151   */\n      dup1\n        /* \"#utility.yul\":2143:2155   */\n      revert\n        /* \"#utility.yul\":2094:2157   */\n    tag_208:\n        /* \"#utility.yul\":2041:2163   */\n      pop\n      jump\t// out\n        /* \"#utility.yul\":2169:2308   */\n    tag_152:\n        /* \"#utility.yul\":2215:2220   */\n      0x00\n        /* \"#utility.yul\":2253:2259   */\n      dup2\n        /* \"#utility.yul\":2240:2260   */\n      calldataload\n        /* \"#utility.yul\":2231:2260   */\n      swap1\n      pop\n        /* \"#utility.yul\":2269:2302   */\n      tag_210\n        /* \"#utility.yul\":2296:2301   */\n      dup2\n        /* \"#utility.yul\":2269:2302   */\n      tag_151\n      jump\t// in\n    tag_210:\n        /* \"#utility.yul\":2169:2308   */\n      swap3\n      swap2\n      pop\n      pop\n      jump\t// out\n        /* \"#utility.yul\":2314:2788   */\n    tag_43:\n        /* \"#utility.yul\":2382:2388   */\n      0x00\n        /* \"#utility.yul\":2390:2396   */\n      dup1\n        /* \"#utility.yul\":2439:2441   */\n      0x40\n        /* \"#utility.yul\":2427:2436   */\n      dup4\n        /* \"#utility.yul\":2418:2425   */\n      dup6\n        /* \"#utility.yul\":2414:2437   */\n      sub\n        /* \"#utility.yul\":2410:2442   */\n      slt\n        /* \"#utility.yul\":2407:2526   */\n      iszero\n      tag_212\n      jumpi\n        /* \"#utility.yul\":2445:2524   */\n      tag_213\n      tag_141\n      jump\t// in\n    tag_213:\n        /* \"#utility.yul\":2407:2526   */\n    tag_212:\n        /* \"#utility.yul\":2565:2566   */\n      0x00\n        /* \"#utility.yul\":2590:2643   */\n      tag_214\n        /* \"#utility.yul\":2635:2642   */\n      dup6\n        /* \"#utility.yul\":2626:2632   */\n      dup3\n        /* \"#utility.yul\":2615:2624   */\n      dup7\n        /* \"#utility.yul\":2611:2633   */\n      add\n        /* \"#utility.yul\":2590:2643   */\n      tag_146\n      jump\t// in\n    tag_214:\n        /* \"#utility.yul\":2580:2643   */\n      swap3\n      pop\n        /* \"#utility.yul\":2536:2653   */\n      pop\n        /* \"#utility.yul\":2692:2694   */\n      0x20\n        /* \"#utility.yul\":2718:2771   */\n      tag_215\n        /* \"#utility.yul\":2763:2770   */\n      dup6\n        /* \"#utility.yul\":2754:2760   */\n      dup3\n        /* \"#utility.yul\":2743:2752   */\n      dup7\n        /* \"#utility.yul\":2739:2761   */\n      add\n        /* \"#utility.yul\":2718:2771   */\n      tag_152\n      jump\t// in\n    tag_215:\n        /* \"#utility.yul\":2708:2771   */\n      swap2\n      pop\n        /* \"#utility.yul\":2663:2781   */\n      pop\n        /* \"#utility.yul\":2314:2788   */\n      swap3\n      pop\n      swap3\n      swap1\n      pop\n      jump\t// out\n        /* \"#utility.yul\":2794:2912   */\n    tag_153:\n        /* \"#utility.yul\":2881:2905   */\n      tag_217\n        /* \"#utility.yul\":2899:2904   */\n      dup2\n        /* \"#utility.yul\":2881:2905   */\n      tag_144\n      jump\t// in\n    tag_217:\n        /* \"#utility.yul\":2876:2879   */\n      dup3\n        /* \"#utility.yul\":2869:2906   */\n      mstore\n        /* \"#utility.yul\":2794:2912   */\n      pop\n      pop\n      jump\t// out\n        /* \"#utility.yul\":2918:3140   */\n    tag_53:\n        /* \"#utility.yul\":3011:3015   */\n      0x00\n        /* \"#utility.yul\":3049:3051   */\n      0x20\n        /* \"#utility.yul\":3038:3047   */\n      dup3\n        /* \"#utility.yul\":3034:3052   */\n      add\n        /* \"#utility.yul\":3026:3052   */\n      swap1\n      pop\n        /* \"#utility.yul\":3062:3133   */\n      tag_219\n        /* \"#utility.yul\":3130:3131   */\n      0x00\n        /* \"#utility.yul\":3119:3128   */\n      dup4\n        /* \"#utility.yul\":3115:3132   */\n      add\n        /* \"#utility.yul\":3106:3112   */\n      dup5\n        /* \"#utility.yul\":3062:3133   */\n      tag_153\n      jump\t// in\n    tag_219:\n        /* \"#utility.yul\":2918:3140   */\n      swap3\n      swap2\n      pop\n      pop\n      jump\t// out\n        /* \"#utility.yul\":3146:3236   */\n    tag_154:\n        /* \"#utility.yul\":3180:3187   */\n      0x00\n        /* \"#utility.yul\":3223:3228   */\n      dup2\n        /* \"#utility.yul\":3216:3229   */\n      iszero\n        /* \"#utility.yul\":3209:3230   */\n      iszero\n        /* \"#utility.yul\":3198:3230   */\n      swap1\n      pop\n        /* \"#utility.yul\":3146:3236   */\n      swap2\n      swap1\n      pop\n      jump\t// out\n        /* \"#utility.yul\":3242:3351   */\n    tag_155:\n        /* \"#utility.yul\":3323:3344   */\n      tag_222\n        /* \"#utility.yul\":3338:3343   */\n      dup2\n        /* \"#utility.yul\":3323:3344   */\n      tag_154\n      jump\t// in\n    tag_222:\n        /* \"#utility.yul\":3318:3321   */\n      dup3\n        /* \"#utility.yul\":3311:3345   */\n      mstore\n        /* \"#utility.yul\":3242:3351   */\n      pop\n      pop\n      jump\t// out\n        /* \"#utility.yul\":3357:3567   */\n    tag_59:\n        /* \"#utility.yul\":3444:3448   */\n      0x00\n        /* \"#utility.yul\":3482:3484   */\n      0x20\n        /* \"#utility.yul\":3471:3480   */\n      dup3\n        /* \"#utility.yul\":3467:3485   */\n      add\n        /* \"#utility.yul\":3459:3485   */\n      swap1\n      pop\n        /* \"#utility.yul\":3495:3560   */\n      tag_224\n        /* \"#utility.yul\":3557:3558   */\n      0x00\n        /* \"#utility.yul\":3546:3555   */\n      dup4\n        /* \"#utility.yul\":3542:3559   */\n      add\n        /* \"#utility.yul\":3533:3539   */\n      dup5\n        /* \"#utility.yul\":3495:3560   */\n      tag_155\n      jump\t// in\n    tag_224:\n        /* \"#utility.yul\":3357:3567   */\n      swap3\n      swap2\n      pop\n      pop\n      jump\t// out\n        /* \"#utility.yul\":3573:3677   */\n    tag_156:\n        /* \"#utility.yul\":3618:3625   */\n      0x00\n        /* \"#utility.yul\":3647:3671   */\n      tag_226\n        /* \"#utility.yul\":3665:3670   */\n      dup3\n        /* \"#utility.yul\":3647:3671   */\n      tag_143\n      jump\t// in\n    tag_226:\n        /* \"#utility.yul\":3636:3671   */\n      swap1\n      pop\n        /* \"#utility.yul\":3573:3677   */\n      swap2\n      swap1\n      pop\n      jump\t// out\n        /* \"#utility.yul\":3683:3821   */\n    tag_157:\n        /* \"#utility.yul\":3764:3796   */\n      tag_228\n        /* \"#utility.yul\":3790:3795   */\n      dup2\n        /* \"#utility.yul\":3764:3796   */\n      tag_156\n      jump\t// in\n    tag_228:\n        /* \"#utility.yul\":3757:3762   */\n      dup2\n        /* \"#utility.yul\":3754:3797   */\n      eq\n        /* \"#utility.yul\":3744:3815   */\n      tag_229\n      jumpi\n        /* \"#utility.yul\":3811:3812   */\n      0x00\n        /* \"#utility.yul\":3808:3809   */\n      dup1\n        /* \"#utility.yul\":3801:3813   */\n      revert\n        /* \"#utility.yul\":3744:3815   */\n    tag_229:\n        /* \"#utility.yul\":3683:3821   */\n      pop\n      jump\t// out\n        /* \"#utility.yul\":3827:3982   */\n    tag_158:\n        /* \"#utility.yul\":3881:3886   */\n      0x00\n        /* \"#utility.yul\":3919:3925   */\n      dup2\n        /* \"#utility.yul\":3906:3926   */\n      calldataload\n        /* \"#utility.yul\":3897:3926   */\n      swap1\n      pop\n        /* \"#utility.yul\":3935:3976   */\n      tag_231\n        /* \"#utility.yul\":3970:3975   */\n      dup2\n        /* \"#utility.yul\":3935:3976   */\n      tag_157\n      jump\t// in\n    tag_231:\n        /* \"#utility.yul\":3827:3982   */\n      swap3\n      swap2\n      pop\n      pop\n      jump\t// out\n        /* \"#utility.yul\":3988:4478   */\n    tag_72:\n        /* \"#utility.yul\":4064:4070   */\n      0x00\n        /* \"#utility.yul\":4072:4078   */\n      dup1\n        /* \"#utility.yul\":4121:4123   */\n      0x40\n        /* \"#utility.yul\":4109:4118   */\n      dup4\n        /* \"#utility.yul\":4100:4107   */\n      dup6\n        /* \"#utility.yul\":4096:4119   */\n      sub\n        /* \"#utility.yul\":4092:4124   */\n      slt\n        /* \"#utility.yul\":4089:4208   */\n      iszero\n      tag_233\n      jumpi\n        /* \"#utility.yul\":4127:4206   */\n      tag_234\n      tag_141\n      jump\t// in\n    tag_234:\n        /* \"#utility.yul\":4089:4208   */\n    tag_233:\n        /* \"#utility.yul\":4247:4248   */\n      0x00\n        /* \"#utility.yul\":4272:4333   */\n      tag_235\n        /* \"#utility.yul\":4325:4332   */\n      dup6\n        /* \"#utility.yul\":4316:4322   */\n      dup3\n        /* \"#utility.yul\":4305:4314   */\n      dup7\n        /* \"#utility.yul\":4301:4323   */\n      add\n        /* \"#utility.yul\":4272:4333   */\n      tag_158\n      jump\t// in\n    tag_235:\n        /* \"#utility.yul\":4262:4333   */\n      swap3\n      pop\n        /* \"#utility.yul\":4218:4343   */\n      pop\n        /* \"#utility.yul\":4382:4384   */\n      0x20\n        /* \"#utility.yul\":4408:4461   */\n      tag_236\n        /* \"#utility.yul\":4453:4460   */\n      dup6\n        /* \"#utility.yul\":4444:4450   */\n      dup3\n        /* \"#utility.yul\":4433:4442   */\n      dup7\n        /* \"#utility.yul\":4429:4451   */\n      add\n        /* \"#utility.yul\":4408:4461   */\n      tag_152\n      jump\t// in\n    tag_236:\n        /* \"#utility.yul\":4398:4461   */\n      swap2\n      pop\n        /* \"#utility.yul\":4353:4471   */\n      pop\n        /* \"#utility.yul\":3988:4478   */\n      swap3\n      pop\n      swap3\n      swap1\n      pop\n      jump\t// out\n        /* \"#utility.yul\":4484:4926   */\n    tag_76:\n        /* \"#utility.yul\":4633:4637   */\n      0x00\n        /* \"#utility.yul\":4671:4673   */\n      0x60\n        /* \"#utility.yul\":4660:4669   */\n      dup3\n        /* \"#utility.yul\":4656:4674   */\n      add\n        /* \"#utility.yul\":4648:4674   */\n      swap1\n      pop\n        /* \"#utility.yul\":4684:4755   */\n      tag_238\n        /* \"#utility.yul\":4752:4753   */\n      0x00\n        /* \"#utility.yul\":4741:4750   */\n      dup4\n        /* \"#utility.yul\":4737:4754   */\n      add\n        /* \"#utility.yul\":4728:4734   */\n      dup7\n        /* \"#utility.yul\":4684:4755   */\n      tag_148\n      jump\t// in\n    tag_238:\n        /* \"#utility.yul\":4765:4837   */\n      tag_239\n        /* \"#utility.yul\":4833:4835   */\n      0x20\n        /* \"#utility.yul\":4822:4831   */\n      dup4\n        /* \"#utility.yul\":4818:4836   */\n      add\n        /* \"#utility.yul\":4809:4815   */\n      dup6\n        /* \"#utility.yul\":4765:4837   */\n      tag_148\n      jump\t// in\n    tag_239:\n        /* \"#utility.yul\":4847:4919   */\n      tag_240\n        /* \"#utility.yul\":4915:4917   */\n      0x40\n        /* \"#utility.yul\":4904:4913   */\n      dup4\n        /* \"#utility.yul\":4900:4918   */\n      add\n        /* \"#utility.yul\":4891:4897   */\n      dup5\n        /* \"#utility.yul\":4847:4919   */\n      tag_148\n      jump\t// in\n    tag_240:\n        /* \"#utility.yul\":4484:4926   */\n      swap5\n      swap4\n      pop\n      pop\n      pop\n      pop\n      jump\t// out\n        /* \"#utility.yul\":4932:5112   */\n    tag_84:\n        /* \"#utility.yul\":4980:5057   */\n      0x4e487b7100000000000000000000000000000000000000000000000000000000\n        /* \"#utility.yul\":4977:4978   */\n      0x00\n        /* \"#utility.yul\":4970:5058   */\n      mstore\n        /* \"#utility.yul\":5077:5081   */\n      0x32\n        /* \"#utility.yul\":5074:5075   */\n      0x04\n        /* \"#utility.yul\":5067:5082   */\n      mstore\n        /* \"#utility.yul\":5101:5105   */\n      0x24\n        /* \"#utility.yul\":5098:5099   */\n      0x00\n        /* \"#utility.yul\":5091:5106   */\n      revert\n        /* \"#utility.yul\":5118:5298   */\n    tag_159:\n        /* \"#utility.yul\":5166:5243   */\n      0x4e487b7100000000000000000000000000000000000000000000000000000000\n        /* \"#utility.yul\":5163:5164   */\n      0x00\n        /* \"#utility.yul\":5156:5244   */\n      mstore\n        /* \"#utility.yul\":5263:5267   */\n      0x11\n        /* \"#utility.yul\":5260:5261   */\n      0x04\n        /* \"#utility.yul\":5253:5268   */\n      mstore\n        /* \"#utility.yul\":5287:5291   */\n      0x24\n        /* \"#utility.yul\":5284:5285   */\n      0x00\n        /* \"#utility.yul\":5277:5292   */\n      revert\n        /* \"#utility.yul\":5304:5471   */\n    tag_88:\n        /* \"#utility.yul\":5341:5344   */\n      0x00\n        /* \"#utility.yul\":5364:5386   */\n      tag_244\n        /* \"#utility.yul\":5380:5385   */\n      dup3\n        /* \"#utility.yul\":5364:5386   */\n      tag_149\n      jump\t// in\n    tag_244:\n        /* \"#utility.yul\":5355:5386   */\n      swap2\n      pop\n        /* \"#utility.yul\":5408:5412   */\n      0xff\n        /* \"#utility.yul\":5401:5406   */\n      dup3\n        /* \"#utility.yul\":5398:5413   */\n      sub\n        /* \"#utility.yul\":5395:5436   */\n      tag_245\n      jumpi\n        /* \"#utility.yul\":5416:5434   */\n      tag_246\n      tag_159\n      jump\t// in\n    tag_246:\n        /* \"#utility.yul\":5395:5436   */\n    tag_245:\n        /* \"#utility.yul\":5463:5464   */\n      0x01\n        /* \"#utility.yul\":5456:5461   */\n      dup3\n        /* \"#utility.yul\":5452:5465   */\n      add\n        /* \"#utility.yul\":5445:5465   */\n      swap1\n      pop\n        /* \"#utility.yul\":5304:5471   */\n      swap2\n      swap1\n      pop\n      jump\t// out\n        /* \"#utility.yul\":5477:5710   */\n    tag_90:\n        /* \"#utility.yul\":5516:5519   */\n      0x00\n        /* \"#utility.yul\":5539:5563   */\n      tag_248\n        /* \"#utility.yul\":5557:5562   */\n      dup3\n        /* \"#utility.yul\":5539:5563   */\n      tag_147\n      jump\t// in\n    tag_248:\n        /* \"#utility.yul\":5530:5563   */\n      swap2\n      pop\n        /* \"#utility.yul\":5585:5651   */\n      0xffffffffffffffffffffffffffffffffffffffffffffffffffffffffffffffff\n        /* \"#utility.yul\":5578:5583   */\n      dup3\n        /* \"#utility.yul\":5575:5652   */\n      sub\n        /* \"#utility.yul\":5572:5675   */\n      tag_249\n      jumpi\n        /* \"#utility.yul\":5655:5673   */\n      tag_250\n      tag_159\n      jump\t// in\n    tag_250:\n        /* \"#utility.yul\":5572:5675   */\n    tag_249:\n        /* \"#utility.yul\":5702:5703   */\n      0x01\n        /* \"#utility.yul\":5695:5700   */\n      dup3\n        /* \"#utility.yul\":5691:5704   */\n      add\n        /* \"#utility.yul\":5684:5704   */\n      swap1\n      pop\n        /* \"#utility.yul\":5477:5710   */\n      swap2\n      swap1\n      pop\n      jump\t// out\n        /* \"#utility.yul\":5716:5885   */\n    tag_160:\n        /* \"#utility.yul\":5800:5811   */\n      0x00\n        /* \"#utility.yul\":5834:5840   */\n      dup3\n        /* \"#utility.yul\":5829:5832   */\n      dup3\n        /* \"#utility.yul\":5822:5841   */\n      mstore\n        /* \"#utility.yul\":5874:5878   */\n      0x20\n        /* \"#utility.yul\":5869:5872   */\n      dup3\n        /* \"#utility.yul\":5865:5879   */\n      add\n        /* \"#utility.yul\":5850:5879   */\n      swap1\n      pop\n        /* \"#utility.yul\":5716:5885   */\n      swap3\n      swap2\n      pop\n      pop\n      jump\t// out\n        /* \"#utility.yul\":5891:6141   */\n    tag_161:\n        /* \"#utility.yul\":6031:6065   */\n      0x4f6e6c792077616c6c657420477561726469616e732061726520616c6c6f7765\n        /* \"#utility.yul\":6027:6028   */\n      0x00\n        /* \"#utility.yul\":6019:6025   */\n      dup3\n        /* \"#utility.yul\":6015:6029   */\n      add\n        /* \"#utility.yul\":6008:6066   */\n      mstore\n        /* \"#utility.yul\":6100:6133   */\n      0x6420746f20766f746520666f72206e65772077616c6c6574206f776e65722e00\n        /* \"#utility.yul\":6095:6097   */\n      0x20\n        /* \"#utility.yul\":6087:6093   */\n      dup3\n        /* \"#utility.yul\":6083:6098   */\n      add\n        /* \"#utility.yul\":6076:6134   */\n      mstore\n        /* \"#utility.yul\":5891:6141   */\n      pop\n      jump\t// out\n        /* \"#utility.yul\":6147:6513   */\n    tag_162:\n        /* \"#utility.yul\":6289:6292   */\n      0x00\n        /* \"#utility.yul\":6310:6377   */\n      tag_254\n        /* \"#utility.yul\":6374:6376   */\n      0x3f\n        /* \"#utility.yul\":6369:6372   */\n      dup4\n        /* \"#utility.yul\":6310:6377   */\n      tag_160\n      jump\t// in\n    tag_254:\n        /* \"#utility.yul\":6303:6377   */\n      swap2\n      pop\n        /* \"#utility.yul\":6386:6479   */\n      tag_255\n        /* \"#utility.yul\":6475:6478   */\n      dup3\n        /* \"#utility.yul\":6386:6479   */\n      tag_161\n      jump\t// in\n    tag_255:\n        /* \"#utility.yul\":6504:6506   */\n      0x40\n        /* \"#utility.yul\":6499:6502   */\n      dup3\n        /* \"#utility.yul\":6495:6507   */\n      add\n        /* \"#utility.yul\":6488:6507   */\n      swap1\n      pop\n        /* \"#utility.yul\":6147:6513   */\n      swap2\n      swap1\n      pop\n      jump\t// out\n        /* \"#utility.yul\":6519:6938   */\n    tag_95:\n        /* \"#utility.yul\":6685:6689   */\n      0x00\n        /* \"#utility.yul\":6723:6725   */\n      0x20\n        /* \"#utility.yul\":6712:6721   */\n      dup3\n        /* \"#utility.yul\":6708:6726   */\n      add\n        /* \"#utility.yul\":6700:6726   */\n      swap1\n      pop\n        /* \"#utility.yul\":6772:6781   */\n      dup2\n        /* \"#utility.yul\":6766:6770   */\n      dup2\n        /* \"#utility.yul\":6762:6782   */\n      sub\n        /* \"#utility.yul\":6758:6759   */\n      0x00\n        /* \"#utility.yul\":6747:6756   */\n      dup4\n        /* \"#utility.yul\":6743:6760   */\n      add\n        /* \"#utility.yul\":6736:6783   */\n      mstore\n        /* \"#utility.yul\":6800:6931   */\n      tag_257\n        /* \"#utility.yul\":6926:6930   */\n      dup2\n        /* \"#utility.yul\":6800:6931   */\n      tag_162\n      jump\t// in\n    tag_257:\n        /* \"#utility.yul\":6792:6931   */\n      swap1\n      pop\n        /* \"#utility.yul\":6519:6938   */\n      swap2\n      swap1\n      pop\n      jump\t// out\n        /* \"#utility.yul\":6944:7166   */\n    tag_163:\n        /* \"#utility.yul\":7084:7118   */\n      0x4164647265737320697320616c7265616479207468652077616c6c6574206f77\n        /* \"#utility.yul\":7080:7081   */\n      0x00\n        /* \"#utility.yul\":7072:7078   */\n      dup3\n        /* \"#utility.yul\":7068:7082   */\n      add\n        /* \"#utility.yul\":7061:7119   */\n      mstore\n        /* \"#utility.yul\":7153:7158   */\n      0x6e65720000000000000000000000000000000000000000000000000000000000\n        /* \"#utility.yul\":7148:7150   */\n      0x20\n        /* \"#utility.yul\":7140:7146   */\n      dup3\n        /* \"#utility.yul\":7136:7151   */\n      add\n        /* \"#utility.yul\":7129:7159   */\n      mstore\n        /* \"#utility.yul\":6944:7166   */\n      pop\n      jump\t// out\n        /* \"#utility.yul\":7172:7538   */\n    tag_164:\n        /* \"#utility.yul\":7314:7317   */\n      0x00\n        /* \"#utility.yul\":7335:7402   */\n      tag_260\n        /* \"#utility.yul\":7399:7401   */\n      0x23\n        /* \"#utility.yul\":7394:7397   */\n      dup4\n        /* \"#utility.yul\":7335:7402   */\n      tag_160\n      jump\t// in\n    tag_260:\n        /* \"#utility.yul\":7328:7402   */\n      swap2\n      pop\n        /* \"#utility.yul\":7411:7504   */\n      tag_261\n        /* \"#utility.yul\":7500:7503   */\n      dup3\n        /* \"#utility.yul\":7411:7504   */\n      tag_163\n      jump\t// in\n    tag_261:\n        /* \"#utility.yul\":7529:7531   */\n      0x40\n        /* \"#utility.yul\":7524:7527   */\n      dup3\n        /* \"#utility.yul\":7520:7532   */\n      add\n        /* \"#utility.yul\":7513:7532   */\n      swap1\n      pop\n        /* \"#utility.yul\":7172:7538   */\n      swap2\n      swap1\n      pop\n      jump\t// out\n        /* \"#utility.yul\":7544:7963   */\n    tag_99:\n        /* \"#utility.yul\":7710:7714   */\n      0x00\n        /* \"#utility.yul\":7748:7750   */\n      0x20\n        /* \"#utility.yul\":7737:7746   */\n      dup3\n        /* \"#utility.yul\":7733:7751   */\n      add\n        /* \"#utility.yul\":7725:7751   */\n      swap1\n      pop\n        /* \"#utility.yul\":7797:7806   */\n      dup2\n        /* \"#utility.yul\":7791:7795   */\n      dup2\n        /* \"#utility.yul\":7787:7807   */\n      sub\n        /* \"#utility.yul\":7783:7784   */\n      0x00\n        /* \"#utility.yul\":7772:7781   */\n      dup4\n        /* \"#utility.yul\":7768:7785   */\n      add\n        /* \"#utility.yul\":7761:7808   */\n      mstore\n        /* \"#utility.yul\":7825:7956   */\n      tag_263\n        /* \"#utility.yul\":7951:7955   */\n      dup2\n        /* \"#utility.yul\":7825:7956   */\n      tag_164\n      jump\t// in\n    tag_263:\n        /* \"#utility.yul\":7817:7956   */\n      swap1\n      pop\n        /* \"#utility.yul\":7544:7963   */\n      swap2\n      swap1\n      pop\n      jump\t// out\n        /* \"#utility.yul\":7969:8197   */\n    tag_165:\n        /* \"#utility.yul\":8109:8143   */\n      0x596f75206861766520616c726561647920766f74656420666f72207468697320\n        /* \"#utility.yul\":8105:8106   */\n      0x00\n        /* \"#utility.yul\":8097:8103   */\n      dup3\n        /* \"#utility.yul\":8093:8107   */\n      add\n        /* \"#utility.yul\":8086:8144   */\n      mstore\n        /* \"#utility.yul\":8178:8189   */\n      0x63616e6469646174650000000000000000000000000000000000000000000000\n        /* \"#utility.yul\":8173:8175   */\n      0x20\n        /* \"#utility.yul\":8165:8171   */\n      dup3\n        /* \"#utility.yul\":8161:8176   */\n      add\n        /* \"#utility.yul\":8154:8190   */\n      mstore\n        /* \"#utility.yul\":7969:8197   */\n      pop\n      jump\t// out\n        /* \"#utility.yul\":8203:8569   */\n    tag_166:\n        /* \"#utility.yul\":8345:8348   */\n      0x00\n        /* \"#utility.yul\":8366:8433   */\n      tag_266\n        /* \"#utility.yul\":8430:8432   */\n      0x29\n        /* \"#utility.yul\":8425:8428   */\n      dup4\n        /* \"#utility.yul\":8366:8433   */\n      tag_160\n      jump\t// in\n    tag_266:\n        /* \"#utility.yul\":8359:8433   */\n      swap2\n      pop\n        /* \"#utility.yul\":8442:8535   */\n      tag_267\n        /* \"#utility.yul\":8531:8534   */\n      dup3\n        /* \"#utility.yul\":8442:8535   */\n      tag_165\n      jump\t// in\n    tag_267:\n        /* \"#utility.yul\":8560:8562   */\n      0x40\n        /* \"#utility.yul\":8555:8558   */\n      dup3\n        /* \"#utility.yul\":8551:8563   */\n      add\n        /* \"#utility.yul\":8544:8563   */\n      swap1\n      pop\n        /* \"#utility.yul\":8203:8569   */\n      swap2\n      swap1\n      pop\n      jump\t// out\n        /* \"#utility.yul\":8575:8994   */\n    tag_102:\n        /* \"#utility.yul\":8741:8745   */\n      0x00\n        /* \"#utility.yul\":8779:8781   */\n      0x20\n        /* \"#utility.yul\":8768:8777   */\n      dup3\n        /* \"#utility.yul\":8764:8782   */\n      add\n        /* \"#utility.yul\":8756:8782   */\n      swap1\n      pop\n        /* \"#utility.yul\":8828:8837   */\n      dup2\n        /* \"#utility.yul\":8822:8826   */\n      dup2\n        /* \"#utility.yul\":8818:8838   */\n      sub\n        /* \"#utility.yul\":8814:8815   */\n      0x00\n        /* \"#utility.yul\":8803:8812   */\n      dup4\n        /* \"#utility.yul\":8799:8816   */\n      add\n        /* \"#utility.yul\":8792:8839   */\n      mstore\n        /* \"#utility.yul\":8856:8987   */\n      tag_269\n        /* \"#utility.yul\":8982:8986   */\n      dup2\n        /* \"#utility.yul\":8856:8987   */\n      tag_166\n      jump\t// in\n    tag_269:\n        /* \"#utility.yul\":8848:8987   */\n      swap1\n      pop\n        /* \"#utility.yul\":8575:8994   */\n      swap2\n      swap1\n      pop\n      jump\t// out\n        /* \"#utility.yul\":9000:9227   */\n    tag_167:\n        /* \"#utility.yul\":9140:9174   */\n      0x596f75206d7573742062652077616c6c6574206f776e657220666f7220746869\n        /* \"#utility.yul\":9136:9137   */\n      0x00\n        /* \"#utility.yul\":9128:9134   */\n      dup3\n        /* \"#utility.yul\":9124:9138   */\n      add\n        /* \"#utility.yul\":9117:9175   */\n      mstore\n        /* \"#utility.yul\":9209:9219   */\n      0x7320616374696f6e000000000000000000000000000000000000000000000000\n        /* \"#utility.yul\":9204:9206   */\n      0x20\n        /* \"#utility.yul\":9196:9202   */\n      dup3\n        /* \"#utility.yul\":9192:9207   */\n      add\n        /* \"#utility.yul\":9185:9220   */\n      mstore\n        /* \"#utility.yul\":9000:9227   */\n      pop\n      jump\t// out\n        /* \"#utility.yul\":9233:9599   */\n    tag_168:\n        /* \"#utility.yul\":9375:9378   */\n      0x00\n        /* \"#utility.yul\":9396:9463   */\n      tag_272\n        /* \"#utility.yul\":9460:9462   */\n      0x28\n        /* \"#utility.yul\":9455:9458   */\n      dup4\n        /* \"#utility.yul\":9396:9463   */\n      tag_160\n      jump\t// in\n    tag_272:\n        /* \"#utility.yul\":9389:9463   */\n      swap2\n      pop\n        /* \"#utility.yul\":9472:9565   */\n      tag_273\n        /* \"#utility.yul\":9561:9564   */\n      dup3\n        /* \"#utility.yul\":9472:9565   */\n      tag_167\n      jump\t// in\n    tag_273:\n        /* \"#utility.yul\":9590:9592   */\n      0x40\n        /* \"#utility.yul\":9585:9588   */\n      dup3\n        /* \"#utility.yul\":9581:9593   */\n      add\n        /* \"#utility.yul\":9574:9593   */\n      swap1\n      pop\n        /* \"#utility.yul\":9233:9599   */\n      swap2\n      swap1\n      pop\n      jump\t// out\n        /* \"#utility.yul\":9605:10024   */\n    tag_113:\n        /* \"#utility.yul\":9771:9775   */\n      0x00\n        /* \"#utility.yul\":9809:9811   */\n      0x20\n        /* \"#utility.yul\":9798:9807   */\n      dup3\n        /* \"#utility.yul\":9794:9812   */\n      add\n        /* \"#utility.yul\":9786:9812   */\n      swap1\n      pop\n        /* \"#utility.yul\":9858:9867   */\n      dup2\n        /* \"#utility.yul\":9852:9856   */\n      dup2\n        /* \"#utility.yul\":9848:9868   */\n      sub\n        /* \"#utility.yul\":9844:9845   */\n      0x00\n        /* \"#utility.yul\":9833:9842   */\n      dup4\n        /* \"#utility.yul\":9829:9846   */\n      add\n        /* \"#utility.yul\":9822:9869   */\n      mstore\n        /* \"#utility.yul\":9886:10017   */\n      tag_275\n        /* \"#utility.yul\":10012:10016   */\n      dup2\n        /* \"#utility.yul\":9886:10017   */\n      tag_168\n      jump\t// in\n    tag_275:\n        /* \"#utility.yul\":9878:10017   */\n      swap1\n      pop\n        /* \"#utility.yul\":9605:10024   */\n      swap2\n      swap1\n      pop\n      jump\t// out\n        /* \"#utility.yul\":10030:10209   */\n    tag_169:\n        /* \"#utility.yul\":10170:10201   */\n      0x4164647265737320697320616c7265616479206120677561726469616e000000\n        /* \"#utility.yul\":10166:10167   */\n      0x00\n        /* \"#utility.yul\":10158:10164   */\n      dup3\n        /* \"#utility.yul\":10154:10168   */\n      add\n        /* \"#utility.yul\":10147:10202   */\n      mstore\n        /* \"#utility.yul\":10030:10209   */\n      pop\n      jump\t// out\n        /* \"#utility.yul\":10215:10581   */\n    tag_170:\n        /* \"#utility.yul\":10357:10360   */\n      0x00\n        /* \"#utility.yul\":10378:10445   */\n      tag_278\n        /* \"#utility.yul\":10442:10444   */\n      0x1d\n        /* \"#utility.yul\":10437:10440   */\n      dup4\n        /* \"#utility.yul\":10378:10445   */\n      tag_160\n      jump\t// in\n    tag_278:\n        /* \"#utility.yul\":10371:10445   */\n      swap2\n      pop\n        /* \"#utility.yul\":10454:10547   */\n      tag_279\n        /* \"#utility.yul\":10543:10546   */\n      dup3\n        /* \"#utility.yul\":10454:10547   */\n      tag_169\n      jump\t// in\n    tag_279:\n        /* \"#utility.yul\":10572:10574   */\n      0x20\n        /* \"#utility.yul\":10567:10570   */\n      dup3\n        /* \"#utility.yul\":10563:10575   */\n      add\n        /* \"#utility.yul\":10556:10575   */\n      swap1\n      pop\n        /* \"#utility.yul\":10215:10581   */\n      swap2\n      swap1\n      pop\n      jump\t// out\n        /* \"#utility.yul\":10587:11006   */\n    tag_117:\n        /* \"#utility.yul\":10753:10757   */\n      0x00\n        /* \"#utility.yul\":10791:10793   */\n      0x20\n        /* \"#utility.yul\":10780:10789   */\n      dup3\n        /* \"#utility.yul\":10776:10794   */\n      add\n        /* \"#utility.yul\":10768:10794   */\n      swap1\n      pop\n        /* \"#utility.yul\":10840:10849   */\n      dup2\n        /* \"#utility.yul\":10834:10838   */\n      dup2\n        /* \"#utility.yul\":10830:10850   */\n      sub\n        /* \"#utility.yul\":10826:10827   */\n      0x00\n        /* \"#utility.yul\":10815:10824   */\n      dup4\n        /* \"#utility.yul\":10811:10828   */\n      add\n        /* \"#utility.yul\":10804:10851   */\n      mstore\n        /* \"#utility.yul\":10868:10999   */\n      tag_281\n        /* \"#utility.yul\":10994:10998   */\n      dup2\n        /* \"#utility.yul\":10868:10999   */\n      tag_170\n      jump\t// in\n    tag_281:\n        /* \"#utility.yul\":10860:10999   */\n      swap1\n      pop\n        /* \"#utility.yul\":10587:11006   */\n      swap2\n      swap1\n      pop\n      jump\t// out\n        /* \"#utility.yul\":11012:11302   */\n    tag_171:\n        /* \"#utility.yul\":11152:11186   */\n      0x576974686472617720616d6f756e74206973206c6172676572207468616e2061\n        /* \"#utility.yul\":11148:11149   */\n      0x00\n        /* \"#utility.yul\":11140:11146   */\n      dup3\n        /* \"#utility.yul\":11136:11150   */\n      add\n        /* \"#utility.yul\":11129:11187   */\n      mstore\n        /* \"#utility.yul\":11221:11255   */\n      0x6c6c6f77616e63652c20696e63726561736520796f757220616c6c6f77616e63\n        /* \"#utility.yul\":11216:11218   */\n      0x20\n        /* \"#utility.yul\":11208:11214   */\n      dup3\n        /* \"#utility.yul\":11204:11219   */\n      add\n        /* \"#utility.yul\":11197:11256   */\n      mstore\n        /* \"#utility.yul\":11290:11294   */\n      0x652e000000000000000000000000000000000000000000000000000000000000\n        /* \"#utility.yul\":11285:11287   */\n      0x40\n        /* \"#utility.yul\":11277:11283   */\n      dup3\n        /* \"#utility.yul\":11273:11288   */\n      add\n        /* \"#utility.yul\":11266:11295   */\n      mstore\n        /* \"#utility.yul\":11012:11302   */\n      pop\n      jump\t// out\n        /* \"#utility.yul\":11308:11674   */\n    tag_172:\n        /* \"#utility.yul\":11450:11453   */\n      0x00\n        /* \"#utility.yul\":11471:11538   */\n      tag_284\n        /* \"#utility.yul\":11535:11537   */\n      0x42\n        /* \"#utility.yul\":11530:11533   */\n      dup4\n        /* \"#utility.yul\":11471:11538   */\n      tag_160\n      jump\t// in\n    tag_284:\n        /* \"#utility.yul\":11464:11538   */\n      swap2\n      pop\n        /* \"#utility.yul\":11547:11640   */\n      tag_285\n        /* \"#utility.yul\":11636:11639   */\n      dup3\n        /* \"#utility.yul\":11547:11640   */\n      tag_171\n      jump\t// in\n    tag_285:\n        /* \"#utility.yul\":11665:11667   */\n      0x60\n        /* \"#utility.yul\":11660:11663   */\n      dup3\n        /* \"#utility.yul\":11656:11668   */\n      add\n        /* \"#utility.yul\":11649:11668   */\n      swap1\n      pop\n        /* \"#utility.yul\":11308:11674   */\n      swap2\n      swap1\n      pop\n      jump\t// out\n        /* \"#utility.yul\":11680:12099   */\n    tag_123:\n        /* \"#utility.yul\":11846:11850   */\n      0x00\n        /* \"#utility.yul\":11884:11886   */\n      0x20\n        /* \"#utility.yul\":11873:11882   */\n      dup3\n        /* \"#utility.yul\":11869:11887   */\n      add\n        /* \"#utility.yul\":11861:11887   */\n      swap1\n      pop\n        /* \"#utility.yul\":11933:11942   */\n      dup2\n        /* \"#utility.yul\":11927:11931   */\n      dup2\n        /* \"#utility.yul\":11923:11943   */\n      sub\n        /* \"#utility.yul\":11919:11920   */\n      0x00\n        /* \"#utility.yul\":11908:11917   */\n      dup4\n        /* \"#utility.yul\":11904:11921   */\n      add\n        /* \"#utility.yul\":11897:11944   */\n      mstore\n        /* \"#utility.yul\":11961:12092   */\n      tag_287\n        /* \"#utility.yul\":12087:12091   */\n      dup2\n        /* \"#utility.yul\":11961:12092   */\n      tag_172\n      jump\t// in\n    tag_287:\n        /* \"#utility.yul\":11953:12092   */\n      swap1\n      pop\n        /* \"#utility.yul\":11680:12099   */\n      swap2\n      swap1\n      pop\n      jump\t// out\n        /* \"#utility.yul\":12105:12275   */\n    tag_173:\n        /* \"#utility.yul\":12245:12267   */\n      0x496e73756666696369656e742062616c616e6365000000000000000000000000\n        /* \"#utility.yul\":12241:12242   */\n      0x00\n        /* \"#utility.yul\":12233:12239   */\n      dup3\n        /* \"#utility.yul\":12229:12243   */\n      add\n        /* \"#utility.yul\":12222:12268   */\n      mstore\n        /* \"#utility.yul\":12105:12275   */\n      pop\n      jump\t// out\n        /* \"#utility.yul\":12281:12647   */\n    tag_174:\n        /* \"#utility.yul\":12423:12426   */\n      0x00\n        /* \"#utility.yul\":12444:12511   */\n      tag_290\n        /* \"#utility.yul\":12508:12510   */\n      0x14\n        /* \"#utility.yul\":12503:12506   */\n      dup4\n        /* \"#utility.yul\":12444:12511   */\n      tag_160\n      jump\t// in\n    tag_290:\n        /* \"#utility.yul\":12437:12511   */\n      swap2\n      pop\n        /* \"#utility.yul\":12520:12613   */\n      tag_291\n        /* \"#utility.yul\":12609:12612   */\n      dup3\n        /* \"#utility.yul\":12520:12613   */\n      tag_173\n      jump\t// in\n    tag_291:\n        /* \"#utility.yul\":12638:12640   */\n      0x20\n        /* \"#utility.yul\":12633:12636   */\n      dup3\n        /* \"#utility.yul\":12629:12641   */\n      add\n        /* \"#utility.yul\":12622:12641   */\n      swap1\n      pop\n        /* \"#utility.yul\":12281:12647   */\n      swap2\n      swap1\n      pop\n      jump\t// out\n        /* \"#utility.yul\":12653:13072   */\n    tag_126:\n        /* \"#utility.yul\":12819:12823   */\n      0x00\n        /* \"#utility.yul\":12857:12859   */\n      0x20\n        /* \"#utility.yul\":12846:12855   */\n      dup3\n        /* \"#utility.yul\":12842:12860   */\n      add\n        /* \"#utility.yul\":12834:12860   */\n      swap1\n      pop\n        /* \"#utility.yul\":12906:12915   */\n      dup2\n        /* \"#utility.yul\":12900:12904   */\n      dup2\n        /* \"#utility.yul\":12896:12916   */\n      sub\n        /* \"#utility.yul\":12892:12893   */\n      0x00\n        /* \"#utility.yul\":12881:12890   */\n      dup4\n        /* \"#utility.yul\":12877:12894   */\n      add\n        /* \"#utility.yul\":12870:12917   */\n      mstore\n        /* \"#utility.yul\":12934:13065   */\n      tag_293\n        /* \"#utility.yul\":13060:13064   */\n      dup2\n        /* \"#utility.yul\":12934:13065   */\n      tag_174\n      jump\t// in\n    tag_293:\n        /* \"#utility.yul\":12926:13065   */\n      swap1\n      pop\n        /* \"#utility.yul\":12653:13072   */\n      swap2\n      swap1\n      pop\n      jump\t// out\n        /* \"#utility.yul\":13078:13269   */\n    tag_128:\n        /* \"#utility.yul\":13118:13122   */\n      0x00\n        /* \"#utility.yul\":13138:13158   */\n      tag_295\n        /* \"#utility.yul\":13156:13157   */\n      dup3\n        /* \"#utility.yul\":13138:13158   */\n      tag_147\n      jump\t// in\n    tag_295:\n        /* \"#utility.yul\":13133:13158   */\n      swap2\n      pop\n        /* \"#utility.yul\":13172:13192   */\n      tag_296\n        /* \"#utility.yul\":13190:13191   */\n      dup4\n        /* \"#utility.yul\":13172:13192   */\n      tag_147\n      jump\t// in\n    tag_296:\n        /* \"#utility.yul\":13167:13192   */\n      swap3\n      pop\n        /* \"#utility.yul\":13211:13212   */\n      dup3\n        /* \"#utility.yul\":13208:13209   */\n      dup3\n        /* \"#utility.yul\":13205:13213   */\n      lt\n        /* \"#utility.yul\":13202:13236   */\n      iszero\n      tag_297\n      jumpi\n        /* \"#utility.yul\":13216:13234   */\n      tag_298\n      tag_159\n      jump\t// in\n    tag_298:\n        /* \"#utility.yul\":13202:13236   */\n    tag_297:\n        /* \"#utility.yul\":13261:13262   */\n      dup3\n        /* \"#utility.yul\":13258:13259   */\n      dup3\n        /* \"#utility.yul\":13254:13263   */\n      sub\n        /* \"#utility.yul\":13246:13263   */\n      swap1\n      pop\n        /* \"#utility.yul\":13078:13269   */\n      swap3\n      swap2\n      pop\n      pop\n      jump\t// out\n        /* \"#utility.yul\":13275:13422   */\n    tag_175:\n        /* \"#utility.yul\":13376:13387   */\n      0x00\n        /* \"#utility.yul\":13413:13416   */\n      dup2\n        /* \"#utility.yul\":13398:13416   */\n      swap1\n      pop\n        /* \"#utility.yul\":13275:13422   */\n      swap3\n      swap2\n      pop\n      pop\n      jump\t// out\n        /* \"#utility.yul\":13428:13542   */\n    tag_176:\n      pop\n      jump\t// out\n        /* \"#utility.yul\":13548:13946   */\n    tag_177:\n        /* \"#utility.yul\":13707:13710   */\n      0x00\n        /* \"#utility.yul\":13728:13811   */\n      tag_302\n        /* \"#utility.yul\":13809:13810   */\n      0x00\n        /* \"#utility.yul\":13804:13807   */\n      dup4\n        /* \"#utility.yul\":13728:13811   */\n      tag_175\n      jump\t// in\n    tag_302:\n        /* \"#utility.yul\":13721:13811   */\n      swap2\n      pop\n        /* \"#utility.yul\":13820:13913   */\n      tag_303\n        /* \"#utility.yul\":13909:13912   */\n      dup3\n        /* \"#utility.yul\":13820:13913   */\n      tag_176\n      jump\t// in\n    tag_303:\n        /* \"#utility.yul\":13938:13939   */\n      0x00\n        /* \"#utility.yul\":13933:13936   */\n      dup3\n        /* \"#utility.yul\":13929:13940   */\n      add\n        /* \"#utility.yul\":13922:13940   */\n      swap1\n      pop\n        /* \"#utility.yul\":13548:13946   */\n      swap2\n      swap1\n      pop\n      jump\t// out\n        /* \"#utility.yul\":13952:14331   */\n    tag_131:\n        /* \"#utility.yul\":14136:14139   */\n      0x00\n        /* \"#utility.yul\":14158:14305   */\n      tag_305\n        /* \"#utility.yul\":14301:14304   */\n      dup3\n        /* \"#utility.yul\":14158:14305   */\n      tag_177\n      jump\t// in\n    tag_305:\n        /* \"#utility.yul\":14151:14305   */\n      swap2\n      pop\n        /* \"#utility.yul\":14322:14325   */\n      dup2\n        /* \"#utility.yul\":14315:14325   */\n      swap1\n      pop\n        /* \"#utility.yul\":13952:14331   */\n      swap2\n      swap1\n      pop\n      jump\t// out\n        /* \"#utility.yul\":14337:14507   */\n    tag_178:\n        /* \"#utility.yul\":14477:14499   */\n      0x576974686472617720756e73756363657366756c000000000000000000000000\n        /* \"#utility.yul\":14473:14474   */\n      0x00\n        /* \"#utility.yul\":14465:14471   */\n      dup3\n        /* \"#utility.yul\":14461:14475   */\n      add\n        /* \"#utility.yul\":14454:14500   */\n      mstore\n        /* \"#utility.yul\":14337:14507   */\n      pop\n      jump\t// out\n        /* \"#utility.yul\":14513:14879   */\n    tag_179:\n        /* \"#utility.yul\":14655:14658   */\n      0x00\n        /* \"#utility.yul\":14676:14743   */\n      tag_308\n        /* \"#utility.yul\":14740:14742   */\n      0x14\n        /* \"#utility.yul\":14735:14738   */\n      dup4\n        /* \"#utility.yul\":14676:14743   */\n      tag_160\n      jump\t// in\n    tag_308:\n        /* \"#utility.yul\":14669:14743   */\n      swap2\n      pop\n        /* \"#utility.yul\":14752:14845   */\n      tag_309\n        /* \"#utility.yul\":14841:14844   */\n      dup3\n        /* \"#utility.yul\":14752:14845   */\n      tag_178\n      jump\t// in\n    tag_309:\n        /* \"#utility.yul\":14870:14872   */\n      0x20\n        /* \"#utility.yul\":14865:14868   */\n      dup3\n        /* \"#utility.yul\":14861:14873   */\n      add\n        /* \"#utility.yul\":14854:14873   */\n      swap1\n      pop\n        /* \"#utility.yul\":14513:14879   */\n      swap2\n      swap1\n      pop\n      jump\t// out\n        /* \"#utility.yul\":14885:15304   */\n    tag_137:\n        /* \"#utility.yul\":15051:15055   */\n      0x00\n        /* \"#utility.yul\":15089:15091   */\n      0x20\n        /* \"#utility.yul\":15078:15087   */\n      dup3\n        /* \"#utility.yul\":15074:15092   */\n      add\n        /* \"#utility.yul\":15066:15092   */\n      swap1\n      pop\n        /* \"#utility.yul\":15138:15147   */\n      dup2\n        /* \"#utility.yul\":15132:15136   */\n      dup2\n        /* \"#utility.yul\":15128:15148   */\n      sub\n        /* \"#utility.yul\":15124:15125   */\n      0x00\n        /* \"#utility.yul\":15113:15122   */\n      dup4\n        /* \"#utility.yul\":15109:15126   */\n      add\n        /* \"#utility.yul\":15102:15149   */\n      mstore\n        /* \"#utility.yul\":15166:15297   */\n      tag_311\n        /* \"#utility.yul\":15292:15296   */\n      dup2\n        /* \"#utility.yul\":15166:15297   */\n      tag_179\n      jump\t// in\n    tag_311:\n        /* \"#utility.yul\":15158:15297   */\n      swap1\n      pop\n        /* \"#utility.yul\":14885:15304   */\n      swap2\n      swap1\n      pop\n      jump\t// out\n\n    auxdata: 0xa26469706673582212208c6c82a6453692d0b80bcbcc728facf7bae7bb5c7cfc336f65e693c2ed7be75064736f6c634300080f0033\n}\n",
				"bytecode": {
					"linkReferences": {},
					"object": "608060405234801561001057600080fd5b50336000806101000a81548173ffffffffffffffffffffffffffffffffffffffff021916908373ffffffffffffffffffffffffffffffffffffffff1602179055506001600260003373ffffffffffffffffffffffffffffffffffffffff1673ffffffffffffffffffffffffffffffffffffffff16815260200190815260200160002060006101000a81548160ff0219169083151502179055506001339080600181540180825580915050600190039060005260206000200160009091909190916101000a81548173ffffffffffffffffffffffffffffffffffffffff021916908373ffffffffffffffffffffffffffffffffffffffff1602179055506116c58061011b6000396000f3fe6080604052600436106100a05760003560e01c80638da5cb5b116100645780638da5cb5b146101c2578063a428b362146101ed578063a526d83b1461022a578063d0e30db014610253578063e1721f7b1461025d578063f3fef3a314610286576100af565b80631a197a26146100b95780631ef4e720146100f657806327e235e314610133578063310ec4a7146101705780637aa6a7f614610199576100af565b366100af576100ad6102af565b005b6100b76102af565b005b3480156100c557600080fd5b506100e060048036038101906100db9190610ed8565b610386565b6040516100ed9190610f1e565b60405180910390f35b34801561010257600080fd5b5061011d60048036038101906101189190610ed8565b6103cf565b60405161012a9190610f55565b60405180910390f35b34801561013f57600080fd5b5061015a60048036038101906101559190610ed8565b6104df565b6040516101679190610f1e565b60405180910390f35b34801561017c57600080fd5b5061019760048036038101906101929190610f9c565b6104f7565b005b3480156101a557600080fd5b506101c060048036038101906101bb9190610ed8565b61053f565b005b3480156101ce57600080fd5b506101d761088e565b6040516101e49190610feb565b60405180910390f35b3480156101f957600080fd5b50610214600480360381019061020f9190610ed8565b6108b2565b6040516102219190611021565b60405180910390f35b34801561023657600080fd5b50610251600480360381019061024c9190610ed8565b610908565b005b61025b6102af565b005b34801561026957600080fd5b50610284600480360381019061027f9190610ed8565b610ae1565b005b34801561029257600080fd5b506102ad60048036038101906102a8919061107a565b610b29565b005b34600560003373ffffffffffffffffffffffffffffffffffffffff1673ffffffffffffffffffffffffffffffffffffffff168152602001908152602001600020819055503373ffffffffffffffffffffffffffffffffffffffff167f5f74095c3cf9cd2b4407992767113d77fc65cb2423a83ecc71977f3ace6b34f434600560003373ffffffffffffffffffffffffffffffffffffffff1673ffffffffffffffffffffffffffffffffffffffff168152602001908152602001600020544260405161037c939291906110ba565b60405180910390a2565b6000600360008373ffffffffffffffffffffffffffffffffffffffff1673ffffffffffffffffffffffffffffffffffffffff168152602001908152602001600020549050919050565b6000806000905060005b6001805490508110156104d55760046000600183815481106103fe576103fd6110f1565b5b9060005260206000200160009054906101000a900473ffffffffffffffffffffffffffffffffffffffff1673ffffffffffffffffffffffffffffffffffffffff1673ffffffffffffffffffffffffffffffffffffffff16815260200190815260200160002060008573ffffffffffffffffffffffffffffffffffffffff1673ffffffffffffffffffffffffffffffffffffffff16815260200190815260200160002060009054906101000a900460ff16156104c25781806104be9061114f565b9250505b80806104cd90611178565b9150506103d9565b5080915050919050565b60056020528060005260406000206000915090505481565b80600360008473ffffffffffffffffffffffffffffffffffffffff1673ffffffffffffffffffffffffffffffffffffffff168152602001908152602001600020819055505050565b600260003373ffffffffffffffffffffffffffffffffffffffff1673ffffffffffffffffffffffffffffffffffffffff16815260200190815260200160002060009054906101000a900460ff166105cb576040517f08c379a00000000000000000000000000000000000000000000000000000000081526004016105c290611243565b60405180910390fd5b60008054906101000a900473ffffffffffffffffffffffffffffffffffffffff1673ffffffffffffffffffffffffffffffffffffffff168173ffffffffffffffffffffffffffffffffffffffff1603610659576040517f08c379a0000000000000000000000000000000000000000000000000000000008152600401610650906112d5565b60405180910390fd5b600460003373ffffffffffffffffffffffffffffffffffffffff1673ffffffffffffffffffffffffffffffffffffffff16815260200190815260200160002060008273ffffffffffffffffffffffffffffffffffffffff1673ffffffffffffffffffffffffffffffffffffffff16815260200190815260200160002060009054906101000a900460ff1615610723576040517f08c379a000000000000000000000000000000000000000000000000000000000815260040161071a90611367565b60405180910390fd5b6001600460003373ffffffffffffffffffffffffffffffffffffffff1673ffffffffffffffffffffffffffffffffffffffff16815260200190815260200160002060008373ffffffffffffffffffffffffffffffffffffffff1673ffffffffffffffffffffffffffffffffffffffff16815260200190815260200160002060006101000a81548160ff0219169083151502179055508073ffffffffffffffffffffffffffffffffffffffff163373ffffffffffffffffffffffffffffffffffffffff167f2a29cab36d74cab0b1382c2e828019bda76c7994a8e09266d4b60a9cf68fb4cf426040516108159190610f1e565b60405180910390a3600360ff1661082b826103cf565b60ff161061088b5761083c81610e32565b8073ffffffffffffffffffffffffffffffffffffffff167f40f6412cf1328603fc3d500d164e0f08a7b7839b837a3bc5b8f23bedcd219300426040516108829190610f1e565b60405180910390a25b50565b60008054906101000a900473ffffffffffffffffffffffffffffffffffffffff1681565b6000600260008373ffffffffffffffffffffffffffffffffffffffff1673ffffffffffffffffffffffffffffffffffffffff16815260200190815260200160002060009054906101000a900460ff169050919050565b60008054906101000a900473ffffffffffffffffffffffffffffffffffffffff1673ffffffffffffffffffffffffffffffffffffffff163373ffffffffffffffffffffffffffffffffffffffff1614610996576040517f08c379a000000000000000000000000000000000000000000000000000000000815260040161098d906113f9565b60405180910390fd5b600260008273ffffffffffffffffffffffffffffffffffffffff1673ffffffffffffffffffffffffffffffffffffffff16815260200190815260200160002060009054906101000a900460ff1615610a23576040517f08c379a0000000000000000000000000000000000000000000000000000000008152600401610a1a90611465565b60405180910390fd5b6001600260008373ffffffffffffffffffffffffffffffffffffffff1673ffffffffffffffffffffffffffffffffffffffff16815260200190815260200160002060006101000a81548160ff0219169083151502179055506001819080600181540180825580915050600190039060005260206000200160009091909190916101000a81548173ffffffffffffffffffffffffffffffffffffffff021916908373ffffffffffffffffffffffffffffffffffffffff16021790555050565b6000600360008373ffffffffffffffffffffffffffffffffffffffff1673ffffffffffffffffffffffffffffffffffffffff1681526020019081526020016000208190555050565b600360003373ffffffffffffffffffffffffffffffffffffffff1673ffffffffffffffffffffffffffffffffffffffff16815260200190815260200160002054811115610bab576040517f08c379a0000000000000000000000000000000000000000000000000000000008152600401610ba29061151d565b60405180910390fd5b80600560003373ffffffffffffffffffffffffffffffffffffffff1673ffffffffffffffffffffffffffffffffffffffff168152602001908152602001600020541015610c2d576040517f08c379a0000000000000000000000000000000000000000000000000000000008152600401610c2490611589565b60405180910390fd5b80600560003373ffffffffffffffffffffffffffffffffffffffff1673ffffffffffffffffffffffffffffffffffffffff1681526020019081526020016000206000828254610c7c91906115a9565b9250508190555080600360003373ffffffffffffffffffffffffffffffffffffffff1673ffffffffffffffffffffffffffffffffffffffff1681526020019081526020016000206000828254610cd291906115a9565b9250508190555060008273ffffffffffffffffffffffffffffffffffffffff1682604051610cff9061160e565b60006040518083038185875af1925050503d8060008114610d3c576040519150601f19603f3d011682016040523d82523d6000602084013e610d41565b606091505b5050905080610d85576040517f08c379a0000000000000000000000000000000000000000000000000000000008152600401610d7c9061166f565b60405180910390fd5b8273ffffffffffffffffffffffffffffffffffffffff163373ffffffffffffffffffffffffffffffffffffffff167f2795acad0bded62e0795d80c0c6a89688f6b0517146a7a9a52abc38ff3fe095584600560003373ffffffffffffffffffffffffffffffffffffffff1673ffffffffffffffffffffffffffffffffffffffff1681526020019081526020016000205442604051610e25939291906110ba565b60405180910390a3505050565b806000806101000a81548173ffffffffffffffffffffffffffffffffffffffff021916908373ffffffffffffffffffffffffffffffffffffffff16021790555050565b600080fd5b600073ffffffffffffffffffffffffffffffffffffffff82169050919050565b6000610ea582610e7a565b9050919050565b610eb581610e9a565b8114610ec057600080fd5b50565b600081359050610ed281610eac565b92915050565b600060208284031215610eee57610eed610e75565b5b6000610efc84828501610ec3565b91505092915050565b6000819050919050565b610f1881610f05565b82525050565b6000602082019050610f336000830184610f0f565b92915050565b600060ff82169050919050565b610f4f81610f39565b82525050565b6000602082019050610f6a6000830184610f46565b92915050565b610f7981610f05565b8114610f8457600080fd5b50565b600081359050610f9681610f70565b92915050565b60008060408385031215610fb357610fb2610e75565b5b6000610fc185828601610ec3565b9250506020610fd285828601610f87565b9150509250929050565b610fe581610e9a565b82525050565b60006020820190506110006000830184610fdc565b92915050565b60008115159050919050565b61101b81611006565b82525050565b60006020820190506110366000830184611012565b92915050565b600061104782610e7a565b9050919050565b6110578161103c565b811461106257600080fd5b50565b6000813590506110748161104e565b92915050565b6000806040838503121561109157611090610e75565b5b600061109f85828601611065565b92505060206110b085828601610f87565b9150509250929050565b60006060820190506110cf6000830186610f0f565b6110dc6020830185610f0f565b6110e96040830184610f0f565b949350505050565b7f4e487b7100000000000000000000000000000000000000000000000000000000600052603260045260246000fd5b7f4e487b7100000000000000000000000000000000000000000000000000000000600052601160045260246000fd5b600061115a82610f39565b915060ff820361116d5761116c611120565b5b600182019050919050565b600061118382610f05565b91507fffffffffffffffffffffffffffffffffffffffffffffffffffffffffffffffff82036111b5576111b4611120565b5b600182019050919050565b600082825260208201905092915050565b7f4f6e6c792077616c6c657420477561726469616e732061726520616c6c6f776560008201527f6420746f20766f746520666f72206e65772077616c6c6574206f776e65722e00602082015250565b600061122d603f836111c0565b9150611238826111d1565b604082019050919050565b6000602082019050818103600083015261125c81611220565b9050919050565b7f4164647265737320697320616c7265616479207468652077616c6c6574206f7760008201527f6e65720000000000000000000000000000000000000000000000000000000000602082015250565b60006112bf6023836111c0565b91506112ca82611263565b604082019050919050565b600060208201905081810360008301526112ee816112b2565b9050919050565b7f596f75206861766520616c726561647920766f74656420666f7220746869732060008201527f63616e6469646174650000000000000000000000000000000000000000000000602082015250565b60006113516029836111c0565b915061135c826112f5565b604082019050919050565b6000602082019050818103600083015261138081611344565b9050919050565b7f596f75206d7573742062652077616c6c6574206f776e657220666f722074686960008201527f7320616374696f6e000000000000000000000000000000000000000000000000602082015250565b60006113e36028836111c0565b91506113ee82611387565b604082019050919050565b60006020820190508181036000830152611412816113d6565b9050919050565b7f4164647265737320697320616c7265616479206120677561726469616e000000600082015250565b600061144f601d836111c0565b915061145a82611419565b602082019050919050565b6000602082019050818103600083015261147e81611442565b9050919050565b7f576974686472617720616d6f756e74206973206c6172676572207468616e206160008201527f6c6c6f77616e63652c20696e63726561736520796f757220616c6c6f77616e6360208201527f652e000000000000000000000000000000000000000000000000000000000000604082015250565b60006115076042836111c0565b915061151282611485565b606082019050919050565b60006020820190508181036000830152611536816114fa565b9050919050565b7f496e73756666696369656e742062616c616e6365000000000000000000000000600082015250565b60006115736014836111c0565b915061157e8261153d565b602082019050919050565b600060208201905081810360008301526115a281611566565b9050919050565b60006115b482610f05565b91506115bf83610f05565b9250828210156115d2576115d1611120565b5b828203905092915050565b600081905092915050565b50565b60006115f86000836115dd565b9150611603826115e8565b600082019050919050565b6000611619826115eb565b9150819050919050565b7f576974686472617720756e73756363657366756c000000000000000000000000600082015250565b60006116596014836111c0565b915061166482611623565b602082019050919050565b600060208201905081810360008301526116888161164c565b905091905056fea26469706673582212208c6c82a6453692d0b80bcbcc728facf7bae7bb5c7cfc336f65e693c2ed7be75064736f6c634300080f0033",
					"opcodes": "PUSH1 0x80 PUSH1 0x40 MSTORE CALLVALUE DUP1 ISZERO PUSH2 0x10 JUMPI PUSH1 0x0 DUP1 REVERT JUMPDEST POP CALLER PUSH1 0x0 DUP1 PUSH2 0x100 EXP DUP2 SLOAD DUP2 PUSH20 0xFFFFFFFFFFFFFFFFFFFFFFFFFFFFFFFFFFFFFFFF MUL NOT AND SWAP1 DUP4 PUSH20 0xFFFFFFFFFFFFFFFFFFFFFFFFFFFFFFFFFFFFFFFF AND MUL OR SWAP1 SSTORE POP PUSH1 0x1 PUSH1 0x2 PUSH1 0x0 CALLER PUSH20 0xFFFFFFFFFFFFFFFFFFFFFFFFFFFFFFFFFFFFFFFF AND PUSH20 0xFFFFFFFFFFFFFFFFFFFFFFFFFFFFFFFFFFFFFFFF AND DUP2 MSTORE PUSH1 0x20 ADD SWAP1 DUP2 MSTORE PUSH1 0x20 ADD PUSH1 0x0 KECCAK256 PUSH1 0x0 PUSH2 0x100 EXP DUP2 SLOAD DUP2 PUSH1 0xFF MUL NOT AND SWAP1 DUP4 ISZERO ISZERO MUL OR SWAP1 SSTORE POP PUSH1 0x1 CALLER SWAP1 DUP1 PUSH1 0x1 DUP2 SLOAD ADD DUP1 DUP3 SSTORE DUP1 SWAP2 POP POP PUSH1 0x1 SWAP1 SUB SWAP1 PUSH1 0x0 MSTORE PUSH1 0x20 PUSH1 0x0 KECCAK256 ADD PUSH1 0x0 SWAP1 SWAP2 SWAP1 SWAP2 SWAP1 SWAP2 PUSH2 0x100 EXP DUP2 SLOAD DUP2 PUSH20 0xFFFFFFFFFFFFFFFFFFFFFFFFFFFFFFFFFFFFFFFF MUL NOT AND SWAP1 DUP4 PUSH20 0xFFFFFFFFFFFFFFFFFFFFFFFFFFFFFFFFFFFFFFFF AND MUL OR SWAP1 SSTORE POP PUSH2 0x16C5 DUP1 PUSH2 0x11B PUSH1 0x0 CODECOPY PUSH1 0x0 RETURN INVALID PUSH1 0x80 PUSH1 0x40 MSTORE PUSH1 0x4 CALLDATASIZE LT PUSH2 0xA0 JUMPI PUSH1 0x0 CALLDATALOAD PUSH1 0xE0 SHR DUP1 PUSH4 0x8DA5CB5B GT PUSH2 0x64 JUMPI DUP1 PUSH4 0x8DA5CB5B EQ PUSH2 0x1C2 JUMPI DUP1 PUSH4 0xA428B362 EQ PUSH2 0x1ED JUMPI DUP1 PUSH4 0xA526D83B EQ PUSH2 0x22A JUMPI DUP1 PUSH4 0xD0E30DB0 EQ PUSH2 0x253 JUMPI DUP1 PUSH4 0xE1721F7B EQ PUSH2 0x25D JUMPI DUP1 PUSH4 0xF3FEF3A3 EQ PUSH2 0x286 JUMPI PUSH2 0xAF JUMP JUMPDEST DUP1 PUSH4 0x1A197A26 EQ PUSH2 0xB9 JUMPI DUP1 PUSH4 0x1EF4E720 EQ PUSH2 0xF6 JUMPI DUP1 PUSH4 0x27E235E3 EQ PUSH2 0x133 JUMPI DUP1 PUSH4 0x310EC4A7 EQ PUSH2 0x170 JUMPI DUP1 PUSH4 0x7AA6A7F6 EQ PUSH2 0x199 JUMPI PUSH2 0xAF JUMP JUMPDEST CALLDATASIZE PUSH2 0xAF JUMPI PUSH2 0xAD PUSH2 0x2AF JUMP JUMPDEST STOP JUMPDEST PUSH2 0xB7 PUSH2 0x2AF JUMP JUMPDEST STOP JUMPDEST CALLVALUE DUP1 ISZERO PUSH2 0xC5 JUMPI PUSH1 0x0 DUP1 REVERT JUMPDEST POP PUSH2 0xE0 PUSH1 0x4 DUP1 CALLDATASIZE SUB DUP2 ADD SWAP1 PUSH2 0xDB SWAP2 SWAP1 PUSH2 0xED8 JUMP JUMPDEST PUSH2 0x386 JUMP JUMPDEST PUSH1 0x40 MLOAD PUSH2 0xED SWAP2 SWAP1 PUSH2 0xF1E JUMP JUMPDEST PUSH1 0x40 MLOAD DUP1 SWAP2 SUB SWAP1 RETURN JUMPDEST CALLVALUE DUP1 ISZERO PUSH2 0x102 JUMPI PUSH1 0x0 DUP1 REVERT JUMPDEST POP PUSH2 0x11D PUSH1 0x4 DUP1 CALLDATASIZE SUB DUP2 ADD SWAP1 PUSH2 0x118 SWAP2 SWAP1 PUSH2 0xED8 JUMP JUMPDEST PUSH2 0x3CF JUMP JUMPDEST PUSH1 0x40 MLOAD PUSH2 0x12A SWAP2 SWAP1 PUSH2 0xF55 JUMP JUMPDEST PUSH1 0x40 MLOAD DUP1 SWAP2 SUB SWAP1 RETURN JUMPDEST CALLVALUE DUP1 ISZERO PUSH2 0x13F JUMPI PUSH1 0x0 DUP1 REVERT JUMPDEST POP PUSH2 0x15A PUSH1 0x4 DUP1 CALLDATASIZE SUB DUP2 ADD SWAP1 PUSH2 0x155 SWAP2 SWAP1 PUSH2 0xED8 JUMP JUMPDEST PUSH2 0x4DF JUMP JUMPDEST PUSH1 0x40 MLOAD PUSH2 0x167 SWAP2 SWAP1 PUSH2 0xF1E JUMP JUMPDEST PUSH1 0x40 MLOAD DUP1 SWAP2 SUB SWAP1 RETURN JUMPDEST CALLVALUE DUP1 ISZERO PUSH2 0x17C JUMPI PUSH1 0x0 DUP1 REVERT JUMPDEST POP PUSH2 0x197 PUSH1 0x4 DUP1 CALLDATASIZE SUB DUP2 ADD SWAP1 PUSH2 0x192 SWAP2 SWAP1 PUSH2 0xF9C JUMP JUMPDEST PUSH2 0x4F7 JUMP JUMPDEST STOP JUMPDEST CALLVALUE DUP1 ISZERO PUSH2 0x1A5 JUMPI PUSH1 0x0 DUP1 REVERT JUMPDEST POP PUSH2 0x1C0 PUSH1 0x4 DUP1 CALLDATASIZE SUB DUP2 ADD SWAP1 PUSH2 0x1BB SWAP2 SWAP1 PUSH2 0xED8 JUMP JUMPDEST PUSH2 0x53F JUMP JUMPDEST STOP JUMPDEST CALLVALUE DUP1 ISZERO PUSH2 0x1CE JUMPI PUSH1 0x0 DUP1 REVERT JUMPDEST POP PUSH2 0x1D7 PUSH2 0x88E JUMP JUMPDEST PUSH1 0x40 MLOAD PUSH2 0x1E4 SWAP2 SWAP1 PUSH2 0xFEB JUMP JUMPDEST PUSH1 0x40 MLOAD DUP1 SWAP2 SUB SWAP1 RETURN JUMPDEST CALLVALUE DUP1 ISZERO PUSH2 0x1F9 JUMPI PUSH1 0x0 DUP1 REVERT JUMPDEST POP PUSH2 0x214 PUSH1 0x4 DUP1 CALLDATASIZE SUB DUP2 ADD SWAP1 PUSH2 0x20F SWAP2 SWAP1 PUSH2 0xED8 JUMP JUMPDEST PUSH2 0x8B2 JUMP JUMPDEST PUSH1 0x40 MLOAD PUSH2 0x221 SWAP2 SWAP1 PUSH2 0x1021 JUMP JUMPDEST PUSH1 0x40 MLOAD DUP1 SWAP2 SUB SWAP1 RETURN JUMPDEST CALLVALUE DUP1 ISZERO PUSH2 0x236 JUMPI PUSH1 0x0 DUP1 REVERT JUMPDEST POP PUSH2 0x251 PUSH1 0x4 DUP1 CALLDATASIZE SUB DUP2 ADD SWAP1 PUSH2 0x24C SWAP2 SWAP1 PUSH2 0xED8 JUMP JUMPDEST PUSH2 0x908 JUMP JUMPDEST STOP JUMPDEST PUSH2 0x25B PUSH2 0x2AF JUMP JUMPDEST STOP JUMPDEST CALLVALUE DUP1 ISZERO PUSH2 0x269 JUMPI PUSH1 0x0 DUP1 REVERT JUMPDEST POP PUSH2 0x284 PUSH1 0x4 DUP1 CALLDATASIZE SUB DUP2 ADD SWAP1 PUSH2 0x27F SWAP2 SWAP1 PUSH2 0xED8 JUMP JUMPDEST PUSH2 0xAE1 JUMP JUMPDEST STOP JUMPDEST CALLVALUE DUP1 ISZERO PUSH2 0x292 JUMPI PUSH1 0x0 DUP1 REVERT JUMPDEST POP PUSH2 0x2AD PUSH1 0x4 DUP1 CALLDATASIZE SUB DUP2 ADD SWAP1 PUSH2 0x2A8 SWAP2 SWAP1 PUSH2 0x107A JUMP JUMPDEST PUSH2 0xB29 JUMP JUMPDEST STOP JUMPDEST CALLVALUE PUSH1 0x5 PUSH1 0x0 CALLER PUSH20 0xFFFFFFFFFFFFFFFFFFFFFFFFFFFFFFFFFFFFFFFF AND PUSH20 0xFFFFFFFFFFFFFFFFFFFFFFFFFFFFFFFFFFFFFFFF AND DUP2 MSTORE PUSH1 0x20 ADD SWAP1 DUP2 MSTORE PUSH1 0x20 ADD PUSH1 0x0 KECCAK256 DUP2 SWAP1 SSTORE POP CALLER PUSH20 0xFFFFFFFFFFFFFFFFFFFFFFFFFFFFFFFFFFFFFFFF AND PUSH32 0x5F74095C3CF9CD2B4407992767113D77FC65CB2423A83ECC71977F3ACE6B34F4 CALLVALUE PUSH1 0x5 PUSH1 0x0 CALLER PUSH20 0xFFFFFFFFFFFFFFFFFFFFFFFFFFFFFFFFFFFFFFFF AND PUSH20 0xFFFFFFFFFFFFFFFFFFFFFFFFFFFFFFFFFFFFFFFF AND DUP2 MSTORE PUSH1 0x20 ADD SWAP1 DUP2 MSTORE PUSH1 0x20 ADD PUSH1 0x0 KECCAK256 SLOAD TIMESTAMP PUSH1 0x40 MLOAD PUSH2 0x37C SWAP4 SWAP3 SWAP2 SWAP1 PUSH2 0x10BA JUMP JUMPDEST PUSH1 0x40 MLOAD DUP1 SWAP2 SUB SWAP1 LOG2 JUMP JUMPDEST PUSH1 0x0 PUSH1 0x3 PUSH1 0x0 DUP4 PUSH20 0xFFFFFFFFFFFFFFFFFFFFFFFFFFFFFFFFFFFFFFFF AND PUSH20 0xFFFFFFFFFFFFFFFFFFFFFFFFFFFFFFFFFFFFFFFF AND DUP2 MSTORE PUSH1 0x20 ADD SWAP1 DUP2 MSTORE PUSH1 0x20 ADD PUSH1 0x0 KECCAK256 SLOAD SWAP1 POP SWAP2 SWAP1 POP JUMP JUMPDEST PUSH1 0x0 DUP1 PUSH1 0x0 SWAP1 POP PUSH1 0x0 JUMPDEST PUSH1 0x1 DUP1 SLOAD SWAP1 POP DUP2 LT ISZERO PUSH2 0x4D5 JUMPI PUSH1 0x4 PUSH1 0x0 PUSH1 0x1 DUP4 DUP2 SLOAD DUP2 LT PUSH2 0x3FE JUMPI PUSH2 0x3FD PUSH2 0x10F1 JUMP JUMPDEST JUMPDEST SWAP1 PUSH1 0x0 MSTORE PUSH1 0x20 PUSH1 0x0 KECCAK256 ADD PUSH1 0x0 SWAP1 SLOAD SWAP1 PUSH2 0x100 EXP SWAP1 DIV PUSH20 0xFFFFFFFFFFFFFFFFFFFFFFFFFFFFFFFFFFFFFFFF AND PUSH20 0xFFFFFFFFFFFFFFFFFFFFFFFFFFFFFFFFFFFFFFFF AND PUSH20 0xFFFFFFFFFFFFFFFFFFFFFFFFFFFFFFFFFFFFFFFF AND DUP2 MSTORE PUSH1 0x20 ADD SWAP1 DUP2 MSTORE PUSH1 0x20 ADD PUSH1 0x0 KECCAK256 PUSH1 0x0 DUP6 PUSH20 0xFFFFFFFFFFFFFFFFFFFFFFFFFFFFFFFFFFFFFFFF AND PUSH20 0xFFFFFFFFFFFFFFFFFFFFFFFFFFFFFFFFFFFFFFFF AND DUP2 MSTORE PUSH1 0x20 ADD SWAP1 DUP2 MSTORE PUSH1 0x20 ADD PUSH1 0x0 KECCAK256 PUSH1 0x0 SWAP1 SLOAD SWAP1 PUSH2 0x100 EXP SWAP1 DIV PUSH1 0xFF AND ISZERO PUSH2 0x4C2 JUMPI DUP2 DUP1 PUSH2 0x4BE SWAP1 PUSH2 0x114F JUMP JUMPDEST SWAP3 POP POP JUMPDEST DUP1 DUP1 PUSH2 0x4CD SWAP1 PUSH2 0x1178 JUMP JUMPDEST SWAP2 POP POP PUSH2 0x3D9 JUMP JUMPDEST POP DUP1 SWAP2 POP POP SWAP2 SWAP1 POP JUMP JUMPDEST PUSH1 0x5 PUSH1 0x20 MSTORE DUP1 PUSH1 0x0 MSTORE PUSH1 0x40 PUSH1 0x0 KECCAK256 PUSH1 0x0 SWAP2 POP SWAP1 POP SLOAD DUP2 JUMP JUMPDEST DUP1 PUSH1 0x3 PUSH1 0x0 DUP5 PUSH20 0xFFFFFFFFFFFFFFFFFFFFFFFFFFFFFFFFFFFFFFFF AND PUSH20 0xFFFFFFFFFFFFFFFFFFFFFFFFFFFFFFFFFFFFFFFF AND DUP2 MSTORE PUSH1 0x20 ADD SWAP1 DUP2 MSTORE PUSH1 0x20 ADD PUSH1 0x0 KECCAK256 DUP2 SWAP1 SSTORE POP POP POP JUMP JUMPDEST PUSH1 0x2 PUSH1 0x0 CALLER PUSH20 0xFFFFFFFFFFFFFFFFFFFFFFFFFFFFFFFFFFFFFFFF AND PUSH20 0xFFFFFFFFFFFFFFFFFFFFFFFFFFFFFFFFFFFFFFFF AND DUP2 MSTORE PUSH1 0x20 ADD SWAP1 DUP2 MSTORE PUSH1 0x20 ADD PUSH1 0x0 KECCAK256 PUSH1 0x0 SWAP1 SLOAD SWAP1 PUSH2 0x100 EXP SWAP1 DIV PUSH1 0xFF AND PUSH2 0x5CB JUMPI PUSH1 0x40 MLOAD PUSH32 0x8C379A000000000000000000000000000000000000000000000000000000000 DUP2 MSTORE PUSH1 0x4 ADD PUSH2 0x5C2 SWAP1 PUSH2 0x1243 JUMP JUMPDEST PUSH1 0x40 MLOAD DUP1 SWAP2 SUB SWAP1 REVERT JUMPDEST PUSH1 0x0 DUP1 SLOAD SWAP1 PUSH2 0x100 EXP SWAP1 DIV PUSH20 0xFFFFFFFFFFFFFFFFFFFFFFFFFFFFFFFFFFFFFFFF AND PUSH20 0xFFFFFFFFFFFFFFFFFFFFFFFFFFFFFFFFFFFFFFFF AND DUP2 PUSH20 0xFFFFFFFFFFFFFFFFFFFFFFFFFFFFFFFFFFFFFFFF AND SUB PUSH2 0x659 JUMPI PUSH1 0x40 MLOAD PUSH32 0x8C379A000000000000000000000000000000000000000000000000000000000 DUP2 MSTORE PUSH1 0x4 ADD PUSH2 0x650 SWAP1 PUSH2 0x12D5 JUMP JUMPDEST PUSH1 0x40 MLOAD DUP1 SWAP2 SUB SWAP1 REVERT JUMPDEST PUSH1 0x4 PUSH1 0x0 CALLER PUSH20 0xFFFFFFFFFFFFFFFFFFFFFFFFFFFFFFFFFFFFFFFF AND PUSH20 0xFFFFFFFFFFFFFFFFFFFFFFFFFFFFFFFFFFFFFFFF AND DUP2 MSTORE PUSH1 0x20 ADD SWAP1 DUP2 MSTORE PUSH1 0x20 ADD PUSH1 0x0 KECCAK256 PUSH1 0x0 DUP3 PUSH20 0xFFFFFFFFFFFFFFFFFFFFFFFFFFFFFFFFFFFFFFFF AND PUSH20 0xFFFFFFFFFFFFFFFFFFFFFFFFFFFFFFFFFFFFFFFF AND DUP2 MSTORE PUSH1 0x20 ADD SWAP1 DUP2 MSTORE PUSH1 0x20 ADD PUSH1 0x0 KECCAK256 PUSH1 0x0 SWAP1 SLOAD SWAP1 PUSH2 0x100 EXP SWAP1 DIV PUSH1 0xFF AND ISZERO PUSH2 0x723 JUMPI PUSH1 0x40 MLOAD PUSH32 0x8C379A000000000000000000000000000000000000000000000000000000000 DUP2 MSTORE PUSH1 0x4 ADD PUSH2 0x71A SWAP1 PUSH2 0x1367 JUMP JUMPDEST PUSH1 0x40 MLOAD DUP1 SWAP2 SUB SWAP1 REVERT JUMPDEST PUSH1 0x1 PUSH1 0x4 PUSH1 0x0 CALLER PUSH20 0xFFFFFFFFFFFFFFFFFFFFFFFFFFFFFFFFFFFFFFFF AND PUSH20 0xFFFFFFFFFFFFFFFFFFFFFFFFFFFFFFFFFFFFFFFF AND DUP2 MSTORE PUSH1 0x20 ADD SWAP1 DUP2 MSTORE PUSH1 0x20 ADD PUSH1 0x0 KECCAK256 PUSH1 0x0 DUP4 PUSH20 0xFFFFFFFFFFFFFFFFFFFFFFFFFFFFFFFFFFFFFFFF AND PUSH20 0xFFFFFFFFFFFFFFFFFFFFFFFFFFFFFFFFFFFFFFFF AND DUP2 MSTORE PUSH1 0x20 ADD SWAP1 DUP2 MSTORE PUSH1 0x20 ADD PUSH1 0x0 KECCAK256 PUSH1 0x0 PUSH2 0x100 EXP DUP2 SLOAD DUP2 PUSH1 0xFF MUL NOT AND SWAP1 DUP4 ISZERO ISZERO MUL OR SWAP1 SSTORE POP DUP1 PUSH20 0xFFFFFFFFFFFFFFFFFFFFFFFFFFFFFFFFFFFFFFFF AND CALLER PUSH20 0xFFFFFFFFFFFFFFFFFFFFFFFFFFFFFFFFFFFFFFFF AND PUSH32 0x2A29CAB36D74CAB0B1382C2E828019BDA76C7994A8E09266D4B60A9CF68FB4CF TIMESTAMP PUSH1 0x40 MLOAD PUSH2 0x815 SWAP2 SWAP1 PUSH2 0xF1E JUMP JUMPDEST PUSH1 0x40 MLOAD DUP1 SWAP2 SUB SWAP1 LOG3 PUSH1 0x3 PUSH1 0xFF AND PUSH2 0x82B DUP3 PUSH2 0x3CF JUMP JUMPDEST PUSH1 0xFF AND LT PUSH2 0x88B JUMPI PUSH2 0x83C DUP2 PUSH2 0xE32 JUMP JUMPDEST DUP1 PUSH20 0xFFFFFFFFFFFFFFFFFFFFFFFFFFFFFFFFFFFFFFFF AND PUSH32 0x40F6412CF1328603FC3D500D164E0F08A7B7839B837A3BC5B8F23BEDCD219300 TIMESTAMP PUSH1 0x40 MLOAD PUSH2 0x882 SWAP2 SWAP1 PUSH2 0xF1E JUMP JUMPDEST PUSH1 0x40 MLOAD DUP1 SWAP2 SUB SWAP1 LOG2 JUMPDEST POP JUMP JUMPDEST PUSH1 0x0 DUP1 SLOAD SWAP1 PUSH2 0x100 EXP SWAP1 DIV PUSH20 0xFFFFFFFFFFFFFFFFFFFFFFFFFFFFFFFFFFFFFFFF AND DUP2 JUMP JUMPDEST PUSH1 0x0 PUSH1 0x2 PUSH1 0x0 DUP4 PUSH20 0xFFFFFFFFFFFFFFFFFFFFFFFFFFFFFFFFFFFFFFFF AND PUSH20 0xFFFFFFFFFFFFFFFFFFFFFFFFFFFFFFFFFFFFFFFF AND DUP2 MSTORE PUSH1 0x20 ADD SWAP1 DUP2 MSTORE PUSH1 0x20 ADD PUSH1 0x0 KECCAK256 PUSH1 0x0 SWAP1 SLOAD SWAP1 PUSH2 0x100 EXP SWAP1 DIV PUSH1 0xFF AND SWAP1 POP SWAP2 SWAP1 POP JUMP JUMPDEST PUSH1 0x0 DUP1 SLOAD SWAP1 PUSH2 0x100 EXP SWAP1 DIV PUSH20 0xFFFFFFFFFFFFFFFFFFFFFFFFFFFFFFFFFFFFFFFF AND PUSH20 0xFFFFFFFFFFFFFFFFFFFFFFFFFFFFFFFFFFFFFFFF AND CALLER PUSH20 0xFFFFFFFFFFFFFFFFFFFFFFFFFFFFFFFFFFFFFFFF AND EQ PUSH2 0x996 JUMPI PUSH1 0x40 MLOAD PUSH32 0x8C379A000000000000000000000000000000000000000000000000000000000 DUP2 MSTORE PUSH1 0x4 ADD PUSH2 0x98D SWAP1 PUSH2 0x13F9 JUMP JUMPDEST PUSH1 0x40 MLOAD DUP1 SWAP2 SUB SWAP1 REVERT JUMPDEST PUSH1 0x2 PUSH1 0x0 DUP3 PUSH20 0xFFFFFFFFFFFFFFFFFFFFFFFFFFFFFFFFFFFFFFFF AND PUSH20 0xFFFFFFFFFFFFFFFFFFFFFFFFFFFFFFFFFFFFFFFF AND DUP2 MSTORE PUSH1 0x20 ADD SWAP1 DUP2 MSTORE PUSH1 0x20 ADD PUSH1 0x0 KECCAK256 PUSH1 0x0 SWAP1 SLOAD SWAP1 PUSH2 0x100 EXP SWAP1 DIV PUSH1 0xFF AND ISZERO PUSH2 0xA23 JUMPI PUSH1 0x40 MLOAD PUSH32 0x8C379A000000000000000000000000000000000000000000000000000000000 DUP2 MSTORE PUSH1 0x4 ADD PUSH2 0xA1A SWAP1 PUSH2 0x1465 JUMP JUMPDEST PUSH1 0x40 MLOAD DUP1 SWAP2 SUB SWAP1 REVERT JUMPDEST PUSH1 0x1 PUSH1 0x2 PUSH1 0x0 DUP4 PUSH20 0xFFFFFFFFFFFFFFFFFFFFFFFFFFFFFFFFFFFFFFFF AND PUSH20 0xFFFFFFFFFFFFFFFFFFFFFFFFFFFFFFFFFFFFFFFF AND DUP2 MSTORE PUSH1 0x20 ADD SWAP1 DUP2 MSTORE PUSH1 0x20 ADD PUSH1 0x0 KECCAK256 PUSH1 0x0 PUSH2 0x100 EXP DUP2 SLOAD DUP2 PUSH1 0xFF MUL NOT AND SWAP1 DUP4 ISZERO ISZERO MUL OR SWAP1 SSTORE POP PUSH1 0x1 DUP2 SWAP1 DUP1 PUSH1 0x1 DUP2 SLOAD ADD DUP1 DUP3 SSTORE DUP1 SWAP2 POP POP PUSH1 0x1 SWAP1 SUB SWAP1 PUSH1 0x0 MSTORE PUSH1 0x20 PUSH1 0x0 KECCAK256 ADD PUSH1 0x0 SWAP1 SWAP2 SWAP1 SWAP2 SWAP1 SWAP2 PUSH2 0x100 EXP DUP2 SLOAD DUP2 PUSH20 0xFFFFFFFFFFFFFFFFFFFFFFFFFFFFFFFFFFFFFFFF MUL NOT AND SWAP1 DUP4 PUSH20 0xFFFFFFFFFFFFFFFFFFFFFFFFFFFFFFFFFFFFFFFF AND MUL OR SWAP1 SSTORE POP POP JUMP JUMPDEST PUSH1 0x0 PUSH1 0x3 PUSH1 0x0 DUP4 PUSH20 0xFFFFFFFFFFFFFFFFFFFFFFFFFFFFFFFFFFFFFFFF AND PUSH20 0xFFFFFFFFFFFFFFFFFFFFFFFFFFFFFFFFFFFFFFFF AND DUP2 MSTORE PUSH1 0x20 ADD SWAP1 DUP2 MSTORE PUSH1 0x20 ADD PUSH1 0x0 KECCAK256 DUP2 SWAP1 SSTORE POP POP JUMP JUMPDEST PUSH1 0x3 PUSH1 0x0 CALLER PUSH20 0xFFFFFFFFFFFFFFFFFFFFFFFFFFFFFFFFFFFFFFFF AND PUSH20 0xFFFFFFFFFFFFFFFFFFFFFFFFFFFFFFFFFFFFFFFF AND DUP2 MSTORE PUSH1 0x20 ADD SWAP1 DUP2 MSTORE PUSH1 0x20 ADD PUSH1 0x0 KECCAK256 SLOAD DUP2 GT ISZERO PUSH2 0xBAB JUMPI PUSH1 0x40 MLOAD PUSH32 0x8C379A000000000000000000000000000000000000000000000000000000000 DUP2 MSTORE PUSH1 0x4 ADD PUSH2 0xBA2 SWAP1 PUSH2 0x151D JUMP JUMPDEST PUSH1 0x40 MLOAD DUP1 SWAP2 SUB SWAP1 REVERT JUMPDEST DUP1 PUSH1 0x5 PUSH1 0x0 CALLER PUSH20 0xFFFFFFFFFFFFFFFFFFFFFFFFFFFFFFFFFFFFFFFF AND PUSH20 0xFFFFFFFFFFFFFFFFFFFFFFFFFFFFFFFFFFFFFFFF AND DUP2 MSTORE PUSH1 0x20 ADD SWAP1 DUP2 MSTORE PUSH1 0x20 ADD PUSH1 0x0 KECCAK256 SLOAD LT ISZERO PUSH2 0xC2D JUMPI PUSH1 0x40 MLOAD PUSH32 0x8C379A000000000000000000000000000000000000000000000000000000000 DUP2 MSTORE PUSH1 0x4 ADD PUSH2 0xC24 SWAP1 PUSH2 0x1589 JUMP JUMPDEST PUSH1 0x40 MLOAD DUP1 SWAP2 SUB SWAP1 REVERT JUMPDEST DUP1 PUSH1 0x5 PUSH1 0x0 CALLER PUSH20 0xFFFFFFFFFFFFFFFFFFFFFFFFFFFFFFFFFFFFFFFF AND PUSH20 0xFFFFFFFFFFFFFFFFFFFFFFFFFFFFFFFFFFFFFFFF AND DUP2 MSTORE PUSH1 0x20 ADD SWAP1 DUP2 MSTORE PUSH1 0x20 ADD PUSH1 0x0 KECCAK256 PUSH1 0x0 DUP3 DUP3 SLOAD PUSH2 0xC7C SWAP2 SWAP1 PUSH2 0x15A9 JUMP JUMPDEST SWAP3 POP POP DUP2 SWAP1 SSTORE POP DUP1 PUSH1 0x3 PUSH1 0x0 CALLER PUSH20 0xFFFFFFFFFFFFFFFFFFFFFFFFFFFFFFFFFFFFFFFF AND PUSH20 0xFFFFFFFFFFFFFFFFFFFFFFFFFFFFFFFFFFFFFFFF AND DUP2 MSTORE PUSH1 0x20 ADD SWAP1 DUP2 MSTORE PUSH1 0x20 ADD PUSH1 0x0 KECCAK256 PUSH1 0x0 DUP3 DUP3 SLOAD PUSH2 0xCD2 SWAP2 SWAP1 PUSH2 0x15A9 JUMP JUMPDEST SWAP3 POP POP DUP2 SWAP1 SSTORE POP PUSH1 0x0 DUP3 PUSH20 0xFFFFFFFFFFFFFFFFFFFFFFFFFFFFFFFFFFFFFFFF AND DUP3 PUSH1 0x40 MLOAD PUSH2 0xCFF SWAP1 PUSH2 0x160E JUMP JUMPDEST PUSH1 0x0 PUSH1 0x40 MLOAD DUP1 DUP4 SUB DUP2 DUP6 DUP8 GAS CALL SWAP3 POP POP POP RETURNDATASIZE DUP1 PUSH1 0x0 DUP2 EQ PUSH2 0xD3C JUMPI PUSH1 0x40 MLOAD SWAP2 POP PUSH1 0x1F NOT PUSH1 0x3F RETURNDATASIZE ADD AND DUP3 ADD PUSH1 0x40 MSTORE RETURNDATASIZE DUP3 MSTORE RETURNDATASIZE PUSH1 0x0 PUSH1 0x20 DUP5 ADD RETURNDATACOPY PUSH2 0xD41 JUMP JUMPDEST PUSH1 0x60 SWAP2 POP JUMPDEST POP POP SWAP1 POP DUP1 PUSH2 0xD85 JUMPI PUSH1 0x40 MLOAD PUSH32 0x8C379A000000000000000000000000000000000000000000000000000000000 DUP2 MSTORE PUSH1 0x4 ADD PUSH2 0xD7C SWAP1 PUSH2 0x166F JUMP JUMPDEST PUSH1 0x40 MLOAD DUP1 SWAP2 SUB SWAP1 REVERT JUMPDEST DUP3 PUSH20 0xFFFFFFFFFFFFFFFFFFFFFFFFFFFFFFFFFFFFFFFF AND CALLER PUSH20 0xFFFFFFFFFFFFFFFFFFFFFFFFFFFFFFFFFFFFFFFF AND PUSH32 0x2795ACAD0BDED62E0795D80C0C6A89688F6B0517146A7A9A52ABC38FF3FE0955 DUP5 PUSH1 0x5 PUSH1 0x0 CALLER PUSH20 0xFFFFFFFFFFFFFFFFFFFFFFFFFFFFFFFFFFFFFFFF AND PUSH20 0xFFFFFFFFFFFFFFFFFFFFFFFFFFFFFFFFFFFFFFFF AND DUP2 MSTORE PUSH1 0x20 ADD SWAP1 DUP2 MSTORE PUSH1 0x20 ADD PUSH1 0x0 KECCAK256 SLOAD TIMESTAMP PUSH1 0x40 MLOAD PUSH2 0xE25 SWAP4 SWAP3 SWAP2 SWAP1 PUSH2 0x10BA JUMP JUMPDEST PUSH1 0x40 MLOAD DUP1 SWAP2 SUB SWAP1 LOG3 POP POP POP JUMP JUMPDEST DUP1 PUSH1 0x0 DUP1 PUSH2 0x100 EXP DUP2 SLOAD DUP2 PUSH20 0xFFFFFFFFFFFFFFFFFFFFFFFFFFFFFFFFFFFFFFFF MUL NOT AND SWAP1 DUP4 PUSH20 0xFFFFFFFFFFFFFFFFFFFFFFFFFFFFFFFFFFFFFFFF AND MUL OR SWAP1 SSTORE POP POP JUMP JUMPDEST PUSH1 0x0 DUP1 REVERT JUMPDEST PUSH1 0x0 PUSH20 0xFFFFFFFFFFFFFFFFFFFFFFFFFFFFFFFFFFFFFFFF DUP3 AND SWAP1 POP SWAP2 SWAP1 POP JUMP JUMPDEST PUSH1 0x0 PUSH2 0xEA5 DUP3 PUSH2 0xE7A JUMP JUMPDEST SWAP1 POP SWAP2 SWAP1 POP JUMP JUMPDEST PUSH2 0xEB5 DUP2 PUSH2 0xE9A JUMP JUMPDEST DUP2 EQ PUSH2 0xEC0 JUMPI PUSH1 0x0 DUP1 REVERT JUMPDEST POP JUMP JUMPDEST PUSH1 0x0 DUP2 CALLDATALOAD SWAP1 POP PUSH2 0xED2 DUP2 PUSH2 0xEAC JUMP JUMPDEST SWAP3 SWAP2 POP POP JUMP JUMPDEST PUSH1 0x0 PUSH1 0x20 DUP3 DUP5 SUB SLT ISZERO PUSH2 0xEEE JUMPI PUSH2 0xEED PUSH2 0xE75 JUMP JUMPDEST JUMPDEST PUSH1 0x0 PUSH2 0xEFC DUP5 DUP3 DUP6 ADD PUSH2 0xEC3 JUMP JUMPDEST SWAP2 POP POP SWAP3 SWAP2 POP POP JUMP JUMPDEST PUSH1 0x0 DUP2 SWAP1 POP SWAP2 SWAP1 POP JUMP JUMPDEST PUSH2 0xF18 DUP2 PUSH2 0xF05 JUMP JUMPDEST DUP3 MSTORE POP POP JUMP JUMPDEST PUSH1 0x0 PUSH1 0x20 DUP3 ADD SWAP1 POP PUSH2 0xF33 PUSH1 0x0 DUP4 ADD DUP5 PUSH2 0xF0F JUMP JUMPDEST SWAP3 SWAP2 POP POP JUMP JUMPDEST PUSH1 0x0 PUSH1 0xFF DUP3 AND SWAP1 POP SWAP2 SWAP1 POP JUMP JUMPDEST PUSH2 0xF4F DUP2 PUSH2 0xF39 JUMP JUMPDEST DUP3 MSTORE POP POP JUMP JUMPDEST PUSH1 0x0 PUSH1 0x20 DUP3 ADD SWAP1 POP PUSH2 0xF6A PUSH1 0x0 DUP4 ADD DUP5 PUSH2 0xF46 JUMP JUMPDEST SWAP3 SWAP2 POP POP JUMP JUMPDEST PUSH2 0xF79 DUP2 PUSH2 0xF05 JUMP JUMPDEST DUP2 EQ PUSH2 0xF84 JUMPI PUSH1 0x0 DUP1 REVERT JUMPDEST POP JUMP JUMPDEST PUSH1 0x0 DUP2 CALLDATALOAD SWAP1 POP PUSH2 0xF96 DUP2 PUSH2 0xF70 JUMP JUMPDEST SWAP3 SWAP2 POP POP JUMP JUMPDEST PUSH1 0x0 DUP1 PUSH1 0x40 DUP4 DUP6 SUB SLT ISZERO PUSH2 0xFB3 JUMPI PUSH2 0xFB2 PUSH2 0xE75 JUMP JUMPDEST JUMPDEST PUSH1 0x0 PUSH2 0xFC1 DUP6 DUP3 DUP7 ADD PUSH2 0xEC3 JUMP JUMPDEST SWAP3 POP POP PUSH1 0x20 PUSH2 0xFD2 DUP6 DUP3 DUP7 ADD PUSH2 0xF87 JUMP JUMPDEST SWAP2 POP POP SWAP3 POP SWAP3 SWAP1 POP JUMP JUMPDEST PUSH2 0xFE5 DUP2 PUSH2 0xE9A JUMP JUMPDEST DUP3 MSTORE POP POP JUMP JUMPDEST PUSH1 0x0 PUSH1 0x20 DUP3 ADD SWAP1 POP PUSH2 0x1000 PUSH1 0x0 DUP4 ADD DUP5 PUSH2 0xFDC JUMP JUMPDEST SWAP3 SWAP2 POP POP JUMP JUMPDEST PUSH1 0x0 DUP2 ISZERO ISZERO SWAP1 POP SWAP2 SWAP1 POP JUMP JUMPDEST PUSH2 0x101B DUP2 PUSH2 0x1006 JUMP JUMPDEST DUP3 MSTORE POP POP JUMP JUMPDEST PUSH1 0x0 PUSH1 0x20 DUP3 ADD SWAP1 POP PUSH2 0x1036 PUSH1 0x0 DUP4 ADD DUP5 PUSH2 0x1012 JUMP JUMPDEST SWAP3 SWAP2 POP POP JUMP JUMPDEST PUSH1 0x0 PUSH2 0x1047 DUP3 PUSH2 0xE7A JUMP JUMPDEST SWAP1 POP SWAP2 SWAP1 POP JUMP JUMPDEST PUSH2 0x1057 DUP2 PUSH2 0x103C JUMP JUMPDEST DUP2 EQ PUSH2 0x1062 JUMPI PUSH1 0x0 DUP1 REVERT JUMPDEST POP JUMP JUMPDEST PUSH1 0x0 DUP2 CALLDATALOAD SWAP1 POP PUSH2 0x1074 DUP2 PUSH2 0x104E JUMP JUMPDEST SWAP3 SWAP2 POP POP JUMP JUMPDEST PUSH1 0x0 DUP1 PUSH1 0x40 DUP4 DUP6 SUB SLT ISZERO PUSH2 0x1091 JUMPI PUSH2 0x1090 PUSH2 0xE75 JUMP JUMPDEST JUMPDEST PUSH1 0x0 PUSH2 0x109F DUP6 DUP3 DUP7 ADD PUSH2 0x1065 JUMP JUMPDEST SWAP3 POP POP PUSH1 0x20 PUSH2 0x10B0 DUP6 DUP3 DUP7 ADD PUSH2 0xF87 JUMP JUMPDEST SWAP2 POP POP SWAP3 POP SWAP3 SWAP1 POP JUMP JUMPDEST PUSH1 0x0 PUSH1 0x60 DUP3 ADD SWAP1 POP PUSH2 0x10CF PUSH1 0x0 DUP4 ADD DUP7 PUSH2 0xF0F JUMP JUMPDEST PUSH2 0x10DC PUSH1 0x20 DUP4 ADD DUP6 PUSH2 0xF0F JUMP JUMPDEST PUSH2 0x10E9 PUSH1 0x40 DUP4 ADD DUP5 PUSH2 0xF0F JUMP JUMPDEST SWAP5 SWAP4 POP POP POP POP JUMP JUMPDEST PUSH32 0x4E487B7100000000000000000000000000000000000000000000000000000000 PUSH1 0x0 MSTORE PUSH1 0x32 PUSH1 0x4 MSTORE PUSH1 0x24 PUSH1 0x0 REVERT JUMPDEST PUSH32 0x4E487B7100000000000000000000000000000000000000000000000000000000 PUSH1 0x0 MSTORE PUSH1 0x11 PUSH1 0x4 MSTORE PUSH1 0x24 PUSH1 0x0 REVERT JUMPDEST PUSH1 0x0 PUSH2 0x115A DUP3 PUSH2 0xF39 JUMP JUMPDEST SWAP2 POP PUSH1 0xFF DUP3 SUB PUSH2 0x116D JUMPI PUSH2 0x116C PUSH2 0x1120 JUMP JUMPDEST JUMPDEST PUSH1 0x1 DUP3 ADD SWAP1 POP SWAP2 SWAP1 POP JUMP JUMPDEST PUSH1 0x0 PUSH2 0x1183 DUP3 PUSH2 0xF05 JUMP JUMPDEST SWAP2 POP PUSH32 0xFFFFFFFFFFFFFFFFFFFFFFFFFFFFFFFFFFFFFFFFFFFFFFFFFFFFFFFFFFFFFFFF DUP3 SUB PUSH2 0x11B5 JUMPI PUSH2 0x11B4 PUSH2 0x1120 JUMP JUMPDEST JUMPDEST PUSH1 0x1 DUP3 ADD SWAP1 POP SWAP2 SWAP1 POP JUMP JUMPDEST PUSH1 0x0 DUP3 DUP3 MSTORE PUSH1 0x20 DUP3 ADD SWAP1 POP SWAP3 SWAP2 POP POP JUMP JUMPDEST PUSH32 0x4F6E6C792077616C6C657420477561726469616E732061726520616C6C6F7765 PUSH1 0x0 DUP3 ADD MSTORE PUSH32 0x6420746F20766F746520666F72206E65772077616C6C6574206F776E65722E00 PUSH1 0x20 DUP3 ADD MSTORE POP JUMP JUMPDEST PUSH1 0x0 PUSH2 0x122D PUSH1 0x3F DUP4 PUSH2 0x11C0 JUMP JUMPDEST SWAP2 POP PUSH2 0x1238 DUP3 PUSH2 0x11D1 JUMP JUMPDEST PUSH1 0x40 DUP3 ADD SWAP1 POP SWAP2 SWAP1 POP JUMP JUMPDEST PUSH1 0x0 PUSH1 0x20 DUP3 ADD SWAP1 POP DUP2 DUP2 SUB PUSH1 0x0 DUP4 ADD MSTORE PUSH2 0x125C DUP2 PUSH2 0x1220 JUMP JUMPDEST SWAP1 POP SWAP2 SWAP1 POP JUMP JUMPDEST PUSH32 0x4164647265737320697320616C7265616479207468652077616C6C6574206F77 PUSH1 0x0 DUP3 ADD MSTORE PUSH32 0x6E65720000000000000000000000000000000000000000000000000000000000 PUSH1 0x20 DUP3 ADD MSTORE POP JUMP JUMPDEST PUSH1 0x0 PUSH2 0x12BF PUSH1 0x23 DUP4 PUSH2 0x11C0 JUMP JUMPDEST SWAP2 POP PUSH2 0x12CA DUP3 PUSH2 0x1263 JUMP JUMPDEST PUSH1 0x40 DUP3 ADD SWAP1 POP SWAP2 SWAP1 POP JUMP JUMPDEST PUSH1 0x0 PUSH1 0x20 DUP3 ADD SWAP1 POP DUP2 DUP2 SUB PUSH1 0x0 DUP4 ADD MSTORE PUSH2 0x12EE DUP2 PUSH2 0x12B2 JUMP JUMPDEST SWAP1 POP SWAP2 SWAP1 POP JUMP JUMPDEST PUSH32 0x596F75206861766520616C726561647920766F74656420666F72207468697320 PUSH1 0x0 DUP3 ADD MSTORE PUSH32 0x63616E6469646174650000000000000000000000000000000000000000000000 PUSH1 0x20 DUP3 ADD MSTORE POP JUMP JUMPDEST PUSH1 0x0 PUSH2 0x1351 PUSH1 0x29 DUP4 PUSH2 0x11C0 JUMP JUMPDEST SWAP2 POP PUSH2 0x135C DUP3 PUSH2 0x12F5 JUMP JUMPDEST PUSH1 0x40 DUP3 ADD SWAP1 POP SWAP2 SWAP1 POP JUMP JUMPDEST PUSH1 0x0 PUSH1 0x20 DUP3 ADD SWAP1 POP DUP2 DUP2 SUB PUSH1 0x0 DUP4 ADD MSTORE PUSH2 0x1380 DUP2 PUSH2 0x1344 JUMP JUMPDEST SWAP1 POP SWAP2 SWAP1 POP JUMP JUMPDEST PUSH32 0x596F75206D7573742062652077616C6C6574206F776E657220666F7220746869 PUSH1 0x0 DUP3 ADD MSTORE PUSH32 0x7320616374696F6E000000000000000000000000000000000000000000000000 PUSH1 0x20 DUP3 ADD MSTORE POP JUMP JUMPDEST PUSH1 0x0 PUSH2 0x13E3 PUSH1 0x28 DUP4 PUSH2 0x11C0 JUMP JUMPDEST SWAP2 POP PUSH2 0x13EE DUP3 PUSH2 0x1387 JUMP JUMPDEST PUSH1 0x40 DUP3 ADD SWAP1 POP SWAP2 SWAP1 POP JUMP JUMPDEST PUSH1 0x0 PUSH1 0x20 DUP3 ADD SWAP1 POP DUP2 DUP2 SUB PUSH1 0x0 DUP4 ADD MSTORE PUSH2 0x1412 DUP2 PUSH2 0x13D6 JUMP JUMPDEST SWAP1 POP SWAP2 SWAP1 POP JUMP JUMPDEST PUSH32 0x4164647265737320697320616C7265616479206120677561726469616E000000 PUSH1 0x0 DUP3 ADD MSTORE POP JUMP JUMPDEST PUSH1 0x0 PUSH2 0x144F PUSH1 0x1D DUP4 PUSH2 0x11C0 JUMP JUMPDEST SWAP2 POP PUSH2 0x145A DUP3 PUSH2 0x1419 JUMP JUMPDEST PUSH1 0x20 DUP3 ADD SWAP1 POP SWAP2 SWAP1 POP JUMP JUMPDEST PUSH1 0x0 PUSH1 0x20 DUP3 ADD SWAP1 POP DUP2 DUP2 SUB PUSH1 0x0 DUP4 ADD MSTORE PUSH2 0x147E DUP2 PUSH2 0x1442 JUMP JUMPDEST SWAP1 POP SWAP2 SWAP1 POP JUMP JUMPDEST PUSH32 0x576974686472617720616D6F756E74206973206C6172676572207468616E2061 PUSH1 0x0 DUP3 ADD MSTORE PUSH32 0x6C6C6F77616E63652C20696E63726561736520796F757220616C6C6F77616E63 PUSH1 0x20 DUP3 ADD MSTORE PUSH32 0x652E000000000000000000000000000000000000000000000000000000000000 PUSH1 0x40 DUP3 ADD MSTORE POP JUMP JUMPDEST PUSH1 0x0 PUSH2 0x1507 PUSH1 0x42 DUP4 PUSH2 0x11C0 JUMP JUMPDEST SWAP2 POP PUSH2 0x1512 DUP3 PUSH2 0x1485 JUMP JUMPDEST PUSH1 0x60 DUP3 ADD SWAP1 POP SWAP2 SWAP1 POP JUMP JUMPDEST PUSH1 0x0 PUSH1 0x20 DUP3 ADD SWAP1 POP DUP2 DUP2 SUB PUSH1 0x0 DUP4 ADD MSTORE PUSH2 0x1536 DUP2 PUSH2 0x14FA JUMP JUMPDEST SWAP1 POP SWAP2 SWAP1 POP JUMP JUMPDEST PUSH32 0x496E73756666696369656E742062616C616E6365000000000000000000000000 PUSH1 0x0 DUP3 ADD MSTORE POP JUMP JUMPDEST PUSH1 0x0 PUSH2 0x1573 PUSH1 0x14 DUP4 PUSH2 0x11C0 JUMP JUMPDEST SWAP2 POP PUSH2 0x157E DUP3 PUSH2 0x153D JUMP JUMPDEST PUSH1 0x20 DUP3 ADD SWAP1 POP SWAP2 SWAP1 POP JUMP JUMPDEST PUSH1 0x0 PUSH1 0x20 DUP3 ADD SWAP1 POP DUP2 DUP2 SUB PUSH1 0x0 DUP4 ADD MSTORE PUSH2 0x15A2 DUP2 PUSH2 0x1566 JUMP JUMPDEST SWAP1 POP SWAP2 SWAP1 POP JUMP JUMPDEST PUSH1 0x0 PUSH2 0x15B4 DUP3 PUSH2 0xF05 JUMP JUMPDEST SWAP2 POP PUSH2 0x15BF DUP4 PUSH2 0xF05 JUMP JUMPDEST SWAP3 POP DUP3 DUP3 LT ISZERO PUSH2 0x15D2 JUMPI PUSH2 0x15D1 PUSH2 0x1120 JUMP JUMPDEST JUMPDEST DUP3 DUP3 SUB SWAP1 POP SWAP3 SWAP2 POP POP JUMP JUMPDEST PUSH1 0x0 DUP2 SWAP1 POP SWAP3 SWAP2 POP POP JUMP JUMPDEST POP JUMP JUMPDEST PUSH1 0x0 PUSH2 0x15F8 PUSH1 0x0 DUP4 PUSH2 0x15DD JUMP JUMPDEST SWAP2 POP PUSH2 0x1603 DUP3 PUSH2 0x15E8 JUMP JUMPDEST PUSH1 0x0 DUP3 ADD SWAP1 POP SWAP2 SWAP1 POP JUMP JUMPDEST PUSH1 0x0 PUSH2 0x1619 DUP3 PUSH2 0x15EB JUMP JUMPDEST SWAP2 POP DUP2 SWAP1 POP SWAP2 SWAP1 POP JUMP JUMPDEST PUSH32 0x576974686472617720756E73756363657366756C000000000000000000000000 PUSH1 0x0 DUP3 ADD MSTORE POP JUMP JUMPDEST PUSH1 0x0 PUSH2 0x1659 PUSH1 0x14 DUP4 PUSH2 0x11C0 JUMP JUMPDEST SWAP2 POP PUSH2 0x1664 DUP3 PUSH2 0x1623 JUMP JUMPDEST PUSH1 0x20 DUP3 ADD SWAP1 POP SWAP2 SWAP1 POP JUMP JUMPDEST PUSH1 0x0 PUSH1 0x20 DUP3 ADD SWAP1 POP DUP2 DUP2 SUB PUSH1 0x0 DUP4 ADD MSTORE PUSH2 0x1688 DUP2 PUSH2 0x164C JUMP JUMPDEST SWAP1 POP SWAP2 SWAP1 POP JUMP INVALID LOG2 PUSH5 0x6970667358 0x22 SLT KECCAK256 DUP13 PUSH13 0x82A6453692D0B80BCBCC728FAC 0xF7 0xBA 0xE7 0xBB 0x5C PUSH29 0xFC336F65E693C2ED7BE75064736F6C634300080F003300000000000000 "
				},
				"gasEstimates": {
					"creation": {
						"codeDepositCost": "1165800",
						"executionCost": "98414",
						"totalCost": "1264214"
					},
					"external": {
						"": "infinite",
						"addGuardian(address)": "77848",
						"balances(address)": "2859",
						"checkAllowance(address)": "2842",
						"checkGuardian(address)": "2905",
						"countTrueVotes(address)": "infinite",
						"deposit()": "infinite",
						"owner()": "2511",
						"resetAddressAllowance(address)": "5647",
						"setAllowance(address,uint256)": "22899",
						"voteNewOwner(address)": "infinite",
						"withdraw(address,uint256)": "infinite"
					},
					"internal": {
						"setNewOwner(address)": "24278"
					}
				},
				"methodIdentifiers": {
					"addGuardian(address)": "a526d83b",
					"balances(address)": "27e235e3",
					"checkAllowance(address)": "1a197a26",
					"checkGuardian(address)": "a428b362",
					"countTrueVotes(address)": "1ef4e720",
					"deposit()": "d0e30db0",
					"owner()": "8da5cb5b",
					"resetAddressAllowance(address)": "e1721f7b",
					"setAllowance(address,uint256)": "310ec4a7",
					"voteNewOwner(address)": "7aa6a7f6",
					"withdraw(address,uint256)": "f3fef3a3"
				}
			},
			"storageLayout": {
				"storage": [
					{
						"astId": 3,
						"contract": "contracts/EtherWallet2.sol:EtherWallet2",
						"label": "owner",
						"offset": 0,
						"slot": "0",
						"type": "t_address"
					},
					{
						"astId": 6,
						"contract": "contracts/EtherWallet2.sol:EtherWallet2",
						"label": "guardianList",
						"offset": 0,
						"slot": "1",
						"type": "t_array(t_address)dyn_storage"
					},
					{
						"astId": 49,
						"contract": "contracts/EtherWallet2.sol:EtherWallet2",
						"label": "guardians",
						"offset": 0,
						"slot": "2",
						"type": "t_mapping(t_address,t_bool)"
					},
					{
						"astId": 53,
						"contract": "contracts/EtherWallet2.sol:EtherWallet2",
						"label": "allowance",
						"offset": 0,
						"slot": "3",
						"type": "t_mapping(t_address,t_uint256)"
					},
					{
						"astId": 59,
						"contract": "contracts/EtherWallet2.sol:EtherWallet2",
						"label": "votes",
						"offset": 0,
						"slot": "4",
						"type": "t_mapping(t_address,t_mapping(t_address,t_bool))"
					},
					{
						"astId": 63,
						"contract": "contracts/EtherWallet2.sol:EtherWallet2",
						"label": "balances",
						"offset": 0,
						"slot": "5",
						"type": "t_mapping(t_address,t_uint256)"
					}
				],
				"types": {
					"t_address": {
						"encoding": "inplace",
						"label": "address",
						"numberOfBytes": "20"
					},
					"t_array(t_address)dyn_storage": {
						"base": "t_address",
						"encoding": "dynamic_array",
						"label": "address[]",
						"numberOfBytes": "32"
					},
					"t_bool": {
						"encoding": "inplace",
						"label": "bool",
						"numberOfBytes": "1"
					},
					"t_mapping(t_address,t_bool)": {
						"encoding": "mapping",
						"key": "t_address",
						"label": "mapping(address => bool)",
						"numberOfBytes": "32",
						"value": "t_bool"
					},
					"t_mapping(t_address,t_mapping(t_address,t_bool))": {
						"encoding": "mapping",
						"key": "t_address",
						"label": "mapping(address => mapping(address => bool))",
						"numberOfBytes": "32",
						"value": "t_mapping(t_address,t_bool)"
					},
					"t_mapping(t_address,t_uint256)": {
						"encoding": "mapping",
						"key": "t_address",
						"label": "mapping(address => uint256)",
						"numberOfBytes": "32",
						"value": "t_uint256"
					},
					"t_uint256": {
						"encoding": "inplace",
						"label": "uint256",
						"numberOfBytes": "32"
					}
				}
			},
			"userdoc": {
				"kind": "user",
				"methods": {},
				"version": 1
			}
		}
	}
}