{
	"contracts/EtherWallet2.sol": {
		"EtherWallet2": {
			"abi": [
				{
					"inputs": [],
					"stateMutability": "nonpayable",
					"type": "constructor"
				},
				{
					"anonymous": false,
					"inputs": [
						{
							"indexed": true,
							"internalType": "address",
							"name": "newOwner",
							"type": "address"
						},
						{
							"indexed": false,
							"internalType": "uint256",
							"name": "timestamp",
							"type": "uint256"
						}
					],
					"name": "NewOwnerSet",
					"type": "event"
				},
				{
					"anonymous": false,
					"inputs": [
						{
							"indexed": true,
							"internalType": "address",
							"name": "from",
							"type": "address"
						},
						{
							"indexed": false,
							"internalType": "uint256",
							"name": "amount",
							"type": "uint256"
						},
						{
							"indexed": false,
							"internalType": "uint256",
							"name": "fundsAvailable",
							"type": "uint256"
						},
						{
							"indexed": false,
							"internalType": "uint256",
							"name": "timestamp",
							"type": "uint256"
						}
					],
					"name": "ReceivedFunds",
					"type": "event"
				},
				{
					"anonymous": false,
					"inputs": [
						{
							"indexed": true,
							"internalType": "address",
							"name": "from",
							"type": "address"
						},
						{
							"indexed": true,
							"internalType": "address",
							"name": "votedFor",
							"type": "address"
						},
						{
							"indexed": false,
							"internalType": "uint256",
							"name": "timestamp",
							"type": "uint256"
						}
					],
					"name": "VoteForNewOwner",
					"type": "event"
				},
				{
					"anonymous": false,
					"inputs": [
						{
							"indexed": true,
							"internalType": "address",
							"name": "from",
							"type": "address"
						},
						{
							"indexed": true,
							"internalType": "address",
							"name": "to",
							"type": "address"
						},
						{
							"indexed": false,
							"internalType": "uint256",
							"name": "amount",
							"type": "uint256"
						},
						{
							"indexed": false,
							"internalType": "uint256",
							"name": "fundsAvailable",
							"type": "uint256"
						},
						{
							"indexed": false,
							"internalType": "uint256",
							"name": "timestamp",
							"type": "uint256"
						}
					],
					"name": "WithdrawFunds",
					"type": "event"
				},
				{
					"stateMutability": "payable",
					"type": "fallback"
				},
				{
					"inputs": [
						{
							"internalType": "address",
							"name": "newGuardian",
							"type": "address"
						}
					],
					"name": "addGuardian",
					"outputs": [],
					"stateMutability": "nonpayable",
					"type": "function"
				},
				{
					"inputs": [
						{
							"internalType": "address",
							"name": "",
							"type": "address"
						}
					],
					"name": "balances",
					"outputs": [
						{
							"internalType": "uint256",
							"name": "",
							"type": "uint256"
						}
					],
					"stateMutability": "view",
					"type": "function"
				},
				{
					"inputs": [
						{
							"internalType": "address",
							"name": "addr",
							"type": "address"
						}
					],
					"name": "checkAllowance",
					"outputs": [
						{
							"internalType": "uint256",
							"name": "",
							"type": "uint256"
						}
					],
					"stateMutability": "view",
					"type": "function"
				},
				{
					"inputs": [
						{
							"internalType": "address",
							"name": "guardianAddress",
							"type": "address"
						}
					],
					"name": "checkGuardian",
					"outputs": [
						{
							"internalType": "bool",
							"name": "",
							"type": "bool"
						}
					],
					"stateMutability": "view",
					"type": "function"
				},
				{
					"inputs": [
						{
							"internalType": "address",
							"name": "candidate",
							"type": "address"
						}
					],
					"name": "countTrueVotes",
					"outputs": [
						{
							"internalType": "uint8",
							"name": "",
							"type": "uint8"
						}
					],
					"stateMutability": "view",
					"type": "function"
				},
				{
					"inputs": [],
					"name": "deposit",
					"outputs": [],
					"stateMutability": "payable",
					"type": "function"
				},
				{
					"inputs": [],
					"name": "owner",
					"outputs": [
						{
							"internalType": "address",
							"name": "",
							"type": "address"
						}
					],
					"stateMutability": "view",
					"type": "function"
				},
				{
					"inputs": [
						{
							"internalType": "address",
							"name": "addr",
							"type": "address"
						}
					],
					"name": "resetAddressAllowance",
					"outputs": [],
					"stateMutability": "nonpayable",
					"type": "function"
				},
				{
					"inputs": [
						{
							"internalType": "address",
							"name": "addr",
							"type": "address"
						},
						{
							"internalType": "uint256",
							"name": "newAllowance",
							"type": "uint256"
						}
					],
					"name": "setAllowance",
					"outputs": [],
					"stateMutability": "nonpayable",
					"type": "function"
				},
				{
					"inputs": [
						{
							"internalType": "address",
							"name": "candidate",
							"type": "address"
						}
					],
					"name": "voteNewOwner",
					"outputs": [],
					"stateMutability": "nonpayable",
					"type": "function"
				},
				{
					"inputs": [
						{
							"internalType": "address payable",
							"name": "to",
							"type": "address"
						},
						{
							"internalType": "uint256",
							"name": "amount",
							"type": "uint256"
						}
					],
					"name": "withdraw",
					"outputs": [],
					"stateMutability": "nonpayable",
					"type": "function"
				},
				{
					"stateMutability": "payable",
					"type": "receive"
				}
			],
			"devdoc": {
				"kind": "dev",
				"methods": {
					"addGuardian(address)": {
						"details": "Adds a new guardian",
						"params": {
							"newGuardian": "The address of the new guardian"
						}
					},
					"checkAllowance(address)": {
						"details": "Checks the allowance of a specified address",
						"params": {
							"addr": "The address to check"
						},
						"returns": {
							"_0": "The allowance amount"
						}
					},
					"checkGuardian(address)": {
						"details": "Checks if an address is a guardian",
						"params": {
							"guardianAddress": "The address to check"
						},
						"returns": {
							"_0": "True if the address is a guardian, false otherwise"
						}
					},
					"constructor": {
						"details": "Sets the contract deployer as the owner and the first guardian"
					},
					"countTrueVotes(address)": {
						"details": "Counts the number of true votes for a specified address",
						"params": {
							"candidate": "The address to count votes for"
						},
						"returns": {
							"_0": "count The number of votes"
						}
					},
					"deposit()": {
						"details": "Records the deposit and updates the sender's balance"
					},
					"resetAddressAllowance(address)": {
						"details": "Resets the allowance for a specified address",
						"params": {
							"addr": "The address for which to reset the allowance"
						}
					},
					"setAllowance(address,uint256)": {
						"details": "Sets the allowance for a specified address",
						"params": {
							"addr": "The address for which to set the allowance",
							"newAllowance": "The new allowance amount"
						}
					},
					"voteNewOwner(address)": {
						"details": "Allows guardians to vote for a new owner",
						"params": {
							"candidate": "The address of the candidate for the new owner"
						}
					},
					"withdraw(address,uint256)": {
						"details": "Allows the sender to withdraw a specified amount of Ether to a specified address",
						"params": {
							"amount": "The amount of Ether to withdraw",
							"to": "The address to send the Ether to"
						}
					}
				},
				"version": 1
			},
			"evm": {
				"assembly": "    /* \"contracts/EtherWallet2.sol\":118:5592  contract EtherWallet2{... */\n  mstore(0x40, 0x80)\n    /* \"contracts/EtherWallet2.sol\":1342:1471  constructor(){... */\n  callvalue\n  dup1\n  iszero\n  tag_1\n  jumpi\n  0x00\n  dup1\n  revert\ntag_1:\n  pop\n    /* \"contracts/EtherWallet2.sol\":1374:1384  msg.sender */\n  caller\n    /* \"contracts/EtherWallet2.sol\":1366:1371  owner */\n  0x00\n  dup1\n    /* \"contracts/EtherWallet2.sol\":1366:1384  owner = msg.sender */\n  0x0100\n  exp\n  dup2\n  sload\n  dup2\n  0xffffffffffffffffffffffffffffffffffffffff\n  mul\n  not\n  and\n  swap1\n  dup4\n  0xffffffffffffffffffffffffffffffffffffffff\n  and\n  mul\n  or\n  swap1\n  sstore\n  pop\n    /* \"contracts/EtherWallet2.sol\":1419:1423  true */\n  0x01\n    /* \"contracts/EtherWallet2.sol\":1395:1404  guardians */\n  0x02\n    /* \"contracts/EtherWallet2.sol\":1395:1416  guardians[msg.sender] */\n  0x00\n    /* \"contracts/EtherWallet2.sol\":1405:1415  msg.sender */\n  caller\n    /* \"contracts/EtherWallet2.sol\":1395:1416  guardians[msg.sender] */\n  0xffffffffffffffffffffffffffffffffffffffff\n  and\n  0xffffffffffffffffffffffffffffffffffffffff\n  and\n  dup2\n  mstore\n  0x20\n  add\n  swap1\n  dup2\n  mstore\n  0x20\n  add\n  0x00\n  keccak256\n  0x00\n    /* \"contracts/EtherWallet2.sol\":1395:1423  guardians[msg.sender] = true */\n  0x0100\n  exp\n  dup2\n  sload\n  dup2\n  0xff\n  mul\n  not\n  and\n  swap1\n  dup4\n  iszero\n  iszero\n  mul\n  or\n  swap1\n  sstore\n  pop\n    /* \"contracts/EtherWallet2.sol\":1434:1446  guardianList */\n  0x01\n    /* \"contracts/EtherWallet2.sol\":1452:1462  msg.sender */\n  caller\n    /* \"contracts/EtherWallet2.sol\":1434:1463  guardianList.push(msg.sender) */\n  swap1\n  dup1\n  0x01\n  dup2\n  sload\n  add\n  dup1\n  dup3\n  sstore\n  dup1\n  swap2\n  pop\n  pop\n  0x01\n  swap1\n  sub\n  swap1\n  0x00\n  mstore\n  keccak256(0x00, 0x20)\n  add\n  0x00\n  swap1\n  swap2\n  swap1\n  swap2\n  swap1\n  swap2\n  0x0100\n  exp\n  dup2\n  sload\n  dup2\n  0xffffffffffffffffffffffffffffffffffffffff\n  mul\n  not\n  and\n  swap1\n  dup4\n  0xffffffffffffffffffffffffffffffffffffffff\n  and\n  mul\n  or\n  swap1\n  sstore\n  pop\n    /* \"contracts/EtherWallet2.sol\":118:5592  contract EtherWallet2{... */\n  dataSize(sub_0)\n  dup1\n  dataOffset(sub_0)\n  0x00\n  codecopy\n  0x00\n  return\nstop\n\nsub_0: assembly {\n        /* \"contracts/EtherWallet2.sol\":118:5592  contract EtherWallet2{... */\n      mstore(0x40, 0x80)\n      jumpi(tag_1, lt(calldatasize, 0x04))\n      shr(0xe0, calldataload(0x00))\n      dup1\n      0x8da5cb5b\n      gt\n      tag_14\n      jumpi\n      dup1\n      0x8da5cb5b\n      eq\n      tag_8\n      jumpi\n      dup1\n      0xa428b362\n      eq\n      tag_9\n      jumpi\n      dup1\n      0xa526d83b\n      eq\n      tag_10\n      jumpi\n      dup1\n      0xd0e30db0\n      eq\n      tag_11\n      jumpi\n      dup1\n      0xe1721f7b\n      eq\n      tag_12\n      jumpi\n      dup1\n      0xf3fef3a3\n      eq\n      tag_13\n      jumpi\n      jump(tag_2)\n    tag_14:\n      dup1\n      0x1a197a26\n      eq\n      tag_3\n      jumpi\n      dup1\n      0x1ef4e720\n      eq\n      tag_4\n      jumpi\n      dup1\n      0x27e235e3\n      eq\n      tag_5\n      jumpi\n      dup1\n      0x310ec4a7\n      eq\n      tag_6\n      jumpi\n      dup1\n      0x7aa6a7f6\n      eq\n      tag_7\n      jumpi\n      jump(tag_2)\n    tag_1:\n      jumpi(tag_2, calldatasize)\n        /* \"contracts/EtherWallet2.sol\":1592:1601  deposit() */\n      tag_17\n        /* \"contracts/EtherWallet2.sol\":1592:1599  deposit */\n      tag_18\n        /* \"contracts/EtherWallet2.sol\":1592:1601  deposit() */\n      jump\t// in\n    tag_17:\n        /* \"contracts/EtherWallet2.sol\":118:5592  contract EtherWallet2{... */\n      stop\n    tag_2:\n        /* \"contracts/EtherWallet2.sol\":1744:1753  deposit() */\n      tag_21\n        /* \"contracts/EtherWallet2.sol\":1744:1751  deposit */\n      tag_18\n        /* \"contracts/EtherWallet2.sol\":1744:1753  deposit() */\n      jump\t// in\n    tag_21:\n        /* \"contracts/EtherWallet2.sol\":118:5592  contract EtherWallet2{... */\n      stop\n        /* \"contracts/EtherWallet2.sol\":5481:5589  function checkAllowance(address addr) public view returns(uint256) {... */\n    tag_3:\n      callvalue\n      dup1\n      iszero\n      tag_22\n      jumpi\n      0x00\n      dup1\n      revert\n    tag_22:\n      pop\n      tag_23\n      0x04\n      dup1\n      calldatasize\n      sub\n      dup2\n      add\n      swap1\n      tag_24\n      swap2\n      swap1\n      tag_25\n      jump\t// in\n    tag_24:\n      tag_26\n      jump\t// in\n    tag_23:\n      mload(0x40)\n      tag_27\n      swap2\n      swap1\n      tag_28\n      jump\t// in\n    tag_27:\n      mload(0x40)\n      dup1\n      swap2\n      sub\n      swap1\n      return\n        /* \"contracts/EtherWallet2.sol\":4550:4838  function countTrueVotes(address candidate) public view returns (uint8) {... */\n    tag_4:\n      callvalue\n      dup1\n      iszero\n      tag_29\n      jumpi\n      0x00\n      dup1\n      revert\n    tag_29:\n      pop\n      tag_30\n      0x04\n      dup1\n      calldatasize\n      sub\n      dup2\n      add\n      swap1\n      tag_31\n      swap2\n      swap1\n      tag_25\n      jump\t// in\n    tag_31:\n      tag_32\n      jump\t// in\n    tag_30:\n      mload(0x40)\n      tag_33\n      swap2\n      swap1\n      tag_34\n      jump\t// in\n    tag_33:\n      mload(0x40)\n      dup1\n      swap2\n      sub\n      swap1\n      return\n        /* \"contracts/EtherWallet2.sol\":782:825  mapping(address => uint256) public balances */\n    tag_5:\n      callvalue\n      dup1\n      iszero\n      tag_35\n      jumpi\n      0x00\n      dup1\n      revert\n    tag_35:\n      pop\n      tag_36\n      0x04\n      dup1\n      calldatasize\n      sub\n      dup2\n      add\n      swap1\n      tag_37\n      swap2\n      swap1\n      tag_25\n      jump\t// in\n    tag_37:\n      tag_38\n      jump\t// in\n    tag_36:\n      mload(0x40)\n      tag_39\n      swap2\n      swap1\n      tag_28\n      jump\t// in\n    tag_39:\n      mload(0x40)\n      dup1\n      swap2\n      sub\n      swap1\n      return\n        /* \"contracts/EtherWallet2.sol\":3320:3434  function setAllowance(address addr, uint256 newAllowance) public {... */\n    tag_6:\n      callvalue\n      dup1\n      iszero\n      tag_40\n      jumpi\n      0x00\n      dup1\n      revert\n    tag_40:\n      pop\n      tag_41\n      0x04\n      dup1\n      calldatasize\n      sub\n      dup2\n      add\n      swap1\n      tag_42\n      swap2\n      swap1\n      tag_43\n      jump\t// in\n    tag_42:\n      tag_44\n      jump\t// in\n    tag_41:\n      stop\n        /* \"contracts/EtherWallet2.sol\":3799:4372  function voteNewOwner(address candidate) public onlyGuardian{... */\n    tag_7:\n      callvalue\n      dup1\n      iszero\n      tag_45\n      jumpi\n      0x00\n      dup1\n      revert\n    tag_45:\n      pop\n      tag_46\n      0x04\n      dup1\n      calldatasize\n      sub\n      dup2\n      add\n      swap1\n      tag_47\n      swap2\n      swap1\n      tag_25\n      jump\t// in\n    tag_47:\n      tag_48\n      jump\t// in\n    tag_46:\n      stop\n        /* \"contracts/EtherWallet2.sol\":148:168  address public owner */\n    tag_8:\n      callvalue\n      dup1\n      iszero\n      tag_49\n      jumpi\n      0x00\n      dup1\n      revert\n    tag_49:\n      pop\n      tag_50\n      tag_51\n      jump\t// in\n    tag_50:\n      mload(0x40)\n      tag_52\n      swap2\n      swap1\n      tag_53\n      jump\t// in\n    tag_52:\n      mload(0x40)\n      dup1\n      swap2\n      sub\n      swap1\n      return\n        /* \"contracts/EtherWallet2.sol\":5210:5335  function checkGuardian(address guardianAddress) public view returns(bool){... */\n    tag_9:\n      callvalue\n      dup1\n      iszero\n      tag_54\n      jumpi\n      0x00\n      dup1\n      revert\n    tag_54:\n      pop\n      tag_55\n      0x04\n      dup1\n      calldatasize\n      sub\n      dup2\n      add\n      swap1\n      tag_56\n      swap2\n      swap1\n      tag_25\n      jump\t// in\n    tag_56:\n      tag_57\n      jump\t// in\n    tag_55:\n      mload(0x40)\n      tag_58\n      swap2\n      swap1\n      tag_59\n      jump\t// in\n    tag_58:\n      mload(0x40)\n      dup1\n      swap2\n      sub\n      swap1\n      return\n        /* \"contracts/EtherWallet2.sol\":2913:3137  function addGuardian(address newGuardian) public onlyOwner {... */\n    tag_10:\n      callvalue\n      dup1\n      iszero\n      tag_60\n      jumpi\n      0x00\n      dup1\n      revert\n    tag_60:\n      pop\n      tag_61\n      0x04\n      dup1\n      calldatasize\n      sub\n      dup2\n      add\n      swap1\n      tag_62\n      swap2\n      swap1\n      tag_25\n      jump\t// in\n    tag_62:\n      tag_63\n      jump\t// in\n    tag_61:\n      stop\n        /* \"contracts/EtherWallet2.sol\":1836:2012  function deposit() public payable {... */\n    tag_11:\n      tag_64\n      tag_18\n      jump\t// in\n    tag_64:\n      stop\n        /* \"contracts/EtherWallet2.sol\":3567:3657  function resetAddressAllowance(address addr) public {... */\n    tag_12:\n      callvalue\n      dup1\n      iszero\n      tag_65\n      jumpi\n      0x00\n      dup1\n      revert\n    tag_65:\n      pop\n      tag_66\n      0x04\n      dup1\n      calldatasize\n      sub\n      dup2\n      add\n      swap1\n      tag_67\n      swap2\n      swap1\n      tag_25\n      jump\t// in\n    tag_67:\n      tag_68\n      jump\t// in\n    tag_66:\n      stop\n        /* \"contracts/EtherWallet2.sol\":2222:2811  function withdraw(address payable to, uint256 amount) public {... */\n    tag_13:\n      callvalue\n      dup1\n      iszero\n      tag_69\n      jumpi\n      0x00\n      dup1\n      revert\n    tag_69:\n      pop\n      tag_70\n      0x04\n      dup1\n      calldatasize\n      sub\n      dup2\n      add\n      swap1\n      tag_71\n      swap2\n      swap1\n      tag_72\n      jump\t// in\n    tag_71:\n      tag_73\n      jump\t// in\n    tag_70:\n      stop\n        /* \"contracts/EtherWallet2.sol\":1836:2012  function deposit() public payable {... */\n    tag_18:\n        /* \"contracts/EtherWallet2.sol\":1904:1913  msg.value */\n      callvalue\n        /* \"contracts/EtherWallet2.sol\":1881:1889  balances */\n      0x05\n        /* \"contracts/EtherWallet2.sol\":1881:1901  balances[msg.sender] */\n      0x00\n        /* \"contracts/EtherWallet2.sol\":1890:1900  msg.sender */\n      caller\n        /* \"contracts/EtherWallet2.sol\":1881:1901  balances[msg.sender] */\n      0xffffffffffffffffffffffffffffffffffffffff\n      and\n      0xffffffffffffffffffffffffffffffffffffffff\n      and\n      dup2\n      mstore\n      0x20\n      add\n      swap1\n      dup2\n      mstore\n      0x20\n      add\n      0x00\n      keccak256\n        /* \"contracts/EtherWallet2.sol\":1881:1913  balances[msg.sender] = msg.value */\n      dup2\n      swap1\n      sstore\n      pop\n        /* \"contracts/EtherWallet2.sol\":1943:1953  msg.sender */\n      caller\n        /* \"contracts/EtherWallet2.sol\":1929:2004  ReceivedFunds(msg.sender, msg.value, balances[msg.sender], block.timestamp) */\n      0xffffffffffffffffffffffffffffffffffffffff\n      and\n      0x5f74095c3cf9cd2b4407992767113d77fc65cb2423a83ecc71977f3ace6b34f4\n        /* \"contracts/EtherWallet2.sol\":1955:1964  msg.value */\n      callvalue\n        /* \"contracts/EtherWallet2.sol\":1966:1974  balances */\n      0x05\n        /* \"contracts/EtherWallet2.sol\":1966:1986  balances[msg.sender] */\n      0x00\n        /* \"contracts/EtherWallet2.sol\":1975:1985  msg.sender */\n      caller\n        /* \"contracts/EtherWallet2.sol\":1966:1986  balances[msg.sender] */\n      0xffffffffffffffffffffffffffffffffffffffff\n      and\n      0xffffffffffffffffffffffffffffffffffffffff\n      and\n      dup2\n      mstore\n      0x20\n      add\n      swap1\n      dup2\n      mstore\n      0x20\n      add\n      0x00\n      keccak256\n      sload\n        /* \"contracts/EtherWallet2.sol\":1988:2003  block.timestamp */\n      timestamp\n        /* \"contracts/EtherWallet2.sol\":1929:2004  ReceivedFunds(msg.sender, msg.value, balances[msg.sender], block.timestamp) */\n      mload(0x40)\n      tag_75\n      swap4\n      swap3\n      swap2\n      swap1\n      tag_76\n      jump\t// in\n    tag_75:\n      mload(0x40)\n      dup1\n      swap2\n      sub\n      swap1\n      log2\n        /* \"contracts/EtherWallet2.sol\":1836:2012  function deposit() public payable {... */\n      jump\t// out\n        /* \"contracts/EtherWallet2.sol\":5481:5589  function checkAllowance(address addr) public view returns(uint256) {... */\n    tag_26:\n        /* \"contracts/EtherWallet2.sol\":5539:5546  uint256 */\n      0x00\n        /* \"contracts/EtherWallet2.sol\":5566:5575  allowance */\n      0x03\n        /* \"contracts/EtherWallet2.sol\":5566:5581  allowance[addr] */\n      0x00\n        /* \"contracts/EtherWallet2.sol\":5576:5580  addr */\n      dup4\n        /* \"contracts/EtherWallet2.sol\":5566:5581  allowance[addr] */\n      0xffffffffffffffffffffffffffffffffffffffff\n      and\n      0xffffffffffffffffffffffffffffffffffffffff\n      and\n      dup2\n      mstore\n      0x20\n      add\n      swap1\n      dup2\n      mstore\n      0x20\n      add\n      0x00\n      keccak256\n      sload\n        /* \"contracts/EtherWallet2.sol\":5559:5581  return allowance[addr] */\n      swap1\n      pop\n        /* \"contracts/EtherWallet2.sol\":5481:5589  function checkAllowance(address addr) public view returns(uint256) {... */\n      swap2\n      swap1\n      pop\n      jump\t// out\n        /* \"contracts/EtherWallet2.sol\":4550:4838  function countTrueVotes(address candidate) public view returns (uint8) {... */\n    tag_32:\n        /* \"contracts/EtherWallet2.sol\":4614:4619  uint8 */\n      0x00\n        /* \"contracts/EtherWallet2.sol\":4632:4643  uint8 count */\n      dup1\n        /* \"contracts/EtherWallet2.sol\":4646:4647  0 */\n      0x00\n        /* \"contracts/EtherWallet2.sol\":4632:4647  uint8 count = 0 */\n      swap1\n      pop\n        /* \"contracts/EtherWallet2.sol\":4662:4668  uint i */\n      0x00\n        /* \"contracts/EtherWallet2.sol\":4658:4808  for(uint i = 0; i < guardianList.length; i++){... */\n    tag_79:\n        /* \"contracts/EtherWallet2.sol\":4678:4690  guardianList */\n      0x01\n        /* \"contracts/EtherWallet2.sol\":4678:4697  guardianList.length */\n      dup1\n      sload\n      swap1\n      pop\n        /* \"contracts/EtherWallet2.sol\":4674:4675  i */\n      dup2\n        /* \"contracts/EtherWallet2.sol\":4674:4697  i < guardianList.length */\n      lt\n        /* \"contracts/EtherWallet2.sol\":4658:4808  for(uint i = 0; i < guardianList.length; i++){... */\n      iszero\n      tag_80\n      jumpi\n        /* \"contracts/EtherWallet2.sol\":4721:4726  votes */\n      0x04\n        /* \"contracts/EtherWallet2.sol\":4721:4743  votes[guardianList[i]] */\n      0x00\n        /* \"contracts/EtherWallet2.sol\":4727:4739  guardianList */\n      0x01\n        /* \"contracts/EtherWallet2.sol\":4740:4741  i */\n      dup4\n        /* \"contracts/EtherWallet2.sol\":4727:4742  guardianList[i] */\n      dup2\n      sload\n      dup2\n      lt\n      tag_82\n      jumpi\n      tag_83\n      tag_84\n      jump\t// in\n    tag_83:\n    tag_82:\n      swap1\n      0x00\n      mstore\n      keccak256(0x00, 0x20)\n      add\n      0x00\n      swap1\n      sload\n      swap1\n      0x0100\n      exp\n      swap1\n      div\n      0xffffffffffffffffffffffffffffffffffffffff\n      and\n        /* \"contracts/EtherWallet2.sol\":4721:4743  votes[guardianList[i]] */\n      0xffffffffffffffffffffffffffffffffffffffff\n      and\n      0xffffffffffffffffffffffffffffffffffffffff\n      and\n      dup2\n      mstore\n      0x20\n      add\n      swap1\n      dup2\n      mstore\n      0x20\n      add\n      0x00\n      keccak256\n        /* \"contracts/EtherWallet2.sol\":4721:4754  votes[guardianList[i]][candidate] */\n      0x00\n        /* \"contracts/EtherWallet2.sol\":4744:4753  candidate */\n      dup6\n        /* \"contracts/EtherWallet2.sol\":4721:4754  votes[guardianList[i]][candidate] */\n      0xffffffffffffffffffffffffffffffffffffffff\n      and\n      0xffffffffffffffffffffffffffffffffffffffff\n      and\n      dup2\n      mstore\n      0x20\n      add\n      swap1\n      dup2\n      mstore\n      0x20\n      add\n      0x00\n      keccak256\n      0x00\n      swap1\n      sload\n      swap1\n      0x0100\n      exp\n      swap1\n      div\n      0xff\n      and\n        /* \"contracts/EtherWallet2.sol\":4718:4797  if(votes[guardianList[i]][candidate]){... */\n      iszero\n      tag_86\n      jumpi\n        /* \"contracts/EtherWallet2.sol\":4774:4781  count++ */\n      dup2\n      dup1\n      tag_87\n      swap1\n      tag_88\n      jump\t// in\n    tag_87:\n      swap3\n      pop\n      pop\n        /* \"contracts/EtherWallet2.sol\":4718:4797  if(votes[guardianList[i]][candidate]){... */\n    tag_86:\n        /* \"contracts/EtherWallet2.sol\":4699:4702  i++ */\n      dup1\n      dup1\n      tag_89\n      swap1\n      tag_90\n      jump\t// in\n    tag_89:\n      swap2\n      pop\n      pop\n        /* \"contracts/EtherWallet2.sol\":4658:4808  for(uint i = 0; i < guardianList.length; i++){... */\n      jump(tag_79)\n    tag_80:\n      pop\n        /* \"contracts/EtherWallet2.sol\":4825:4830  count */\n      dup1\n        /* \"contracts/EtherWallet2.sol\":4818:4830  return count */\n      swap2\n      pop\n      pop\n        /* \"contracts/EtherWallet2.sol\":4550:4838  function countTrueVotes(address candidate) public view returns (uint8) {... */\n      swap2\n      swap1\n      pop\n      jump\t// out\n        /* \"contracts/EtherWallet2.sol\":782:825  mapping(address => uint256) public balances */\n    tag_38:\n      mstore(0x20, 0x05)\n      dup1\n      0x00\n      mstore\n      keccak256(0x00, 0x40)\n      0x00\n      swap2\n      pop\n      swap1\n      pop\n      sload\n      dup2\n      jump\t// out\n        /* \"contracts/EtherWallet2.sol\":3320:3434  function setAllowance(address addr, uint256 newAllowance) public {... */\n    tag_44:\n        /* \"contracts/EtherWallet2.sol\":3414:3426  newAllowance */\n      dup1\n        /* \"contracts/EtherWallet2.sol\":3396:3405  allowance */\n      0x03\n        /* \"contracts/EtherWallet2.sol\":3396:3411  allowance[addr] */\n      0x00\n        /* \"contracts/EtherWallet2.sol\":3406:3410  addr */\n      dup5\n        /* \"contracts/EtherWallet2.sol\":3396:3411  allowance[addr] */\n      0xffffffffffffffffffffffffffffffffffffffff\n      and\n      0xffffffffffffffffffffffffffffffffffffffff\n      and\n      dup2\n      mstore\n      0x20\n      add\n      swap1\n      dup2\n      mstore\n      0x20\n      add\n      0x00\n      keccak256\n        /* \"contracts/EtherWallet2.sol\":3396:3426  allowance[addr] = newAllowance */\n      dup2\n      swap1\n      sstore\n      pop\n        /* \"contracts/EtherWallet2.sol\":3320:3434  function setAllowance(address addr, uint256 newAllowance) public {... */\n      pop\n      pop\n      jump\t// out\n        /* \"contracts/EtherWallet2.sol\":3799:4372  function voteNewOwner(address candidate) public onlyGuardian{... */\n    tag_48:\n        /* \"contracts/EtherWallet2.sol\":1148:1157  guardians */\n      0x02\n        /* \"contracts/EtherWallet2.sol\":1148:1169  guardians[msg.sender] */\n      0x00\n        /* \"contracts/EtherWallet2.sol\":1158:1168  msg.sender */\n      caller\n        /* \"contracts/EtherWallet2.sol\":1148:1169  guardians[msg.sender] */\n      0xffffffffffffffffffffffffffffffffffffffff\n      and\n      0xffffffffffffffffffffffffffffffffffffffff\n      and\n      dup2\n      mstore\n      0x20\n      add\n      swap1\n      dup2\n      mstore\n      0x20\n      add\n      0x00\n      keccak256\n      0x00\n      swap1\n      sload\n      swap1\n      0x0100\n      exp\n      swap1\n      div\n      0xff\n      and\n        /* \"contracts/EtherWallet2.sol\":1140:1237  require(guardians[msg.sender], \"Only wallet Guardians are allowed to vote for new wallet owner.\") */\n      tag_93\n      jumpi\n      mload(0x40)\n      0x08c379a000000000000000000000000000000000000000000000000000000000\n      dup2\n      mstore\n      0x04\n      add\n      tag_94\n      swap1\n      tag_95\n      jump\t// in\n    tag_94:\n      mload(0x40)\n      dup1\n      swap2\n      sub\n      swap1\n      revert\n    tag_93:\n        /* \"contracts/EtherWallet2.sol\":3891:3896  owner */\n      0x00\n      dup1\n      sload\n      swap1\n      0x0100\n      exp\n      swap1\n      div\n      0xffffffffffffffffffffffffffffffffffffffff\n      and\n        /* \"contracts/EtherWallet2.sol\":3878:3896  candidate != owner */\n      0xffffffffffffffffffffffffffffffffffffffff\n      and\n        /* \"contracts/EtherWallet2.sol\":3878:3887  candidate */\n      dup2\n        /* \"contracts/EtherWallet2.sol\":3878:3896  candidate != owner */\n      0xffffffffffffffffffffffffffffffffffffffff\n      and\n      sub\n        /* \"contracts/EtherWallet2.sol\":3870:3936  require(candidate != owner, \"Address is already the wallet owner\") */\n      tag_97\n      jumpi\n      mload(0x40)\n      0x08c379a000000000000000000000000000000000000000000000000000000000\n      dup2\n      mstore\n      0x04\n      add\n      tag_98\n      swap1\n      tag_99\n      jump\t// in\n    tag_98:\n      mload(0x40)\n      dup1\n      swap2\n      sub\n      swap1\n      revert\n    tag_97:\n        /* \"contracts/EtherWallet2.sol\":3956:3961  votes */\n      0x04\n        /* \"contracts/EtherWallet2.sol\":3956:3973  votes[msg.sender] */\n      0x00\n        /* \"contracts/EtherWallet2.sol\":3962:3972  msg.sender */\n      caller\n        /* \"contracts/EtherWallet2.sol\":3956:3973  votes[msg.sender] */\n      0xffffffffffffffffffffffffffffffffffffffff\n      and\n      0xffffffffffffffffffffffffffffffffffffffff\n      and\n      dup2\n      mstore\n      0x20\n      add\n      swap1\n      dup2\n      mstore\n      0x20\n      add\n      0x00\n      keccak256\n        /* \"contracts/EtherWallet2.sol\":3956:3984  votes[msg.sender][candidate] */\n      0x00\n        /* \"contracts/EtherWallet2.sol\":3974:3983  candidate */\n      dup3\n        /* \"contracts/EtherWallet2.sol\":3956:3984  votes[msg.sender][candidate] */\n      0xffffffffffffffffffffffffffffffffffffffff\n      and\n      0xffffffffffffffffffffffffffffffffffffffff\n      and\n      dup2\n      mstore\n      0x20\n      add\n      swap1\n      dup2\n      mstore\n      0x20\n      add\n      0x00\n      keccak256\n      0x00\n      swap1\n      sload\n      swap1\n      0x0100\n      exp\n      swap1\n      div\n      0xff\n      and\n        /* \"contracts/EtherWallet2.sol\":3955:3984  !votes[msg.sender][candidate] */\n      iszero\n        /* \"contracts/EtherWallet2.sol\":3947:4030  require(!votes[msg.sender][candidate], \"You have already voted for this candidate\") */\n      tag_100\n      jumpi\n      mload(0x40)\n      0x08c379a000000000000000000000000000000000000000000000000000000000\n      dup2\n      mstore\n      0x04\n      add\n      tag_101\n      swap1\n      tag_102\n      jump\t// in\n    tag_101:\n      mload(0x40)\n      dup1\n      swap2\n      sub\n      swap1\n      revert\n    tag_100:\n        /* \"contracts/EtherWallet2.sol\":4074:4078  true */\n      0x01\n        /* \"contracts/EtherWallet2.sol\":4043:4048  votes */\n      0x04\n        /* \"contracts/EtherWallet2.sol\":4043:4060  votes[msg.sender] */\n      0x00\n        /* \"contracts/EtherWallet2.sol\":4049:4059  msg.sender */\n      caller\n        /* \"contracts/EtherWallet2.sol\":4043:4060  votes[msg.sender] */\n      0xffffffffffffffffffffffffffffffffffffffff\n      and\n      0xffffffffffffffffffffffffffffffffffffffff\n      and\n      dup2\n      mstore\n      0x20\n      add\n      swap1\n      dup2\n      mstore\n      0x20\n      add\n      0x00\n      keccak256\n        /* \"contracts/EtherWallet2.sol\":4043:4071  votes[msg.sender][candidate] */\n      0x00\n        /* \"contracts/EtherWallet2.sol\":4061:4070  candidate */\n      dup4\n        /* \"contracts/EtherWallet2.sol\":4043:4071  votes[msg.sender][candidate] */\n      0xffffffffffffffffffffffffffffffffffffffff\n      and\n      0xffffffffffffffffffffffffffffffffffffffff\n      and\n      dup2\n      mstore\n      0x20\n      add\n      swap1\n      dup2\n      mstore\n      0x20\n      add\n      0x00\n      keccak256\n      0x00\n        /* \"contracts/EtherWallet2.sol\":4043:4078  votes[msg.sender][candidate] = true */\n      0x0100\n      exp\n      dup2\n      sload\n      dup2\n      0xff\n      mul\n      not\n      and\n      swap1\n      dup4\n      iszero\n      iszero\n      mul\n      or\n      swap1\n      sstore\n      pop\n        /* \"contracts/EtherWallet2.sol\":4122:4131  candidate */\n      dup1\n        /* \"contracts/EtherWallet2.sol\":4094:4149  VoteForNewOwner(msg.sender, candidate, block.timestamp) */\n      0xffffffffffffffffffffffffffffffffffffffff\n      and\n        /* \"contracts/EtherWallet2.sol\":4110:4120  msg.sender */\n      caller\n        /* \"contracts/EtherWallet2.sol\":4094:4149  VoteForNewOwner(msg.sender, candidate, block.timestamp) */\n      0xffffffffffffffffffffffffffffffffffffffff\n      and\n      0x2a29cab36d74cab0b1382c2e828019bda76c7994a8e09266d4b60a9cf68fb4cf\n        /* \"contracts/EtherWallet2.sol\":4133:4148  block.timestamp */\n      timestamp\n        /* \"contracts/EtherWallet2.sol\":4094:4149  VoteForNewOwner(msg.sender, candidate, block.timestamp) */\n      mload(0x40)\n      tag_103\n      swap2\n      swap1\n      tag_28\n      jump\t// in\n    tag_103:\n      mload(0x40)\n      dup1\n      swap2\n      sub\n      swap1\n      log3\n        /* \"contracts/EtherWallet2.sol\":4255:4256  3 */\n      0x03\n        /* \"contracts/EtherWallet2.sol\":4226:4251  countTrueVotes(candidate) */\n      tag_104\n        /* \"contracts/EtherWallet2.sol\":4241:4250  candidate */\n      dup3\n        /* \"contracts/EtherWallet2.sol\":4226:4240  countTrueVotes */\n      tag_32\n        /* \"contracts/EtherWallet2.sol\":4226:4251  countTrueVotes(candidate) */\n      jump\t// in\n    tag_104:\n        /* \"contracts/EtherWallet2.sol\":4226:4256  countTrueVotes(candidate) >= 3 */\n      0xff\n      and\n      lt\n        /* \"contracts/EtherWallet2.sol\":4223:4365  if(countTrueVotes(candidate) >= 3){... */\n      tag_105\n      jumpi\n        /* \"contracts/EtherWallet2.sol\":4272:4294  setNewOwner(candidate) */\n      tag_106\n        /* \"contracts/EtherWallet2.sol\":4284:4293  candidate */\n      dup2\n        /* \"contracts/EtherWallet2.sol\":4272:4283  setNewOwner */\n      tag_107\n        /* \"contracts/EtherWallet2.sol\":4272:4294  setNewOwner(candidate) */\n      jump\t// in\n    tag_106:\n        /* \"contracts/EtherWallet2.sol\":4326:4335  candidate */\n      dup1\n        /* \"contracts/EtherWallet2.sol\":4314:4353  NewOwnerSet(candidate, block.timestamp) */\n      0xffffffffffffffffffffffffffffffffffffffff\n      and\n      0x40f6412cf1328603fc3d500d164e0f08a7b7839b837a3bc5b8f23bedcd219300\n        /* \"contracts/EtherWallet2.sol\":4337:4352  block.timestamp */\n      timestamp\n        /* \"contracts/EtherWallet2.sol\":4314:4353  NewOwnerSet(candidate, block.timestamp) */\n      mload(0x40)\n      tag_108\n      swap2\n      swap1\n      tag_28\n      jump\t// in\n    tag_108:\n      mload(0x40)\n      dup1\n      swap2\n      sub\n      swap1\n      log2\n        /* \"contracts/EtherWallet2.sol\":4223:4365  if(countTrueVotes(candidate) >= 3){... */\n    tag_105:\n        /* \"contracts/EtherWallet2.sol\":3799:4372  function voteNewOwner(address candidate) public onlyGuardian{... */\n      pop\n      jump\t// out\n        /* \"contracts/EtherWallet2.sol\":148:168  address public owner */\n    tag_51:\n      0x00\n      dup1\n      sload\n      swap1\n      0x0100\n      exp\n      swap1\n      div\n      0xffffffffffffffffffffffffffffffffffffffff\n      and\n      dup2\n      jump\t// out\n        /* \"contracts/EtherWallet2.sol\":5210:5335  function checkGuardian(address guardianAddress) public view returns(bool){... */\n    tag_57:\n        /* \"contracts/EtherWallet2.sol\":5278:5282  bool */\n      0x00\n        /* \"contracts/EtherWallet2.sol\":5301:5310  guardians */\n      0x02\n        /* \"contracts/EtherWallet2.sol\":5301:5327  guardians[guardianAddress] */\n      0x00\n        /* \"contracts/EtherWallet2.sol\":5311:5326  guardianAddress */\n      dup4\n        /* \"contracts/EtherWallet2.sol\":5301:5327  guardians[guardianAddress] */\n      0xffffffffffffffffffffffffffffffffffffffff\n      and\n      0xffffffffffffffffffffffffffffffffffffffff\n      and\n      dup2\n      mstore\n      0x20\n      add\n      swap1\n      dup2\n      mstore\n      0x20\n      add\n      0x00\n      keccak256\n      0x00\n      swap1\n      sload\n      swap1\n      0x0100\n      exp\n      swap1\n      div\n      0xff\n      and\n        /* \"contracts/EtherWallet2.sol\":5294:5327  return guardians[guardianAddress] */\n      swap1\n      pop\n        /* \"contracts/EtherWallet2.sol\":5210:5335  function checkGuardian(address guardianAddress) public view returns(bool){... */\n      swap2\n      swap1\n      pop\n      jump\t// out\n        /* \"contracts/EtherWallet2.sol\":2913:3137  function addGuardian(address newGuardian) public onlyOwner {... */\n    tag_63:\n        /* \"contracts/EtherWallet2.sol\":963:968  owner */\n      0x00\n      dup1\n      sload\n      swap1\n      0x0100\n      exp\n      swap1\n      div\n      0xffffffffffffffffffffffffffffffffffffffff\n      and\n        /* \"contracts/EtherWallet2.sol\":949:968  msg.sender == owner */\n      0xffffffffffffffffffffffffffffffffffffffff\n      and\n        /* \"contracts/EtherWallet2.sol\":949:959  msg.sender */\n      caller\n        /* \"contracts/EtherWallet2.sol\":949:968  msg.sender == owner */\n      0xffffffffffffffffffffffffffffffffffffffff\n      and\n      eq\n        /* \"contracts/EtherWallet2.sol\":941:1013  require(msg.sender == owner, \"You must be wallet owner for this action\") */\n      tag_111\n      jumpi\n      mload(0x40)\n      0x08c379a000000000000000000000000000000000000000000000000000000000\n      dup2\n      mstore\n      0x04\n      add\n      tag_112\n      swap1\n      tag_113\n      jump\t// in\n    tag_112:\n      mload(0x40)\n      dup1\n      swap2\n      sub\n      swap1\n      revert\n    tag_111:\n        /* \"contracts/EtherWallet2.sol\":2992:3001  guardians */\n      0x02\n        /* \"contracts/EtherWallet2.sol\":2992:3014  guardians[newGuardian] */\n      0x00\n        /* \"contracts/EtherWallet2.sol\":3002:3013  newGuardian */\n      dup3\n        /* \"contracts/EtherWallet2.sol\":2992:3014  guardians[newGuardian] */\n      0xffffffffffffffffffffffffffffffffffffffff\n      and\n      0xffffffffffffffffffffffffffffffffffffffff\n      and\n      dup2\n      mstore\n      0x20\n      add\n      swap1\n      dup2\n      mstore\n      0x20\n      add\n      0x00\n      keccak256\n      0x00\n      swap1\n      sload\n      swap1\n      0x0100\n      exp\n      swap1\n      div\n      0xff\n      and\n        /* \"contracts/EtherWallet2.sol\":2991:3014  !guardians[newGuardian] */\n      iszero\n        /* \"contracts/EtherWallet2.sol\":2983:3048  require(!guardians[newGuardian], \"Address is already a guardian\") */\n      tag_115\n      jumpi\n      mload(0x40)\n      0x08c379a000000000000000000000000000000000000000000000000000000000\n      dup2\n      mstore\n      0x04\n      add\n      tag_116\n      swap1\n      tag_117\n      jump\t// in\n    tag_116:\n      mload(0x40)\n      dup1\n      swap2\n      sub\n      swap1\n      revert\n    tag_115:\n        /* \"contracts/EtherWallet2.sol\":3084:3088  true */\n      0x01\n        /* \"contracts/EtherWallet2.sol\":3059:3068  guardians */\n      0x02\n        /* \"contracts/EtherWallet2.sol\":3059:3081  guardians[newGuardian] */\n      0x00\n        /* \"contracts/EtherWallet2.sol\":3069:3080  newGuardian */\n      dup4\n        /* \"contracts/EtherWallet2.sol\":3059:3081  guardians[newGuardian] */\n      0xffffffffffffffffffffffffffffffffffffffff\n      and\n      0xffffffffffffffffffffffffffffffffffffffff\n      and\n      dup2\n      mstore\n      0x20\n      add\n      swap1\n      dup2\n      mstore\n      0x20\n      add\n      0x00\n      keccak256\n      0x00\n        /* \"contracts/EtherWallet2.sol\":3059:3088  guardians[newGuardian] = true */\n      0x0100\n      exp\n      dup2\n      sload\n      dup2\n      0xff\n      mul\n      not\n      and\n      swap1\n      dup4\n      iszero\n      iszero\n      mul\n      or\n      swap1\n      sstore\n      pop\n        /* \"contracts/EtherWallet2.sol\":3099:3111  guardianList */\n      0x01\n        /* \"contracts/EtherWallet2.sol\":3117:3128  newGuardian */\n      dup2\n        /* \"contracts/EtherWallet2.sol\":3099:3129  guardianList.push(newGuardian) */\n      swap1\n      dup1\n      0x01\n      dup2\n      sload\n      add\n      dup1\n      dup3\n      sstore\n      dup1\n      swap2\n      pop\n      pop\n      0x01\n      swap1\n      sub\n      swap1\n      0x00\n      mstore\n      keccak256(0x00, 0x20)\n      add\n      0x00\n      swap1\n      swap2\n      swap1\n      swap2\n      swap1\n      swap2\n      0x0100\n      exp\n      dup2\n      sload\n      dup2\n      0xffffffffffffffffffffffffffffffffffffffff\n      mul\n      not\n      and\n      swap1\n      dup4\n      0xffffffffffffffffffffffffffffffffffffffff\n      and\n      mul\n      or\n      swap1\n      sstore\n      pop\n        /* \"contracts/EtherWallet2.sol\":2913:3137  function addGuardian(address newGuardian) public onlyOwner {... */\n      pop\n      jump\t// out\n        /* \"contracts/EtherWallet2.sol\":3567:3657  function resetAddressAllowance(address addr) public {... */\n    tag_68:\n        /* \"contracts/EtherWallet2.sol\":3648:3649  0 */\n      0x00\n        /* \"contracts/EtherWallet2.sol\":3630:3639  allowance */\n      0x03\n        /* \"contracts/EtherWallet2.sol\":3630:3645  allowance[addr] */\n      0x00\n        /* \"contracts/EtherWallet2.sol\":3640:3644  addr */\n      dup4\n        /* \"contracts/EtherWallet2.sol\":3630:3645  allowance[addr] */\n      0xffffffffffffffffffffffffffffffffffffffff\n      and\n      0xffffffffffffffffffffffffffffffffffffffff\n      and\n      dup2\n      mstore\n      0x20\n      add\n      swap1\n      dup2\n      mstore\n      0x20\n      add\n      0x00\n      keccak256\n        /* \"contracts/EtherWallet2.sol\":3630:3649  allowance[addr] = 0 */\n      dup2\n      swap1\n      sstore\n      pop\n        /* \"contracts/EtherWallet2.sol\":3567:3657  function resetAddressAllowance(address addr) public {... */\n      pop\n      jump\t// out\n        /* \"contracts/EtherWallet2.sol\":2222:2811  function withdraw(address payable to, uint256 amount) public {... */\n    tag_73:\n        /* \"contracts/EtherWallet2.sol\":2312:2321  allowance */\n      0x03\n        /* \"contracts/EtherWallet2.sol\":2312:2333  allowance[msg.sender] */\n      0x00\n        /* \"contracts/EtherWallet2.sol\":2322:2332  msg.sender */\n      caller\n        /* \"contracts/EtherWallet2.sol\":2312:2333  allowance[msg.sender] */\n      0xffffffffffffffffffffffffffffffffffffffff\n      and\n      0xffffffffffffffffffffffffffffffffffffffff\n      and\n      dup2\n      mstore\n      0x20\n      add\n      swap1\n      dup2\n      mstore\n      0x20\n      add\n      0x00\n      keccak256\n      sload\n        /* \"contracts/EtherWallet2.sol\":2302:2308  amount */\n      dup2\n        /* \"contracts/EtherWallet2.sol\":2302:2333  amount <= allowance[msg.sender] */\n      gt\n      iszero\n        /* \"contracts/EtherWallet2.sol\":2294:2404  require(amount <= allowance[msg.sender], \"Withdraw amount is larger than allowance, increase your allowance.\") */\n      tag_121\n      jumpi\n      mload(0x40)\n      0x08c379a000000000000000000000000000000000000000000000000000000000\n      dup2\n      mstore\n      0x04\n      add\n      tag_122\n      swap1\n      tag_123\n      jump\t// in\n    tag_122:\n      mload(0x40)\n      dup1\n      swap2\n      sub\n      swap1\n      revert\n    tag_121:\n        /* \"contracts/EtherWallet2.sol\":2447:2453  amount */\n      dup1\n        /* \"contracts/EtherWallet2.sol\":2423:2431  balances */\n      0x05\n        /* \"contracts/EtherWallet2.sol\":2423:2443  balances[msg.sender] */\n      0x00\n        /* \"contracts/EtherWallet2.sol\":2432:2442  msg.sender */\n      caller\n        /* \"contracts/EtherWallet2.sol\":2423:2443  balances[msg.sender] */\n      0xffffffffffffffffffffffffffffffffffffffff\n      and\n      0xffffffffffffffffffffffffffffffffffffffff\n      and\n      dup2\n      mstore\n      0x20\n      add\n      swap1\n      dup2\n      mstore\n      0x20\n      add\n      0x00\n      keccak256\n      sload\n        /* \"contracts/EtherWallet2.sol\":2423:2453  balances[msg.sender] >= amount */\n      lt\n      iszero\n        /* \"contracts/EtherWallet2.sol\":2415:2478  require(balances[msg.sender] >= amount, \"Insufficient balance\") */\n      tag_124\n      jumpi\n      mload(0x40)\n      0x08c379a000000000000000000000000000000000000000000000000000000000\n      dup2\n      mstore\n      0x04\n      add\n      tag_125\n      swap1\n      tag_126\n      jump\t// in\n    tag_125:\n      mload(0x40)\n      dup1\n      swap2\n      sub\n      swap1\n      revert\n    tag_124:\n        /* \"contracts/EtherWallet2.sol\":2515:2521  amount */\n      dup1\n        /* \"contracts/EtherWallet2.sol\":2491:2499  balances */\n      0x05\n        /* \"contracts/EtherWallet2.sol\":2491:2511  balances[msg.sender] */\n      0x00\n        /* \"contracts/EtherWallet2.sol\":2500:2510  msg.sender */\n      caller\n        /* \"contracts/EtherWallet2.sol\":2491:2511  balances[msg.sender] */\n      0xffffffffffffffffffffffffffffffffffffffff\n      and\n      0xffffffffffffffffffffffffffffffffffffffff\n      and\n      dup2\n      mstore\n      0x20\n      add\n      swap1\n      dup2\n      mstore\n      0x20\n      add\n      0x00\n      keccak256\n      0x00\n        /* \"contracts/EtherWallet2.sol\":2491:2521  balances[msg.sender] -= amount */\n      dup3\n      dup3\n      sload\n      tag_127\n      swap2\n      swap1\n      tag_128\n      jump\t// in\n    tag_127:\n      swap3\n      pop\n      pop\n      dup2\n      swap1\n      sstore\n      pop\n        /* \"contracts/EtherWallet2.sol\":2557:2563  amount */\n      dup1\n        /* \"contracts/EtherWallet2.sol\":2532:2541  allowance */\n      0x03\n        /* \"contracts/EtherWallet2.sol\":2532:2553  allowance[msg.sender] */\n      0x00\n        /* \"contracts/EtherWallet2.sol\":2542:2552  msg.sender */\n      caller\n        /* \"contracts/EtherWallet2.sol\":2532:2553  allowance[msg.sender] */\n      0xffffffffffffffffffffffffffffffffffffffff\n      and\n      0xffffffffffffffffffffffffffffffffffffffff\n      and\n      dup2\n      mstore\n      0x20\n      add\n      swap1\n      dup2\n      mstore\n      0x20\n      add\n      0x00\n      keccak256\n      0x00\n        /* \"contracts/EtherWallet2.sol\":2532:2563  allowance[msg.sender] -= amount */\n      dup3\n      dup3\n      sload\n      tag_129\n      swap2\n      swap1\n      tag_128\n      jump\t// in\n    tag_129:\n      swap3\n      pop\n      pop\n      dup2\n      swap1\n      sstore\n      pop\n        /* \"contracts/EtherWallet2.sol\":2613:2625  bool success */\n      0x00\n        /* \"contracts/EtherWallet2.sol\":2631:2633  to */\n      dup3\n        /* \"contracts/EtherWallet2.sol\":2631:2638  to.call */\n      0xffffffffffffffffffffffffffffffffffffffff\n      and\n        /* \"contracts/EtherWallet2.sol\":2647:2653  amount */\n      dup3\n        /* \"contracts/EtherWallet2.sol\":2631:2658  to.call{value : amount}(\"\") */\n      mload(0x40)\n      tag_130\n      swap1\n      tag_131\n      jump\t// in\n    tag_130:\n      0x00\n      mload(0x40)\n      dup1\n      dup4\n      sub\n      dup2\n      dup6\n      dup8\n      gas\n      call\n      swap3\n      pop\n      pop\n      pop\n      returndatasize\n      dup1\n      0x00\n      dup2\n      eq\n      tag_134\n      jumpi\n      mload(0x40)\n      swap2\n      pop\n      and(add(returndatasize, 0x3f), not(0x1f))\n      dup3\n      add\n      0x40\n      mstore\n      returndatasize\n      dup3\n      mstore\n      returndatasize\n      0x00\n      0x20\n      dup5\n      add\n      returndatacopy\n      jump(tag_133)\n    tag_134:\n      0x60\n      swap2\n      pop\n    tag_133:\n      pop\n        /* \"contracts/EtherWallet2.sol\":2612:2658  (bool success, ) = to.call{value : amount}(\"\") */\n      pop\n      swap1\n      pop\n        /* \"contracts/EtherWallet2.sol\":2677:2684  success */\n      dup1\n        /* \"contracts/EtherWallet2.sol\":2669:2709  require(success, \"Withdraw unsuccesful\") */\n      tag_135\n      jumpi\n      mload(0x40)\n      0x08c379a000000000000000000000000000000000000000000000000000000000\n      dup2\n      mstore\n      0x04\n      add\n      tag_136\n      swap1\n      tag_137\n      jump\t// in\n    tag_136:\n      mload(0x40)\n      dup1\n      swap2\n      sub\n      swap1\n      revert\n    tag_135:\n        /* \"contracts/EtherWallet2.sol\":2753:2755  to */\n      dup3\n        /* \"contracts/EtherWallet2.sol\":2727:2803  WithdrawFunds(msg.sender, to, amount, balances[msg.sender], block.timestamp) */\n      0xffffffffffffffffffffffffffffffffffffffff\n      and\n        /* \"contracts/EtherWallet2.sol\":2741:2751  msg.sender */\n      caller\n        /* \"contracts/EtherWallet2.sol\":2727:2803  WithdrawFunds(msg.sender, to, amount, balances[msg.sender], block.timestamp) */\n      0xffffffffffffffffffffffffffffffffffffffff\n      and\n      0x2795acad0bded62e0795d80c0c6a89688f6b0517146a7a9a52abc38ff3fe0955\n        /* \"contracts/EtherWallet2.sol\":2757:2763  amount */\n      dup5\n        /* \"contracts/EtherWallet2.sol\":2765:2773  balances */\n      0x05\n        /* \"contracts/EtherWallet2.sol\":2765:2785  balances[msg.sender] */\n      0x00\n        /* \"contracts/EtherWallet2.sol\":2774:2784  msg.sender */\n      caller\n        /* \"contracts/EtherWallet2.sol\":2765:2785  balances[msg.sender] */\n      0xffffffffffffffffffffffffffffffffffffffff\n      and\n      0xffffffffffffffffffffffffffffffffffffffff\n      and\n      dup2\n      mstore\n      0x20\n      add\n      swap1\n      dup2\n      mstore\n      0x20\n      add\n      0x00\n      keccak256\n      sload\n        /* \"contracts/EtherWallet2.sol\":2787:2802  block.timestamp */\n      timestamp\n        /* \"contracts/EtherWallet2.sol\":2727:2803  WithdrawFunds(msg.sender, to, amount, balances[msg.sender], block.timestamp) */\n      mload(0x40)\n      tag_138\n      swap4\n      swap3\n      swap2\n      swap1\n      tag_76\n      jump\t// in\n    tag_138:\n      mload(0x40)\n      dup1\n      swap2\n      sub\n      swap1\n      log3\n        /* \"contracts/EtherWallet2.sol\":2283:2811  {... */\n      pop\n        /* \"contracts/EtherWallet2.sol\":2222:2811  function withdraw(address payable to, uint256 amount) public {... */\n      pop\n      pop\n      jump\t// out\n        /* \"contracts/EtherWallet2.sol\":4949:5032  function setNewOwner(address newOwner) internal {... */\n    tag_107:\n        /* \"contracts/EtherWallet2.sol\":5016:5024  newOwner */\n      dup1\n        /* \"contracts/EtherWallet2.sol\":5008:5013  owner */\n      0x00\n      dup1\n        /* \"contracts/EtherWallet2.sol\":5008:5024  owner = newOwner */\n      0x0100\n      exp\n      dup2\n      sload\n      dup2\n      0xffffffffffffffffffffffffffffffffffffffff\n      mul\n      not\n      and\n      swap1\n      dup4\n      0xffffffffffffffffffffffffffffffffffffffff\n      and\n      mul\n      or\n      swap1\n      sstore\n      pop\n        /* \"contracts/EtherWallet2.sol\":4949:5032  function setNewOwner(address newOwner) internal {... */\n      pop\n      jump\t// out\n        /* \"#utility.yul\":88:205   */\n    tag_141:\n        /* \"#utility.yul\":197:198   */\n      0x00\n        /* \"#utility.yul\":194:195   */\n      dup1\n        /* \"#utility.yul\":187:199   */\n      revert\n        /* \"#utility.yul\":334:460   */\n    tag_143:\n        /* \"#utility.yul\":371:378   */\n      0x00\n        /* \"#utility.yul\":411:453   */\n      0xffffffffffffffffffffffffffffffffffffffff\n        /* \"#utility.yul\":404:409   */\n      dup3\n        /* \"#utility.yul\":400:454   */\n      and\n        /* \"#utility.yul\":389:454   */\n      swap1\n      pop\n        /* \"#utility.yul\":334:460   */\n      swap2\n      swap1\n      pop\n      jump\t// out\n        /* \"#utility.yul\":466:562   */\n    tag_144:\n        /* \"#utility.yul\":503:510   */\n      0x00\n        /* \"#utility.yul\":532:556   */\n      tag_186\n        /* \"#utility.yul\":550:555   */\n      dup3\n        /* \"#utility.yul\":532:556   */\n      tag_143\n      jump\t// in\n    tag_186:\n        /* \"#utility.yul\":521:556   */\n      swap1\n      pop\n        /* \"#utility.yul\":466:562   */\n      swap2\n      swap1\n      pop\n      jump\t// out\n        /* \"#utility.yul\":568:690   */\n    tag_145:\n        /* \"#utility.yul\":641:665   */\n      tag_188\n        /* \"#utility.yul\":659:664   */\n      dup2\n        /* \"#utility.yul\":641:665   */\n      tag_144\n      jump\t// in\n    tag_188:\n        /* \"#utility.yul\":634:639   */\n      dup2\n        /* \"#utility.yul\":631:666   */\n      eq\n        /* \"#utility.yul\":621:684   */\n      tag_189\n      jumpi\n        /* \"#utility.yul\":680:681   */\n      0x00\n        /* \"#utility.yul\":677:678   */\n      dup1\n        /* \"#utility.yul\":670:682   */\n      revert\n        /* \"#utility.yul\":621:684   */\n    tag_189:\n        /* \"#utility.yul\":568:690   */\n      pop\n      jump\t// out\n        /* \"#utility.yul\":696:835   */\n    tag_146:\n        /* \"#utility.yul\":742:747   */\n      0x00\n        /* \"#utility.yul\":780:786   */\n      dup2\n        /* \"#utility.yul\":767:787   */\n      calldataload\n        /* \"#utility.yul\":758:787   */\n      swap1\n      pop\n        /* \"#utility.yul\":796:829   */\n      tag_191\n        /* \"#utility.yul\":823:828   */\n      dup2\n        /* \"#utility.yul\":796:829   */\n      tag_145\n      jump\t// in\n    tag_191:\n        /* \"#utility.yul\":696:835   */\n      swap3\n      swap2\n      pop\n      pop\n      jump\t// out\n        /* \"#utility.yul\":841:1170   */\n    tag_25:\n        /* \"#utility.yul\":900:906   */\n      0x00\n        /* \"#utility.yul\":949:951   */\n      0x20\n        /* \"#utility.yul\":937:946   */\n      dup3\n        /* \"#utility.yul\":928:935   */\n      dup5\n        /* \"#utility.yul\":924:947   */\n      sub\n        /* \"#utility.yul\":920:952   */\n      slt\n        /* \"#utility.yul\":917:1036   */\n      iszero\n      tag_193\n      jumpi\n        /* \"#utility.yul\":955:1034   */\n      tag_194\n      tag_141\n      jump\t// in\n    tag_194:\n        /* \"#utility.yul\":917:1036   */\n    tag_193:\n        /* \"#utility.yul\":1075:1076   */\n      0x00\n        /* \"#utility.yul\":1100:1153   */\n      tag_195\n        /* \"#utility.yul\":1145:1152   */\n      dup5\n        /* \"#utility.yul\":1136:1142   */\n      dup3\n        /* \"#utility.yul\":1125:1134   */\n      dup6\n        /* \"#utility.yul\":1121:1143   */\n      add\n        /* \"#utility.yul\":1100:1153   */\n      tag_146\n      jump\t// in\n    tag_195:\n        /* \"#utility.yul\":1090:1153   */\n      swap2\n      pop\n        /* \"#utility.yul\":1046:1163   */\n      pop\n        /* \"#utility.yul\":841:1170   */\n      swap3\n      swap2\n      pop\n      pop\n      jump\t// out\n        /* \"#utility.yul\":1176:1253   */\n    tag_147:\n        /* \"#utility.yul\":1213:1220   */\n      0x00\n        /* \"#utility.yul\":1242:1247   */\n      dup2\n        /* \"#utility.yul\":1231:1247   */\n      swap1\n      pop\n        /* \"#utility.yul\":1176:1253   */\n      swap2\n      swap1\n      pop\n      jump\t// out\n        /* \"#utility.yul\":1259:1377   */\n    tag_148:\n        /* \"#utility.yul\":1346:1370   */\n      tag_198\n        /* \"#utility.yul\":1364:1369   */\n      dup2\n        /* \"#utility.yul\":1346:1370   */\n      tag_147\n      jump\t// in\n    tag_198:\n        /* \"#utility.yul\":1341:1344   */\n      dup3\n        /* \"#utility.yul\":1334:1371   */\n      mstore\n        /* \"#utility.yul\":1259:1377   */\n      pop\n      pop\n      jump\t// out\n        /* \"#utility.yul\":1383:1605   */\n    tag_28:\n        /* \"#utility.yul\":1476:1480   */\n      0x00\n        /* \"#utility.yul\":1514:1516   */\n      0x20\n        /* \"#utility.yul\":1503:1512   */\n      dup3\n        /* \"#utility.yul\":1499:1517   */\n      add\n        /* \"#utility.yul\":1491:1517   */\n      swap1\n      pop\n        /* \"#utility.yul\":1527:1598   */\n      tag_200\n        /* \"#utility.yul\":1595:1596   */\n      0x00\n        /* \"#utility.yul\":1584:1593   */\n      dup4\n        /* \"#utility.yul\":1580:1597   */\n      add\n        /* \"#utility.yul\":1571:1577   */\n      dup5\n        /* \"#utility.yul\":1527:1598   */\n      tag_148\n      jump\t// in\n    tag_200:\n        /* \"#utility.yul\":1383:1605   */\n      swap3\n      swap2\n      pop\n      pop\n      jump\t// out\n        /* \"#utility.yul\":1611:1697   */\n    tag_149:\n        /* \"#utility.yul\":1646:1653   */\n      0x00\n        /* \"#utility.yul\":1686:1690   */\n      0xff\n        /* \"#utility.yul\":1679:1684   */\n      dup3\n        /* \"#utility.yul\":1675:1691   */\n      and\n        /* \"#utility.yul\":1664:1691   */\n      swap1\n      pop\n        /* \"#utility.yul\":1611:1697   */\n      swap2\n      swap1\n      pop\n      jump\t// out\n        /* \"#utility.yul\":1703:1815   */\n    tag_150:\n        /* \"#utility.yul\":1786:1808   */\n      tag_203\n        /* \"#utility.yul\":1802:1807   */\n      dup2\n        /* \"#utility.yul\":1786:1808   */\n      tag_149\n      jump\t// in\n    tag_203:\n        /* \"#utility.yul\":1781:1784   */\n      dup3\n        /* \"#utility.yul\":1774:1809   */\n      mstore\n        /* \"#utility.yul\":1703:1815   */\n      pop\n      pop\n      jump\t// out\n        /* \"#utility.yul\":1821:2035   */\n    tag_34:\n        /* \"#utility.yul\":1910:1914   */\n      0x00\n        /* \"#utility.yul\":1948:1950   */\n      0x20\n        /* \"#utility.yul\":1937:1946   */\n      dup3\n        /* \"#utility.yul\":1933:1951   */\n      add\n        /* \"#utility.yul\":1925:1951   */\n      swap1\n      pop\n        /* \"#utility.yul\":1961:2028   */\n      tag_205\n        /* \"#utility.yul\":2025:2026   */\n      0x00\n        /* \"#utility.yul\":2014:2023   */\n      dup4\n        /* \"#utility.yul\":2010:2027   */\n      add\n        /* \"#utility.yul\":2001:2007   */\n      dup5\n        /* \"#utility.yul\":1961:2028   */\n      tag_150\n      jump\t// in\n    tag_205:\n        /* \"#utility.yul\":1821:2035   */\n      swap3\n      swap2\n      pop\n      pop\n      jump\t// out\n        /* \"#utility.yul\":2041:2163   */\n    tag_151:\n        /* \"#utility.yul\":2114:2138   */\n      tag_207\n        /* \"#utility.yul\":2132:2137   */\n      dup2\n        /* \"#utility.yul\":2114:2138   */\n      tag_147\n      jump\t// in\n    tag_207:\n        /* \"#utility.yul\":2107:2112   */\n      dup2\n        /* \"#utility.yul\":2104:2139   */\n      eq\n        /* \"#utility.yul\":2094:2157   */\n      tag_208\n      jumpi\n        /* \"#utility.yul\":2153:2154   */\n      0x00\n        /* \"#utility.yul\":2150:2151   */\n      dup1\n        /* \"#utility.yul\":2143:2155   */\n      revert\n        /* \"#utility.yul\":2094:2157   */\n    tag_208:\n        /* \"#utility.yul\":2041:2163   */\n      pop\n      jump\t// out\n        /* \"#utility.yul\":2169:2308   */\n    tag_152:\n        /* \"#utility.yul\":2215:2220   */\n      0x00\n        /* \"#utility.yul\":2253:2259   */\n      dup2\n        /* \"#utility.yul\":2240:2260   */\n      calldataload\n        /* \"#utility.yul\":2231:2260   */\n      swap1\n      pop\n        /* \"#utility.yul\":2269:2302   */\n      tag_210\n        /* \"#utility.yul\":2296:2301   */\n      dup2\n        /* \"#utility.yul\":2269:2302   */\n      tag_151\n      jump\t// in\n    tag_210:\n        /* \"#utility.yul\":2169:2308   */\n      swap3\n      swap2\n      pop\n      pop\n      jump\t// out\n        /* \"#utility.yul\":2314:2788   */\n    tag_43:\n        /* \"#utility.yul\":2382:2388   */\n      0x00\n        /* \"#utility.yul\":2390:2396   */\n      dup1\n        /* \"#utility.yul\":2439:2441   */\n      0x40\n        /* \"#utility.yul\":2427:2436   */\n      dup4\n        /* \"#utility.yul\":2418:2425   */\n      dup6\n        /* \"#utility.yul\":2414:2437   */\n      sub\n        /* \"#utility.yul\":2410:2442   */\n      slt\n        /* \"#utility.yul\":2407:2526   */\n      iszero\n      tag_212\n      jumpi\n        /* \"#utility.yul\":2445:2524   */\n      tag_213\n      tag_141\n      jump\t// in\n    tag_213:\n        /* \"#utility.yul\":2407:2526   */\n    tag_212:\n        /* \"#utility.yul\":2565:2566   */\n      0x00\n        /* \"#utility.yul\":2590:2643   */\n      tag_214\n        /* \"#utility.yul\":2635:2642   */\n      dup6\n        /* \"#utility.yul\":2626:2632   */\n      dup3\n        /* \"#utility.yul\":2615:2624   */\n      dup7\n        /* \"#utility.yul\":2611:2633   */\n      add\n        /* \"#utility.yul\":2590:2643   */\n      tag_146\n      jump\t// in\n    tag_214:\n        /* \"#utility.yul\":2580:2643   */\n      swap3\n      pop\n        /* \"#utility.yul\":2536:2653   */\n      pop\n        /* \"#utility.yul\":2692:2694   */\n      0x20\n        /* \"#utility.yul\":2718:2771   */\n      tag_215\n        /* \"#utility.yul\":2763:2770   */\n      dup6\n        /* \"#utility.yul\":2754:2760   */\n      dup3\n        /* \"#utility.yul\":2743:2752   */\n      dup7\n        /* \"#utility.yul\":2739:2761   */\n      add\n        /* \"#utility.yul\":2718:2771   */\n      tag_152\n      jump\t// in\n    tag_215:\n        /* \"#utility.yul\":2708:2771   */\n      swap2\n      pop\n        /* \"#utility.yul\":2663:2781   */\n      pop\n        /* \"#utility.yul\":2314:2788   */\n      swap3\n      pop\n      swap3\n      swap1\n      pop\n      jump\t// out\n        /* \"#utility.yul\":2794:2912   */\n    tag_153:\n        /* \"#utility.yul\":2881:2905   */\n      tag_217\n        /* \"#utility.yul\":2899:2904   */\n      dup2\n        /* \"#utility.yul\":2881:2905   */\n      tag_144\n      jump\t// in\n    tag_217:\n        /* \"#utility.yul\":2876:2879   */\n      dup3\n        /* \"#utility.yul\":2869:2906   */\n      mstore\n        /* \"#utility.yul\":2794:2912   */\n      pop\n      pop\n      jump\t// out\n        /* \"#utility.yul\":2918:3140   */\n    tag_53:\n        /* \"#utility.yul\":3011:3015   */\n      0x00\n        /* \"#utility.yul\":3049:3051   */\n      0x20\n        /* \"#utility.yul\":3038:3047   */\n      dup3\n        /* \"#utility.yul\":3034:3052   */\n      add\n        /* \"#utility.yul\":3026:3052   */\n      swap1\n      pop\n        /* \"#utility.yul\":3062:3133   */\n      tag_219\n        /* \"#utility.yul\":3130:3131   */\n      0x00\n        /* \"#utility.yul\":3119:3128   */\n      dup4\n        /* \"#utility.yul\":3115:3132   */\n      add\n        /* \"#utility.yul\":3106:3112   */\n      dup5\n        /* \"#utility.yul\":3062:3133   */\n      tag_153\n      jump\t// in\n    tag_219:\n        /* \"#utility.yul\":2918:3140   */\n      swap3\n      swap2\n      pop\n      pop\n      jump\t// out\n        /* \"#utility.yul\":3146:3236   */\n    tag_154:\n        /* \"#utility.yul\":3180:3187   */\n      0x00\n        /* \"#utility.yul\":3223:3228   */\n      dup2\n        /* \"#utility.yul\":3216:3229   */\n      iszero\n        /* \"#utility.yul\":3209:3230   */\n      iszero\n        /* \"#utility.yul\":3198:3230   */\n      swap1\n      pop\n        /* \"#utility.yul\":3146:3236   */\n      swap2\n      swap1\n      pop\n      jump\t// out\n        /* \"#utility.yul\":3242:3351   */\n    tag_155:\n        /* \"#utility.yul\":3323:3344   */\n      tag_222\n        /* \"#utility.yul\":3338:3343   */\n      dup2\n        /* \"#utility.yul\":3323:3344   */\n      tag_154\n      jump\t// in\n    tag_222:\n        /* \"#utility.yul\":3318:3321   */\n      dup3\n        /* \"#utility.yul\":3311:3345   */\n      mstore\n        /* \"#utility.yul\":3242:3351   */\n      pop\n      pop\n      jump\t// out\n        /* \"#utility.yul\":3357:3567   */\n    tag_59:\n        /* \"#utility.yul\":3444:3448   */\n      0x00\n        /* \"#utility.yul\":3482:3484   */\n      0x20\n        /* \"#utility.yul\":3471:3480   */\n      dup3\n        /* \"#utility.yul\":3467:3485   */\n      add\n        /* \"#utility.yul\":3459:3485   */\n      swap1\n      pop\n        /* \"#utility.yul\":3495:3560   */\n      tag_224\n        /* \"#utility.yul\":3557:3558   */\n      0x00\n        /* \"#utility.yul\":3546:3555   */\n      dup4\n        /* \"#utility.yul\":3542:3559   */\n      add\n        /* \"#utility.yul\":3533:3539   */\n      dup5\n        /* \"#utility.yul\":3495:3560   */\n      tag_155\n      jump\t// in\n    tag_224:\n        /* \"#utility.yul\":3357:3567   */\n      swap3\n      swap2\n      pop\n      pop\n      jump\t// out\n        /* \"#utility.yul\":3573:3677   */\n    tag_156:\n        /* \"#utility.yul\":3618:3625   */\n      0x00\n        /* \"#utility.yul\":3647:3671   */\n      tag_226\n        /* \"#utility.yul\":3665:3670   */\n      dup3\n        /* \"#utility.yul\":3647:3671   */\n      tag_143\n      jump\t// in\n    tag_226:\n        /* \"#utility.yul\":3636:3671   */\n      swap1\n      pop\n        /* \"#utility.yul\":3573:3677   */\n      swap2\n      swap1\n      pop\n      jump\t// out\n        /* \"#utility.yul\":3683:3821   */\n    tag_157:\n        /* \"#utility.yul\":3764:3796   */\n      tag_228\n        /* \"#utility.yul\":3790:3795   */\n      dup2\n        /* \"#utility.yul\":3764:3796   */\n      tag_156\n      jump\t// in\n    tag_228:\n        /* \"#utility.yul\":3757:3762   */\n      dup2\n        /* \"#utility.yul\":3754:3797   */\n      eq\n        /* \"#utility.yul\":3744:3815   */\n      tag_229\n      jumpi\n        /* \"#utility.yul\":3811:3812   */\n      0x00\n        /* \"#utility.yul\":3808:3809   */\n      dup1\n        /* \"#utility.yul\":3801:3813   */\n      revert\n        /* \"#utility.yul\":3744:3815   */\n    tag_229:\n        /* \"#utility.yul\":3683:3821   */\n      pop\n      jump\t// out\n        /* \"#utility.yul\":3827:3982   */\n    tag_158:\n        /* \"#utility.yul\":3881:3886   */\n      0x00\n        /* \"#utility.yul\":3919:3925   */\n      dup2\n        /* \"#utility.yul\":3906:3926   */\n      calldataload\n        /* \"#utility.yul\":3897:3926   */\n      swap1\n      pop\n        /* \"#utility.yul\":3935:3976   */\n      tag_231\n        /* \"#utility.yul\":3970:3975   */\n      dup2\n        /* \"#utility.yul\":3935:3976   */\n      tag_157\n      jump\t// in\n    tag_231:\n        /* \"#utility.yul\":3827:3982   */\n      swap3\n      swap2\n      pop\n      pop\n      jump\t// out\n        /* \"#utility.yul\":3988:4478   */\n    tag_72:\n        /* \"#utility.yul\":4064:4070   */\n      0x00\n        /* \"#utility.yul\":4072:4078   */\n      dup1\n        /* \"#utility.yul\":4121:4123   */\n      0x40\n        /* \"#utility.yul\":4109:4118   */\n      dup4\n        /* \"#utility.yul\":4100:4107   */\n      dup6\n        /* \"#utility.yul\":4096:4119   */\n      sub\n        /* \"#utility.yul\":4092:4124   */\n      slt\n        /* \"#utility.yul\":4089:4208   */\n      iszero\n      tag_233\n      jumpi\n        /* \"#utility.yul\":4127:4206   */\n      tag_234\n      tag_141\n      jump\t// in\n    tag_234:\n        /* \"#utility.yul\":4089:4208   */\n    tag_233:\n        /* \"#utility.yul\":4247:4248   */\n      0x00\n        /* \"#utility.yul\":4272:4333   */\n      tag_235\n        /* \"#utility.yul\":4325:4332   */\n      dup6\n        /* \"#utility.yul\":4316:4322   */\n      dup3\n        /* \"#utility.yul\":4305:4314   */\n      dup7\n        /* \"#utility.yul\":4301:4323   */\n      add\n        /* \"#utility.yul\":4272:4333   */\n      tag_158\n      jump\t// in\n    tag_235:\n        /* \"#utility.yul\":4262:4333   */\n      swap3\n      pop\n        /* \"#utility.yul\":4218:4343   */\n      pop\n        /* \"#utility.yul\":4382:4384   */\n      0x20\n        /* \"#utility.yul\":4408:4461   */\n      tag_236\n        /* \"#utility.yul\":4453:4460   */\n      dup6\n        /* \"#utility.yul\":4444:4450   */\n      dup3\n        /* \"#utility.yul\":4433:4442   */\n      dup7\n        /* \"#utility.yul\":4429:4451   */\n      add\n        /* \"#utility.yul\":4408:4461   */\n      tag_152\n      jump\t// in\n    tag_236:\n        /* \"#utility.yul\":4398:4461   */\n      swap2\n      pop\n        /* \"#utility.yul\":4353:4471   */\n      pop\n        /* \"#utility.yul\":3988:4478   */\n      swap3\n      pop\n      swap3\n      swap1\n      pop\n      jump\t// out\n        /* \"#utility.yul\":4484:4926   */\n    tag_76:\n        /* \"#utility.yul\":4633:4637   */\n      0x00\n        /* \"#utility.yul\":4671:4673   */\n      0x60\n        /* \"#utility.yul\":4660:4669   */\n      dup3\n        /* \"#utility.yul\":4656:4674   */\n      add\n        /* \"#utility.yul\":4648:4674   */\n      swap1\n      pop\n        /* \"#utility.yul\":4684:4755   */\n      tag_238\n        /* \"#utility.yul\":4752:4753   */\n      0x00\n        /* \"#utility.yul\":4741:4750   */\n      dup4\n        /* \"#utility.yul\":4737:4754   */\n      add\n        /* \"#utility.yul\":4728:4734   */\n      dup7\n        /* \"#utility.yul\":4684:4755   */\n      tag_148\n      jump\t// in\n    tag_238:\n        /* \"#utility.yul\":4765:4837   */\n      tag_239\n        /* \"#utility.yul\":4833:4835   */\n      0x20\n        /* \"#utility.yul\":4822:4831   */\n      dup4\n        /* \"#utility.yul\":4818:4836   */\n      add\n        /* \"#utility.yul\":4809:4815   */\n      dup6\n        /* \"#utility.yul\":4765:4837   */\n      tag_148\n      jump\t// in\n    tag_239:\n        /* \"#utility.yul\":4847:4919   */\n      tag_240\n        /* \"#utility.yul\":4915:4917   */\n      0x40\n        /* \"#utility.yul\":4904:4913   */\n      dup4\n        /* \"#utility.yul\":4900:4918   */\n      add\n        /* \"#utility.yul\":4891:4897   */\n      dup5\n        /* \"#utility.yul\":4847:4919   */\n      tag_148\n      jump\t// in\n    tag_240:\n        /* \"#utility.yul\":4484:4926   */\n      swap5\n      swap4\n      pop\n      pop\n      pop\n      pop\n      jump\t// out\n        /* \"#utility.yul\":4932:5112   */\n    tag_84:\n        /* \"#utility.yul\":4980:5057   */\n      0x4e487b7100000000000000000000000000000000000000000000000000000000\n        /* \"#utility.yul\":4977:4978   */\n      0x00\n        /* \"#utility.yul\":4970:5058   */\n      mstore\n        /* \"#utility.yul\":5077:5081   */\n      0x32\n        /* \"#utility.yul\":5074:5075   */\n      0x04\n        /* \"#utility.yul\":5067:5082   */\n      mstore\n        /* \"#utility.yul\":5101:5105   */\n      0x24\n        /* \"#utility.yul\":5098:5099   */\n      0x00\n        /* \"#utility.yul\":5091:5106   */\n      revert\n        /* \"#utility.yul\":5118:5298   */\n    tag_159:\n        /* \"#utility.yul\":5166:5243   */\n      0x4e487b7100000000000000000000000000000000000000000000000000000000\n        /* \"#utility.yul\":5163:5164   */\n      0x00\n        /* \"#utility.yul\":5156:5244   */\n      mstore\n        /* \"#utility.yul\":5263:5267   */\n      0x11\n        /* \"#utility.yul\":5260:5261   */\n      0x04\n        /* \"#utility.yul\":5253:5268   */\n      mstore\n        /* \"#utility.yul\":5287:5291   */\n      0x24\n        /* \"#utility.yul\":5284:5285   */\n      0x00\n        /* \"#utility.yul\":5277:5292   */\n      revert\n        /* \"#utility.yul\":5304:5471   */\n    tag_88:\n        /* \"#utility.yul\":5341:5344   */\n      0x00\n        /* \"#utility.yul\":5364:5386   */\n      tag_244\n        /* \"#utility.yul\":5380:5385   */\n      dup3\n        /* \"#utility.yul\":5364:5386   */\n      tag_149\n      jump\t// in\n    tag_244:\n        /* \"#utility.yul\":5355:5386   */\n      swap2\n      pop\n        /* \"#utility.yul\":5408:5412   */\n      0xff\n        /* \"#utility.yul\":5401:5406   */\n      dup3\n        /* \"#utility.yul\":5398:5413   */\n      sub\n        /* \"#utility.yul\":5395:5436   */\n      tag_245\n      jumpi\n        /* \"#utility.yul\":5416:5434   */\n      tag_246\n      tag_159\n      jump\t// in\n    tag_246:\n        /* \"#utility.yul\":5395:5436   */\n    tag_245:\n        /* \"#utility.yul\":5463:5464   */\n      0x01\n        /* \"#utility.yul\":5456:5461   */\n      dup3\n        /* \"#utility.yul\":5452:5465   */\n      add\n        /* \"#utility.yul\":5445:5465   */\n      swap1\n      pop\n        /* \"#utility.yul\":5304:5471   */\n      swap2\n      swap1\n      pop\n      jump\t// out\n        /* \"#utility.yul\":5477:5710   */\n    tag_90:\n        /* \"#utility.yul\":5516:5519   */\n      0x00\n        /* \"#utility.yul\":5539:5563   */\n      tag_248\n        /* \"#utility.yul\":5557:5562   */\n      dup3\n        /* \"#utility.yul\":5539:5563   */\n      tag_147\n      jump\t// in\n    tag_248:\n        /* \"#utility.yul\":5530:5563   */\n      swap2\n      pop\n        /* \"#utility.yul\":5585:5651   */\n      0xffffffffffffffffffffffffffffffffffffffffffffffffffffffffffffffff\n        /* \"#utility.yul\":5578:5583   */\n      dup3\n        /* \"#utility.yul\":5575:5652   */\n      sub\n        /* \"#utility.yul\":5572:5675   */\n      tag_249\n      jumpi\n        /* \"#utility.yul\":5655:5673   */\n      tag_250\n      tag_159\n      jump\t// in\n    tag_250:\n        /* \"#utility.yul\":5572:5675   */\n    tag_249:\n        /* \"#utility.yul\":5702:5703   */\n      0x01\n        /* \"#utility.yul\":5695:5700   */\n      dup3\n        /* \"#utility.yul\":5691:5704   */\n      add\n        /* \"#utility.yul\":5684:5704   */\n      swap1\n      pop\n        /* \"#utility.yul\":5477:5710   */\n      swap2\n      swap1\n      pop\n      jump\t// out\n        /* \"#utility.yul\":5716:5885   */\n    tag_160:\n        /* \"#utility.yul\":5800:5811   */\n      0x00\n        /* \"#utility.yul\":5834:5840   */\n      dup3\n        /* \"#utility.yul\":5829:5832   */\n      dup3\n        /* \"#utility.yul\":5822:5841   */\n      mstore\n        /* \"#utility.yul\":5874:5878   */\n      0x20\n        /* \"#utility.yul\":5869:5872   */\n      dup3\n        /* \"#utility.yul\":5865:5879   */\n      add\n        /* \"#utility.yul\":5850:5879   */\n      swap1\n      pop\n        /* \"#utility.yul\":5716:5885   */\n      swap3\n      swap2\n      pop\n      pop\n      jump\t// out\n        /* \"#utility.yul\":5891:6141   */\n    tag_161:\n        /* \"#utility.yul\":6031:6065   */\n      0x4f6e6c792077616c6c657420477561726469616e732061726520616c6c6f7765\n        /* \"#utility.yul\":6027:6028   */\n      0x00\n        /* \"#utility.yul\":6019:6025   */\n      dup3\n        /* \"#utility.yul\":6015:6029   */\n      add\n        /* \"#utility.yul\":6008:6066   */\n      mstore\n        /* \"#utility.yul\":6100:6133   */\n      0x6420746f20766f746520666f72206e65772077616c6c6574206f776e65722e00\n        /* \"#utility.yul\":6095:6097   */\n      0x20\n        /* \"#utility.yul\":6087:6093   */\n      dup3\n        /* \"#utility.yul\":6083:6098   */\n      add\n        /* \"#utility.yul\":6076:6134   */\n      mstore\n        /* \"#utility.yul\":5891:6141   */\n      pop\n      jump\t// out\n        /* \"#utility.yul\":6147:6513   */\n    tag_162:\n        /* \"#utility.yul\":6289:6292   */\n      0x00\n        /* \"#utility.yul\":6310:6377   */\n      tag_254\n        /* \"#utility.yul\":6374:6376   */\n      0x3f\n        /* \"#utility.yul\":6369:6372   */\n      dup4\n        /* \"#utility.yul\":6310:6377   */\n      tag_160\n      jump\t// in\n    tag_254:\n        /* \"#utility.yul\":6303:6377   */\n      swap2\n      pop\n        /* \"#utility.yul\":6386:6479   */\n      tag_255\n        /* \"#utility.yul\":6475:6478   */\n      dup3\n        /* \"#utility.yul\":6386:6479   */\n      tag_161\n      jump\t// in\n    tag_255:\n        /* \"#utility.yul\":6504:6506   */\n      0x40\n        /* \"#utility.yul\":6499:6502   */\n      dup3\n        /* \"#utility.yul\":6495:6507   */\n      add\n        /* \"#utility.yul\":6488:6507   */\n      swap1\n      pop\n        /* \"#utility.yul\":6147:6513   */\n      swap2\n      swap1\n      pop\n      jump\t// out\n        /* \"#utility.yul\":6519:6938   */\n    tag_95:\n        /* \"#utility.yul\":6685:6689   */\n      0x00\n        /* \"#utility.yul\":6723:6725   */\n      0x20\n        /* \"#utility.yul\":6712:6721   */\n      dup3\n        /* \"#utility.yul\":6708:6726   */\n      add\n        /* \"#utility.yul\":6700:6726   */\n      swap1\n      pop\n        /* \"#utility.yul\":6772:6781   */\n      dup2\n        /* \"#utility.yul\":6766:6770   */\n      dup2\n        /* \"#utility.yul\":6762:6782   */\n      sub\n        /* \"#utility.yul\":6758:6759   */\n      0x00\n        /* \"#utility.yul\":6747:6756   */\n      dup4\n        /* \"#utility.yul\":6743:6760   */\n      add\n        /* \"#utility.yul\":6736:6783   */\n      mstore\n        /* \"#utility.yul\":6800:6931   */\n      tag_257\n        /* \"#utility.yul\":6926:6930   */\n      dup2\n        /* \"#utility.yul\":6800:6931   */\n      tag_162\n      jump\t// in\n    tag_257:\n        /* \"#utility.yul\":6792:6931   */\n      swap1\n      pop\n        /* \"#utility.yul\":6519:6938   */\n      swap2\n      swap1\n      pop\n      jump\t// out\n        /* \"#utility.yul\":6944:7166   */\n    tag_163:\n        /* \"#utility.yul\":7084:7118   */\n      0x4164647265737320697320616c7265616479207468652077616c6c6574206f77\n        /* \"#utility.yul\":7080:7081   */\n      0x00\n        /* \"#utility.yul\":7072:7078   */\n      dup3\n        /* \"#utility.yul\":7068:7082   */\n      add\n        /* \"#utility.yul\":7061:7119   */\n      mstore\n        /* \"#utility.yul\":7153:7158   */\n      0x6e65720000000000000000000000000000000000000000000000000000000000\n        /* \"#utility.yul\":7148:7150   */\n      0x20\n        /* \"#utility.yul\":7140:7146   */\n      dup3\n        /* \"#utility.yul\":7136:7151   */\n      add\n        /* \"#utility.yul\":7129:7159   */\n      mstore\n        /* \"#utility.yul\":6944:7166   */\n      pop\n      jump\t// out\n        /* \"#utility.yul\":7172:7538   */\n    tag_164:\n        /* \"#utility.yul\":7314:7317   */\n      0x00\n        /* \"#utility.yul\":7335:7402   */\n      tag_260\n        /* \"#utility.yul\":7399:7401   */\n      0x23\n        /* \"#utility.yul\":7394:7397   */\n      dup4\n        /* \"#utility.yul\":7335:7402   */\n      tag_160\n      jump\t// in\n    tag_260:\n        /* \"#utility.yul\":7328:7402   */\n      swap2\n      pop\n        /* \"#utility.yul\":7411:7504   */\n      tag_261\n        /* \"#utility.yul\":7500:7503   */\n      dup3\n        /* \"#utility.yul\":7411:7504   */\n      tag_163\n      jump\t// in\n    tag_261:\n        /* \"#utility.yul\":7529:7531   */\n      0x40\n        /* \"#utility.yul\":7524:7527   */\n      dup3\n        /* \"#utility.yul\":7520:7532   */\n      add\n        /* \"#utility.yul\":7513:7532   */\n      swap1\n      pop\n        /* \"#utility.yul\":7172:7538   */\n      swap2\n      swap1\n      pop\n      jump\t// out\n        /* \"#utility.yul\":7544:7963   */\n    tag_99:\n        /* \"#utility.yul\":7710:7714   */\n      0x00\n        /* \"#utility.yul\":7748:7750   */\n      0x20\n        /* \"#utility.yul\":7737:7746   */\n      dup3\n        /* \"#utility.yul\":7733:7751   */\n      add\n        /* \"#utility.yul\":7725:7751   */\n      swap1\n      pop\n        /* \"#utility.yul\":7797:7806   */\n      dup2\n        /* \"#utility.yul\":7791:7795   */\n      dup2\n        /* \"#utility.yul\":7787:7807   */\n      sub\n        /* \"#utility.yul\":7783:7784   */\n      0x00\n        /* \"#utility.yul\":7772:7781   */\n      dup4\n        /* \"#utility.yul\":7768:7785   */\n      add\n        /* \"#utility.yul\":7761:7808   */\n      mstore\n        /* \"#utility.yul\":7825:7956   */\n      tag_263\n        /* \"#utility.yul\":7951:7955   */\n      dup2\n        /* \"#utility.yul\":7825:7956   */\n      tag_164\n      jump\t// in\n    tag_263:\n        /* \"#utility.yul\":7817:7956   */\n      swap1\n      pop\n        /* \"#utility.yul\":7544:7963   */\n      swap2\n      swap1\n      pop\n      jump\t// out\n        /* \"#utility.yul\":7969:8197   */\n    tag_165:\n        /* \"#utility.yul\":8109:8143   */\n      0x596f75206861766520616c726561647920766f74656420666f72207468697320\n        /* \"#utility.yul\":8105:8106   */\n      0x00\n        /* \"#utility.yul\":8097:8103   */\n      dup3\n        /* \"#utility.yul\":8093:8107   */\n      add\n        /* \"#utility.yul\":8086:8144   */\n      mstore\n        /* \"#utility.yul\":8178:8189   */\n      0x63616e6469646174650000000000000000000000000000000000000000000000\n        /* \"#utility.yul\":8173:8175   */\n      0x20\n        /* \"#utility.yul\":8165:8171   */\n      dup3\n        /* \"#utility.yul\":8161:8176   */\n      add\n        /* \"#utility.yul\":8154:8190   */\n      mstore\n        /* \"#utility.yul\":7969:8197   */\n      pop\n      jump\t// out\n        /* \"#utility.yul\":8203:8569   */\n    tag_166:\n        /* \"#utility.yul\":8345:8348   */\n      0x00\n        /* \"#utility.yul\":8366:8433   */\n      tag_266\n        /* \"#utility.yul\":8430:8432   */\n      0x29\n        /* \"#utility.yul\":8425:8428   */\n      dup4\n        /* \"#utility.yul\":8366:8433   */\n      tag_160\n      jump\t// in\n    tag_266:\n        /* \"#utility.yul\":8359:8433   */\n      swap2\n      pop\n        /* \"#utility.yul\":8442:8535   */\n      tag_267\n        /* \"#utility.yul\":8531:8534   */\n      dup3\n        /* \"#utility.yul\":8442:8535   */\n      tag_165\n      jump\t// in\n    tag_267:\n        /* \"#utility.yul\":8560:8562   */\n      0x40\n        /* \"#utility.yul\":8555:8558   */\n      dup3\n        /* \"#utility.yul\":8551:8563   */\n      add\n        /* \"#utility.yul\":8544:8563   */\n      swap1\n      pop\n        /* \"#utility.yul\":8203:8569   */\n      swap2\n      swap1\n      pop\n      jump\t// out\n        /* \"#utility.yul\":8575:8994   */\n    tag_102:\n        /* \"#utility.yul\":8741:8745   */\n      0x00\n        /* \"#utility.yul\":8779:8781   */\n      0x20\n        /* \"#utility.yul\":8768:8777   */\n      dup3\n        /* \"#utility.yul\":8764:8782   */\n      add\n        /* \"#utility.yul\":8756:8782   */\n      swap1\n      pop\n        /* \"#utility.yul\":8828:8837   */\n      dup2\n        /* \"#utility.yul\":8822:8826   */\n      dup2\n        /* \"#utility.yul\":8818:8838   */\n      sub\n        /* \"#utility.yul\":8814:8815   */\n      0x00\n        /* \"#utility.yul\":8803:8812   */\n      dup4\n        /* \"#utility.yul\":8799:8816   */\n      add\n        /* \"#utility.yul\":8792:8839   */\n      mstore\n        /* \"#utility.yul\":8856:8987   */\n      tag_269\n        /* \"#utility.yul\":8982:8986   */\n      dup2\n        /* \"#utility.yul\":8856:8987   */\n      tag_166\n      jump\t// in\n    tag_269:\n        /* \"#utility.yul\":8848:8987   */\n      swap1\n      pop\n        /* \"#utility.yul\":8575:8994   */\n      swap2\n      swap1\n      pop\n      jump\t// out\n        /* \"#utility.yul\":9000:9227   */\n    tag_167:\n        /* \"#utility.yul\":9140:9174   */\n      0x596f75206d7573742062652077616c6c6574206f776e657220666f7220746869\n        /* \"#utility.yul\":9136:9137   */\n      0x00\n        /* \"#utility.yul\":9128:9134   */\n      dup3\n        /* \"#utility.yul\":9124:9138   */\n      add\n        /* \"#utility.yul\":9117:9175   */\n      mstore\n        /* \"#utility.yul\":9209:9219   */\n      0x7320616374696f6e000000000000000000000000000000000000000000000000\n        /* \"#utility.yul\":9204:9206   */\n      0x20\n        /* \"#utility.yul\":9196:9202   */\n      dup3\n        /* \"#utility.yul\":9192:9207   */\n      add\n        /* \"#utility.yul\":9185:9220   */\n      mstore\n        /* \"#utility.yul\":9000:9227   */\n      pop\n      jump\t// out\n        /* \"#utility.yul\":9233:9599   */\n    tag_168:\n        /* \"#utility.yul\":9375:9378   */\n      0x00\n        /* \"#utility.yul\":9396:9463   */\n      tag_272\n        /* \"#utility.yul\":9460:9462   */\n      0x28\n        /* \"#utility.yul\":9455:9458   */\n      dup4\n        /* \"#utility.yul\":9396:9463   */\n      tag_160\n      jump\t// in\n    tag_272:\n        /* \"#utility.yul\":9389:9463   */\n      swap2\n      pop\n        /* \"#utility.yul\":9472:9565   */\n      tag_273\n        /* \"#utility.yul\":9561:9564   */\n      dup3\n        /* \"#utility.yul\":9472:9565   */\n      tag_167\n      jump\t// in\n    tag_273:\n        /* \"#utility.yul\":9590:9592   */\n      0x40\n        /* \"#utility.yul\":9585:9588   */\n      dup3\n        /* \"#utility.yul\":9581:9593   */\n      add\n        /* \"#utility.yul\":9574:9593   */\n      swap1\n      pop\n        /* \"#utility.yul\":9233:9599   */\n      swap2\n      swap1\n      pop\n      jump\t// out\n        /* \"#utility.yul\":9605:10024   */\n    tag_113:\n        /* \"#utility.yul\":9771:9775   */\n      0x00\n        /* \"#utility.yul\":9809:9811   */\n      0x20\n        /* \"#utility.yul\":9798:9807   */\n      dup3\n        /* \"#utility.yul\":9794:9812   */\n      add\n        /* \"#utility.yul\":9786:9812   */\n      swap1\n      pop\n        /* \"#utility.yul\":9858:9867   */\n      dup2\n        /* \"#utility.yul\":9852:9856   */\n      dup2\n        /* \"#utility.yul\":9848:9868   */\n      sub\n        /* \"#utility.yul\":9844:9845   */\n      0x00\n        /* \"#utility.yul\":9833:9842   */\n      dup4\n        /* \"#utility.yul\":9829:9846   */\n      add\n        /* \"#utility.yul\":9822:9869   */\n      mstore\n        /* \"#utility.yul\":9886:10017   */\n      tag_275\n        /* \"#utility.yul\":10012:10016   */\n      dup2\n        /* \"#utility.yul\":9886:10017   */\n      tag_168\n      jump\t// in\n    tag_275:\n        /* \"#utility.yul\":9878:10017   */\n      swap1\n      pop\n        /* \"#utility.yul\":9605:10024   */\n      swap2\n      swap1\n      pop\n      jump\t// out\n        /* \"#utility.yul\":10030:10209   */\n    tag_169:\n        /* \"#utility.yul\":10170:10201   */\n      0x4164647265737320697320616c7265616479206120677561726469616e000000\n        /* \"#utility.yul\":10166:10167   */\n      0x00\n        /* \"#utility.yul\":10158:10164   */\n      dup3\n        /* \"#utility.yul\":10154:10168   */\n      add\n        /* \"#utility.yul\":10147:10202   */\n      mstore\n        /* \"#utility.yul\":10030:10209   */\n      pop\n      jump\t// out\n        /* \"#utility.yul\":10215:10581   */\n    tag_170:\n        /* \"#utility.yul\":10357:10360   */\n      0x00\n        /* \"#utility.yul\":10378:10445   */\n      tag_278\n        /* \"#utility.yul\":10442:10444   */\n      0x1d\n        /* \"#utility.yul\":10437:10440   */\n      dup4\n        /* \"#utility.yul\":10378:10445   */\n      tag_160\n      jump\t// in\n    tag_278:\n        /* \"#utility.yul\":10371:10445   */\n      swap2\n      pop\n        /* \"#utility.yul\":10454:10547   */\n      tag_279\n        /* \"#utility.yul\":10543:10546   */\n      dup3\n        /* \"#utility.yul\":10454:10547   */\n      tag_169\n      jump\t// in\n    tag_279:\n        /* \"#utility.yul\":10572:10574   */\n      0x20\n        /* \"#utility.yul\":10567:10570   */\n      dup3\n        /* \"#utility.yul\":10563:10575   */\n      add\n        /* \"#utility.yul\":10556:10575   */\n      swap1\n      pop\n        /* \"#utility.yul\":10215:10581   */\n      swap2\n      swap1\n      pop\n      jump\t// out\n        /* \"#utility.yul\":10587:11006   */\n    tag_117:\n        /* \"#utility.yul\":10753:10757   */\n      0x00\n        /* \"#utility.yul\":10791:10793   */\n      0x20\n        /* \"#utility.yul\":10780:10789   */\n      dup3\n        /* \"#utility.yul\":10776:10794   */\n      add\n        /* \"#utility.yul\":10768:10794   */\n      swap1\n      pop\n        /* \"#utility.yul\":10840:10849   */\n      dup2\n        /* \"#utility.yul\":10834:10838   */\n      dup2\n        /* \"#utility.yul\":10830:10850   */\n      sub\n        /* \"#utility.yul\":10826:10827   */\n      0x00\n        /* \"#utility.yul\":10815:10824   */\n      dup4\n        /* \"#utility.yul\":10811:10828   */\n      add\n        /* \"#utility.yul\":10804:10851   */\n      mstore\n        /* \"#utility.yul\":10868:10999   */\n      tag_281\n        /* \"#utility.yul\":10994:10998   */\n      dup2\n        /* \"#utility.yul\":10868:10999   */\n      tag_170\n      jump\t// in\n    tag_281:\n        /* \"#utility.yul\":10860:10999   */\n      swap1\n      pop\n        /* \"#utility.yul\":10587:11006   */\n      swap2\n      swap1\n      pop\n      jump\t// out\n        /* \"#utility.yul\":11012:11302   */\n    tag_171:\n        /* \"#utility.yul\":11152:11186   */\n      0x576974686472617720616d6f756e74206973206c6172676572207468616e2061\n        /* \"#utility.yul\":11148:11149   */\n      0x00\n        /* \"#utility.yul\":11140:11146   */\n      dup3\n        /* \"#utility.yul\":11136:11150   */\n      add\n        /* \"#utility.yul\":11129:11187   */\n      mstore\n        /* \"#utility.yul\":11221:11255   */\n      0x6c6c6f77616e63652c20696e63726561736520796f757220616c6c6f77616e63\n        /* \"#utility.yul\":11216:11218   */\n      0x20\n        /* \"#utility.yul\":11208:11214   */\n      dup3\n        /* \"#utility.yul\":11204:11219   */\n      add\n        /* \"#utility.yul\":11197:11256   */\n      mstore\n        /* \"#utility.yul\":11290:11294   */\n      0x652e000000000000000000000000000000000000000000000000000000000000\n        /* \"#utility.yul\":11285:11287   */\n      0x40\n        /* \"#utility.yul\":11277:11283   */\n      dup3\n        /* \"#utility.yul\":11273:11288   */\n      add\n        /* \"#utility.yul\":11266:11295   */\n      mstore\n        /* \"#utility.yul\":11012:11302   */\n      pop\n      jump\t// out\n        /* \"#utility.yul\":11308:11674   */\n    tag_172:\n        /* \"#utility.yul\":11450:11453   */\n      0x00\n        /* \"#utility.yul\":11471:11538   */\n      tag_284\n        /* \"#utility.yul\":11535:11537   */\n      0x42\n        /* \"#utility.yul\":11530:11533   */\n      dup4\n        /* \"#utility.yul\":11471:11538   */\n      tag_160\n      jump\t// in\n    tag_284:\n        /* \"#utility.yul\":11464:11538   */\n      swap2\n      pop\n        /* \"#utility.yul\":11547:11640   */\n      tag_285\n        /* \"#utility.yul\":11636:11639   */\n      dup3\n        /* \"#utility.yul\":11547:11640   */\n      tag_171\n      jump\t// in\n    tag_285:\n        /* \"#utility.yul\":11665:11667   */\n      0x60\n        /* \"#utility.yul\":11660:11663   */\n      dup3\n        /* \"#utility.yul\":11656:11668   */\n      add\n        /* \"#utility.yul\":11649:11668   */\n      swap1\n      pop\n        /* \"#utility.yul\":11308:11674   */\n      swap2\n      swap1\n      pop\n      jump\t// out\n        /* \"#utility.yul\":11680:12099   */\n    tag_123:\n        /* \"#utility.yul\":11846:11850   */\n      0x00\n        /* \"#utility.yul\":11884:11886   */\n      0x20\n        /* \"#utility.yul\":11873:11882   */\n      dup3\n        /* \"#utility.yul\":11869:11887   */\n      add\n        /* \"#utility.yul\":11861:11887   */\n      swap1\n      pop\n        /* \"#utility.yul\":11933:11942   */\n      dup2\n        /* \"#utility.yul\":11927:11931   */\n      dup2\n        /* \"#utility.yul\":11923:11943   */\n      sub\n        /* \"#utility.yul\":11919:11920   */\n      0x00\n        /* \"#utility.yul\":11908:11917   */\n      dup4\n        /* \"#utility.yul\":11904:11921   */\n      add\n        /* \"#utility.yul\":11897:11944   */\n      mstore\n        /* \"#utility.yul\":11961:12092   */\n      tag_287\n        /* \"#utility.yul\":12087:12091   */\n      dup2\n        /* \"#utility.yul\":11961:12092   */\n      tag_172\n      jump\t// in\n    tag_287:\n        /* \"#utility.yul\":11953:12092   */\n      swap1\n      pop\n        /* \"#utility.yul\":11680:12099   */\n      swap2\n      swap1\n      pop\n      jump\t// out\n        /* \"#utility.yul\":12105:12275   */\n    tag_173:\n        /* \"#utility.yul\":12245:12267   */\n      0x496e73756666696369656e742062616c616e6365000000000000000000000000\n        /* \"#utility.yul\":12241:12242   */\n      0x00\n        /* \"#utility.yul\":12233:12239   */\n      dup3\n        /* \"#utility.yul\":12229:12243   */\n      add\n        /* \"#utility.yul\":12222:12268   */\n      mstore\n        /* \"#utility.yul\":12105:12275   */\n      pop\n      jump\t// out\n        /* \"#utility.yul\":12281:12647   */\n    tag_174:\n        /* \"#utility.yul\":12423:12426   */\n      0x00\n        /* \"#utility.yul\":12444:12511   */\n      tag_290\n        /* \"#utility.yul\":12508:12510   */\n      0x14\n        /* \"#utility.yul\":12503:12506   */\n      dup4\n        /* \"#utility.yul\":12444:12511   */\n      tag_160\n      jump\t// in\n    tag_290:\n        /* \"#utility.yul\":12437:12511   */\n      swap2\n      pop\n        /* \"#utility.yul\":12520:12613   */\n      tag_291\n        /* \"#utility.yul\":12609:12612   */\n      dup3\n        /* \"#utility.yul\":12520:12613   */\n      tag_173\n      jump\t// in\n    tag_291:\n        /* \"#utility.yul\":12638:12640   */\n      0x20\n        /* \"#utility.yul\":12633:12636   */\n      dup3\n        /* \"#utility.yul\":12629:12641   */\n      add\n        /* \"#utility.yul\":12622:12641   */\n      swap1\n      pop\n        /* \"#utility.yul\":12281:12647   */\n      swap2\n      swap1\n      pop\n      jump\t// out\n        /* \"#utility.yul\":12653:13072   */\n    tag_126:\n        /* \"#utility.yul\":12819:12823   */\n      0x00\n        /* \"#utility.yul\":12857:12859   */\n      0x20\n        /* \"#utility.yul\":12846:12855   */\n      dup3\n        /* \"#utility.yul\":12842:12860   */\n      add\n        /* \"#utility.yul\":12834:12860   */\n      swap1\n      pop\n        /* \"#utility.yul\":12906:12915   */\n      dup2\n        /* \"#utility.yul\":12900:12904   */\n      dup2\n        /* \"#utility.yul\":12896:12916   */\n      sub\n        /* \"#utility.yul\":12892:12893   */\n      0x00\n        /* \"#utility.yul\":12881:12890   */\n      dup4\n        /* \"#utility.yul\":12877:12894   */\n      add\n        /* \"#utility.yul\":12870:12917   */\n      mstore\n        /* \"#utility.yul\":12934:13065   */\n      tag_293\n        /* \"#utility.yul\":13060:13064   */\n      dup2\n        /* \"#utility.yul\":12934:13065   */\n      tag_174\n      jump\t// in\n    tag_293:\n        /* \"#utility.yul\":12926:13065   */\n      swap1\n      pop\n        /* \"#utility.yul\":12653:13072   */\n      swap2\n      swap1\n      pop\n      jump\t// out\n        /* \"#utility.yul\":13078:13269   */\n    tag_128:\n        /* \"#utility.yul\":13118:13122   */\n      0x00\n        /* \"#utility.yul\":13138:13158   */\n      tag_295\n        /* \"#utility.yul\":13156:13157   */\n      dup3\n        /* \"#utility.yul\":13138:13158   */\n      tag_147\n      jump\t// in\n    tag_295:\n        /* \"#utility.yul\":13133:13158   */\n      swap2\n      pop\n        /* \"#utility.yul\":13172:13192   */\n      tag_296\n        /* \"#utility.yul\":13190:13191   */\n      dup4\n        /* \"#utility.yul\":13172:13192   */\n      tag_147\n      jump\t// in\n    tag_296:\n        /* \"#utility.yul\":13167:13192   */\n      swap3\n      pop\n        /* \"#utility.yul\":13211:13212   */\n      dup3\n        /* \"#utility.yul\":13208:13209   */\n      dup3\n        /* \"#utility.yul\":13205:13213   */\n      lt\n        /* \"#utility.yul\":13202:13236   */\n      iszero\n      tag_297\n      jumpi\n        /* \"#utility.yul\":13216:13234   */\n      tag_298\n      tag_159\n      jump\t// in\n    tag_298:\n        /* \"#utility.yul\":13202:13236   */\n    tag_297:\n        /* \"#utility.yul\":13261:13262   */\n      dup3\n        /* \"#utility.yul\":13258:13259   */\n      dup3\n        /* \"#utility.yul\":13254:13263   */\n      sub\n        /* \"#utility.yul\":13246:13263   */\n      swap1\n      pop\n        /* \"#utility.yul\":13078:13269   */\n      swap3\n      swap2\n      pop\n      pop\n      jump\t// out\n        /* \"#utility.yul\":13275:13422   */\n    tag_175:\n        /* \"#utility.yul\":13376:13387   */\n      0x00\n        /* \"#utility.yul\":13413:13416   */\n      dup2\n        /* \"#utility.yul\":13398:13416   */\n      swap1\n      pop\n        /* \"#utility.yul\":13275:13422   */\n      swap3\n      swap2\n      pop\n      pop\n      jump\t// out\n        /* \"#utility.yul\":13428:13542   */\n    tag_176:\n      pop\n      jump\t// out\n        /* \"#utility.yul\":13548:13946   */\n    tag_177:\n        /* \"#utility.yul\":13707:13710   */\n      0x00\n        /* \"#utility.yul\":13728:13811   */\n      tag_302\n        /* \"#utility.yul\":13809:13810   */\n      0x00\n        /* \"#utility.yul\":13804:13807   */\n      dup4\n        /* \"#utility.yul\":13728:13811   */\n      tag_175\n      jump\t// in\n    tag_302:\n        /* \"#utility.yul\":13721:13811   */\n      swap2\n      pop\n        /* \"#utility.yul\":13820:13913   */\n      tag_303\n        /* \"#utility.yul\":13909:13912   */\n      dup3\n        /* \"#utility.yul\":13820:13913   */\n      tag_176\n      jump\t// in\n    tag_303:\n        /* \"#utility.yul\":13938:13939   */\n      0x00\n        /* \"#utility.yul\":13933:13936   */\n      dup3\n        /* \"#utility.yul\":13929:13940   */\n      add\n        /* \"#utility.yul\":13922:13940   */\n      swap1\n      pop\n        /* \"#utility.yul\":13548:13946   */\n      swap2\n      swap1\n      pop\n      jump\t// out\n        /* \"#utility.yul\":13952:14331   */\n    tag_131:\n        /* \"#utility.yul\":14136:14139   */\n      0x00\n        /* \"#utility.yul\":14158:14305   */\n      tag_305\n        /* \"#utility.yul\":14301:14304   */\n      dup3\n        /* \"#utility.yul\":14158:14305   */\n      tag_177\n      jump\t// in\n    tag_305:\n        /* \"#utility.yul\":14151:14305   */\n      swap2\n      pop\n        /* \"#utility.yul\":14322:14325   */\n      dup2\n        /* \"#utility.yul\":14315:14325   */\n      swap1\n      pop\n        /* \"#utility.yul\":13952:14331   */\n      swap2\n      swap1\n      pop\n      jump\t// out\n        /* \"#utility.yul\":14337:14507   */\n    tag_178:\n        /* \"#utility.yul\":14477:14499   */\n      0x576974686472617720756e73756363657366756c000000000000000000000000\n        /* \"#utility.yul\":14473:14474   */\n      0x00\n        /* \"#utility.yul\":14465:14471   */\n      dup3\n        /* \"#utility.yul\":14461:14475   */\n      add\n        /* \"#utility.yul\":14454:14500   */\n      mstore\n        /* \"#utility.yul\":14337:14507   */\n      pop\n      jump\t// out\n        /* \"#utility.yul\":14513:14879   */\n    tag_179:\n        /* \"#utility.yul\":14655:14658   */\n      0x00\n        /* \"#utility.yul\":14676:14743   */\n      tag_308\n        /* \"#utility.yul\":14740:14742   */\n      0x14\n        /* \"#utility.yul\":14735:14738   */\n      dup4\n        /* \"#utility.yul\":14676:14743   */\n      tag_160\n      jump\t// in\n    tag_308:\n        /* \"#utility.yul\":14669:14743   */\n      swap2\n      pop\n        /* \"#utility.yul\":14752:14845   */\n      tag_309\n        /* \"#utility.yul\":14841:14844   */\n      dup3\n        /* \"#utility.yul\":14752:14845   */\n      tag_178\n      jump\t// in\n    tag_309:\n        /* \"#utility.yul\":14870:14872   */\n      0x20\n        /* \"#utility.yul\":14865:14868   */\n      dup3\n        /* \"#utility.yul\":14861:14873   */\n      add\n        /* \"#utility.yul\":14854:14873   */\n      swap1\n      pop\n        /* \"#utility.yul\":14513:14879   */\n      swap2\n      swap1\n      pop\n      jump\t// out\n        /* \"#utility.yul\":14885:15304   */\n    tag_137:\n        /* \"#utility.yul\":15051:15055   */\n      0x00\n        /* \"#utility.yul\":15089:15091   */\n      0x20\n        /* \"#utility.yul\":15078:15087   */\n      dup3\n        /* \"#utility.yul\":15074:15092   */\n      add\n        /* \"#utility.yul\":15066:15092   */\n      swap1\n      pop\n        /* \"#utility.yul\":15138:15147   */\n      dup2\n        /* \"#utility.yul\":15132:15136   */\n      dup2\n        /* \"#utility.yul\":15128:15148   */\n      sub\n        /* \"#utility.yul\":15124:15125   */\n      0x00\n        /* \"#utility.yul\":15113:15122   */\n      dup4\n        /* \"#utility.yul\":15109:15126   */\n      add\n        /* \"#utility.yul\":15102:15149   */\n      mstore\n        /* \"#utility.yul\":15166:15297   */\n      tag_311\n        /* \"#utility.yul\":15292:15296   */\n      dup2\n        /* \"#utility.yul\":15166:15297   */\n      tag_179\n      jump\t// in\n    tag_311:\n        /* \"#utility.yul\":15158:15297   */\n      swap1\n      pop\n        /* \"#utility.yul\":14885:15304   */\n      swap2\n      swap1\n      pop\n      jump\t// out\n\n    auxdata: 0xa264697066735822122088037a3e00e3022e5534b1eeb6440773bfc90c00b6549cc6bcf2f273e5349a1764736f6c634300080f0033\n}\n",
				"bytecode": {
					"linkReferences": {},
					"object": "608060405234801561001057600080fd5b50336000806101000a81548173ffffffffffffffffffffffffffffffffffffffff021916908373ffffffffffffffffffffffffffffffffffffffff1602179055506001600260003373ffffffffffffffffffffffffffffffffffffffff1673ffffffffffffffffffffffffffffffffffffffff16815260200190815260200160002060006101000a81548160ff0219169083151502179055506001339080600181540180825580915050600190039060005260206000200160009091909190916101000a81548173ffffffffffffffffffffffffffffffffffffffff021916908373ffffffffffffffffffffffffffffffffffffffff1602179055506116c28061011b6000396000f3fe6080604052600436106100a05760003560e01c80638da5cb5b116100645780638da5cb5b146101c2578063a428b362146101ed578063a526d83b1461022a578063d0e30db014610253578063e1721f7b1461025d578063f3fef3a314610286576100af565b80631a197a26146100b95780631ef4e720146100f657806327e235e314610133578063310ec4a7146101705780637aa6a7f614610199576100af565b366100af576100ad6102af565b005b6100b76102af565b005b3480156100c557600080fd5b506100e060048036038101906100db9190610ed5565b610386565b6040516100ed9190610f1b565b60405180910390f35b34801561010257600080fd5b5061011d60048036038101906101189190610ed5565b6103cf565b60405161012a9190610f52565b60405180910390f35b34801561013f57600080fd5b5061015a60048036038101906101559190610ed5565b6104df565b6040516101679190610f1b565b60405180910390f35b34801561017c57600080fd5b5061019760048036038101906101929190610f99565b6104f7565b005b3480156101a557600080fd5b506101c060048036038101906101bb9190610ed5565b61053f565b005b3480156101ce57600080fd5b506101d761088b565b6040516101e49190610fe8565b60405180910390f35b3480156101f957600080fd5b50610214600480360381019061020f9190610ed5565b6108af565b604051610221919061101e565b60405180910390f35b34801561023657600080fd5b50610251600480360381019061024c9190610ed5565b610905565b005b61025b6102af565b005b34801561026957600080fd5b50610284600480360381019061027f9190610ed5565b610ade565b005b34801561029257600080fd5b506102ad60048036038101906102a89190611077565b610b26565b005b34600560003373ffffffffffffffffffffffffffffffffffffffff1673ffffffffffffffffffffffffffffffffffffffff168152602001908152602001600020819055503373ffffffffffffffffffffffffffffffffffffffff167f5f74095c3cf9cd2b4407992767113d77fc65cb2423a83ecc71977f3ace6b34f434600560003373ffffffffffffffffffffffffffffffffffffffff1673ffffffffffffffffffffffffffffffffffffffff168152602001908152602001600020544260405161037c939291906110b7565b60405180910390a2565b6000600360008373ffffffffffffffffffffffffffffffffffffffff1673ffffffffffffffffffffffffffffffffffffffff168152602001908152602001600020549050919050565b6000806000905060005b6001805490508110156104d55760046000600183815481106103fe576103fd6110ee565b5b9060005260206000200160009054906101000a900473ffffffffffffffffffffffffffffffffffffffff1673ffffffffffffffffffffffffffffffffffffffff1673ffffffffffffffffffffffffffffffffffffffff16815260200190815260200160002060008573ffffffffffffffffffffffffffffffffffffffff1673ffffffffffffffffffffffffffffffffffffffff16815260200190815260200160002060009054906101000a900460ff16156104c25781806104be9061114c565b9250505b80806104cd90611175565b9150506103d9565b5080915050919050565b60056020528060005260406000206000915090505481565b80600360008473ffffffffffffffffffffffffffffffffffffffff1673ffffffffffffffffffffffffffffffffffffffff168152602001908152602001600020819055505050565b600260003373ffffffffffffffffffffffffffffffffffffffff1673ffffffffffffffffffffffffffffffffffffffff16815260200190815260200160002060009054906101000a900460ff166105cb576040517f08c379a00000000000000000000000000000000000000000000000000000000081526004016105c290611240565b60405180910390fd5b60008054906101000a900473ffffffffffffffffffffffffffffffffffffffff1673ffffffffffffffffffffffffffffffffffffffff168173ffffffffffffffffffffffffffffffffffffffff1603610659576040517f08c379a0000000000000000000000000000000000000000000000000000000008152600401610650906112d2565b60405180910390fd5b600460003373ffffffffffffffffffffffffffffffffffffffff1673ffffffffffffffffffffffffffffffffffffffff16815260200190815260200160002060008273ffffffffffffffffffffffffffffffffffffffff1673ffffffffffffffffffffffffffffffffffffffff16815260200190815260200160002060009054906101000a900460ff1615610723576040517f08c379a000000000000000000000000000000000000000000000000000000000815260040161071a90611364565b60405180910390fd5b6001600460003373ffffffffffffffffffffffffffffffffffffffff1673ffffffffffffffffffffffffffffffffffffffff16815260200190815260200160002060008373ffffffffffffffffffffffffffffffffffffffff1673ffffffffffffffffffffffffffffffffffffffff16815260200190815260200160002060006101000a81548160ff0219169083151502179055508073ffffffffffffffffffffffffffffffffffffffff163373ffffffffffffffffffffffffffffffffffffffff167f2a29cab36d74cab0b1382c2e828019bda76c7994a8e09266d4b60a9cf68fb4cf426040516108159190610f1b565b60405180910390a36003610828826103cf565b60ff16106108885761083981610e2f565b8073ffffffffffffffffffffffffffffffffffffffff167f40f6412cf1328603fc3d500d164e0f08a7b7839b837a3bc5b8f23bedcd2193004260405161087f9190610f1b565b60405180910390a25b50565b60008054906101000a900473ffffffffffffffffffffffffffffffffffffffff1681565b6000600260008373ffffffffffffffffffffffffffffffffffffffff1673ffffffffffffffffffffffffffffffffffffffff16815260200190815260200160002060009054906101000a900460ff169050919050565b60008054906101000a900473ffffffffffffffffffffffffffffffffffffffff1673ffffffffffffffffffffffffffffffffffffffff163373ffffffffffffffffffffffffffffffffffffffff1614610993576040517f08c379a000000000000000000000000000000000000000000000000000000000815260040161098a906113f6565b60405180910390fd5b600260008273ffffffffffffffffffffffffffffffffffffffff1673ffffffffffffffffffffffffffffffffffffffff16815260200190815260200160002060009054906101000a900460ff1615610a20576040517f08c379a0000000000000000000000000000000000000000000000000000000008152600401610a1790611462565b60405180910390fd5b6001600260008373ffffffffffffffffffffffffffffffffffffffff1673ffffffffffffffffffffffffffffffffffffffff16815260200190815260200160002060006101000a81548160ff0219169083151502179055506001819080600181540180825580915050600190039060005260206000200160009091909190916101000a81548173ffffffffffffffffffffffffffffffffffffffff021916908373ffffffffffffffffffffffffffffffffffffffff16021790555050565b6000600360008373ffffffffffffffffffffffffffffffffffffffff1673ffffffffffffffffffffffffffffffffffffffff1681526020019081526020016000208190555050565b600360003373ffffffffffffffffffffffffffffffffffffffff1673ffffffffffffffffffffffffffffffffffffffff16815260200190815260200160002054811115610ba8576040517f08c379a0000000000000000000000000000000000000000000000000000000008152600401610b9f9061151a565b60405180910390fd5b80600560003373ffffffffffffffffffffffffffffffffffffffff1673ffffffffffffffffffffffffffffffffffffffff168152602001908152602001600020541015610c2a576040517f08c379a0000000000000000000000000000000000000000000000000000000008152600401610c2190611586565b60405180910390fd5b80600560003373ffffffffffffffffffffffffffffffffffffffff1673ffffffffffffffffffffffffffffffffffffffff1681526020019081526020016000206000828254610c7991906115a6565b9250508190555080600360003373ffffffffffffffffffffffffffffffffffffffff1673ffffffffffffffffffffffffffffffffffffffff1681526020019081526020016000206000828254610ccf91906115a6565b9250508190555060008273ffffffffffffffffffffffffffffffffffffffff1682604051610cfc9061160b565b60006040518083038185875af1925050503d8060008114610d39576040519150601f19603f3d011682016040523d82523d6000602084013e610d3e565b606091505b5050905080610d82576040517f08c379a0000000000000000000000000000000000000000000000000000000008152600401610d799061166c565b60405180910390fd5b8273ffffffffffffffffffffffffffffffffffffffff163373ffffffffffffffffffffffffffffffffffffffff167f2795acad0bded62e0795d80c0c6a89688f6b0517146a7a9a52abc38ff3fe095584600560003373ffffffffffffffffffffffffffffffffffffffff1673ffffffffffffffffffffffffffffffffffffffff1681526020019081526020016000205442604051610e22939291906110b7565b60405180910390a3505050565b806000806101000a81548173ffffffffffffffffffffffffffffffffffffffff021916908373ffffffffffffffffffffffffffffffffffffffff16021790555050565b600080fd5b600073ffffffffffffffffffffffffffffffffffffffff82169050919050565b6000610ea282610e77565b9050919050565b610eb281610e97565b8114610ebd57600080fd5b50565b600081359050610ecf81610ea9565b92915050565b600060208284031215610eeb57610eea610e72565b5b6000610ef984828501610ec0565b91505092915050565b6000819050919050565b610f1581610f02565b82525050565b6000602082019050610f306000830184610f0c565b92915050565b600060ff82169050919050565b610f4c81610f36565b82525050565b6000602082019050610f676000830184610f43565b92915050565b610f7681610f02565b8114610f8157600080fd5b50565b600081359050610f9381610f6d565b92915050565b60008060408385031215610fb057610faf610e72565b5b6000610fbe85828601610ec0565b9250506020610fcf85828601610f84565b9150509250929050565b610fe281610e97565b82525050565b6000602082019050610ffd6000830184610fd9565b92915050565b60008115159050919050565b61101881611003565b82525050565b6000602082019050611033600083018461100f565b92915050565b600061104482610e77565b9050919050565b61105481611039565b811461105f57600080fd5b50565b6000813590506110718161104b565b92915050565b6000806040838503121561108e5761108d610e72565b5b600061109c85828601611062565b92505060206110ad85828601610f84565b9150509250929050565b60006060820190506110cc6000830186610f0c565b6110d96020830185610f0c565b6110e66040830184610f0c565b949350505050565b7f4e487b7100000000000000000000000000000000000000000000000000000000600052603260045260246000fd5b7f4e487b7100000000000000000000000000000000000000000000000000000000600052601160045260246000fd5b600061115782610f36565b915060ff820361116a5761116961111d565b5b600182019050919050565b600061118082610f02565b91507fffffffffffffffffffffffffffffffffffffffffffffffffffffffffffffffff82036111b2576111b161111d565b5b600182019050919050565b600082825260208201905092915050565b7f4f6e6c792077616c6c657420477561726469616e732061726520616c6c6f776560008201527f6420746f20766f746520666f72206e65772077616c6c6574206f776e65722e00602082015250565b600061122a603f836111bd565b9150611235826111ce565b604082019050919050565b600060208201905081810360008301526112598161121d565b9050919050565b7f4164647265737320697320616c7265616479207468652077616c6c6574206f7760008201527f6e65720000000000000000000000000000000000000000000000000000000000602082015250565b60006112bc6023836111bd565b91506112c782611260565b604082019050919050565b600060208201905081810360008301526112eb816112af565b9050919050565b7f596f75206861766520616c726561647920766f74656420666f7220746869732060008201527f63616e6469646174650000000000000000000000000000000000000000000000602082015250565b600061134e6029836111bd565b9150611359826112f2565b604082019050919050565b6000602082019050818103600083015261137d81611341565b9050919050565b7f596f75206d7573742062652077616c6c6574206f776e657220666f722074686960008201527f7320616374696f6e000000000000000000000000000000000000000000000000602082015250565b60006113e06028836111bd565b91506113eb82611384565b604082019050919050565b6000602082019050818103600083015261140f816113d3565b9050919050565b7f4164647265737320697320616c7265616479206120677561726469616e000000600082015250565b600061144c601d836111bd565b915061145782611416565b602082019050919050565b6000602082019050818103600083015261147b8161143f565b9050919050565b7f576974686472617720616d6f756e74206973206c6172676572207468616e206160008201527f6c6c6f77616e63652c20696e63726561736520796f757220616c6c6f77616e6360208201527f652e000000000000000000000000000000000000000000000000000000000000604082015250565b60006115046042836111bd565b915061150f82611482565b606082019050919050565b60006020820190508181036000830152611533816114f7565b9050919050565b7f496e73756666696369656e742062616c616e6365000000000000000000000000600082015250565b60006115706014836111bd565b915061157b8261153a565b602082019050919050565b6000602082019050818103600083015261159f81611563565b9050919050565b60006115b182610f02565b91506115bc83610f02565b9250828210156115cf576115ce61111d565b5b828203905092915050565b600081905092915050565b50565b60006115f56000836115da565b9150611600826115e5565b600082019050919050565b6000611616826115e8565b9150819050919050565b7f576974686472617720756e73756363657366756c000000000000000000000000600082015250565b60006116566014836111bd565b915061166182611620565b602082019050919050565b6000602082019050818103600083015261168581611649565b905091905056fea264697066735822122088037a3e00e3022e5534b1eeb6440773bfc90c00b6549cc6bcf2f273e5349a1764736f6c634300080f0033",
					"opcodes": "PUSH1 0x80 PUSH1 0x40 MSTORE CALLVALUE DUP1 ISZERO PUSH2 0x10 JUMPI PUSH1 0x0 DUP1 REVERT JUMPDEST POP CALLER PUSH1 0x0 DUP1 PUSH2 0x100 EXP DUP2 SLOAD DUP2 PUSH20 0xFFFFFFFFFFFFFFFFFFFFFFFFFFFFFFFFFFFFFFFF MUL NOT AND SWAP1 DUP4 PUSH20 0xFFFFFFFFFFFFFFFFFFFFFFFFFFFFFFFFFFFFFFFF AND MUL OR SWAP1 SSTORE POP PUSH1 0x1 PUSH1 0x2 PUSH1 0x0 CALLER PUSH20 0xFFFFFFFFFFFFFFFFFFFFFFFFFFFFFFFFFFFFFFFF AND PUSH20 0xFFFFFFFFFFFFFFFFFFFFFFFFFFFFFFFFFFFFFFFF AND DUP2 MSTORE PUSH1 0x20 ADD SWAP1 DUP2 MSTORE PUSH1 0x20 ADD PUSH1 0x0 KECCAK256 PUSH1 0x0 PUSH2 0x100 EXP DUP2 SLOAD DUP2 PUSH1 0xFF MUL NOT AND SWAP1 DUP4 ISZERO ISZERO MUL OR SWAP1 SSTORE POP PUSH1 0x1 CALLER SWAP1 DUP1 PUSH1 0x1 DUP2 SLOAD ADD DUP1 DUP3 SSTORE DUP1 SWAP2 POP POP PUSH1 0x1 SWAP1 SUB SWAP1 PUSH1 0x0 MSTORE PUSH1 0x20 PUSH1 0x0 KECCAK256 ADD PUSH1 0x0 SWAP1 SWAP2 SWAP1 SWAP2 SWAP1 SWAP2 PUSH2 0x100 EXP DUP2 SLOAD DUP2 PUSH20 0xFFFFFFFFFFFFFFFFFFFFFFFFFFFFFFFFFFFFFFFF MUL NOT AND SWAP1 DUP4 PUSH20 0xFFFFFFFFFFFFFFFFFFFFFFFFFFFFFFFFFFFFFFFF AND MUL OR SWAP1 SSTORE POP PUSH2 0x16C2 DUP1 PUSH2 0x11B PUSH1 0x0 CODECOPY PUSH1 0x0 RETURN INVALID PUSH1 0x80 PUSH1 0x40 MSTORE PUSH1 0x4 CALLDATASIZE LT PUSH2 0xA0 JUMPI PUSH1 0x0 CALLDATALOAD PUSH1 0xE0 SHR DUP1 PUSH4 0x8DA5CB5B GT PUSH2 0x64 JUMPI DUP1 PUSH4 0x8DA5CB5B EQ PUSH2 0x1C2 JUMPI DUP1 PUSH4 0xA428B362 EQ PUSH2 0x1ED JUMPI DUP1 PUSH4 0xA526D83B EQ PUSH2 0x22A JUMPI DUP1 PUSH4 0xD0E30DB0 EQ PUSH2 0x253 JUMPI DUP1 PUSH4 0xE1721F7B EQ PUSH2 0x25D JUMPI DUP1 PUSH4 0xF3FEF3A3 EQ PUSH2 0x286 JUMPI PUSH2 0xAF JUMP JUMPDEST DUP1 PUSH4 0x1A197A26 EQ PUSH2 0xB9 JUMPI DUP1 PUSH4 0x1EF4E720 EQ PUSH2 0xF6 JUMPI DUP1 PUSH4 0x27E235E3 EQ PUSH2 0x133 JUMPI DUP1 PUSH4 0x310EC4A7 EQ PUSH2 0x170 JUMPI DUP1 PUSH4 0x7AA6A7F6 EQ PUSH2 0x199 JUMPI PUSH2 0xAF JUMP JUMPDEST CALLDATASIZE PUSH2 0xAF JUMPI PUSH2 0xAD PUSH2 0x2AF JUMP JUMPDEST STOP JUMPDEST PUSH2 0xB7 PUSH2 0x2AF JUMP JUMPDEST STOP JUMPDEST CALLVALUE DUP1 ISZERO PUSH2 0xC5 JUMPI PUSH1 0x0 DUP1 REVERT JUMPDEST POP PUSH2 0xE0 PUSH1 0x4 DUP1 CALLDATASIZE SUB DUP2 ADD SWAP1 PUSH2 0xDB SWAP2 SWAP1 PUSH2 0xED5 JUMP JUMPDEST PUSH2 0x386 JUMP JUMPDEST PUSH1 0x40 MLOAD PUSH2 0xED SWAP2 SWAP1 PUSH2 0xF1B JUMP JUMPDEST PUSH1 0x40 MLOAD DUP1 SWAP2 SUB SWAP1 RETURN JUMPDEST CALLVALUE DUP1 ISZERO PUSH2 0x102 JUMPI PUSH1 0x0 DUP1 REVERT JUMPDEST POP PUSH2 0x11D PUSH1 0x4 DUP1 CALLDATASIZE SUB DUP2 ADD SWAP1 PUSH2 0x118 SWAP2 SWAP1 PUSH2 0xED5 JUMP JUMPDEST PUSH2 0x3CF JUMP JUMPDEST PUSH1 0x40 MLOAD PUSH2 0x12A SWAP2 SWAP1 PUSH2 0xF52 JUMP JUMPDEST PUSH1 0x40 MLOAD DUP1 SWAP2 SUB SWAP1 RETURN JUMPDEST CALLVALUE DUP1 ISZERO PUSH2 0x13F JUMPI PUSH1 0x0 DUP1 REVERT JUMPDEST POP PUSH2 0x15A PUSH1 0x4 DUP1 CALLDATASIZE SUB DUP2 ADD SWAP1 PUSH2 0x155 SWAP2 SWAP1 PUSH2 0xED5 JUMP JUMPDEST PUSH2 0x4DF JUMP JUMPDEST PUSH1 0x40 MLOAD PUSH2 0x167 SWAP2 SWAP1 PUSH2 0xF1B JUMP JUMPDEST PUSH1 0x40 MLOAD DUP1 SWAP2 SUB SWAP1 RETURN JUMPDEST CALLVALUE DUP1 ISZERO PUSH2 0x17C JUMPI PUSH1 0x0 DUP1 REVERT JUMPDEST POP PUSH2 0x197 PUSH1 0x4 DUP1 CALLDATASIZE SUB DUP2 ADD SWAP1 PUSH2 0x192 SWAP2 SWAP1 PUSH2 0xF99 JUMP JUMPDEST PUSH2 0x4F7 JUMP JUMPDEST STOP JUMPDEST CALLVALUE DUP1 ISZERO PUSH2 0x1A5 JUMPI PUSH1 0x0 DUP1 REVERT JUMPDEST POP PUSH2 0x1C0 PUSH1 0x4 DUP1 CALLDATASIZE SUB DUP2 ADD SWAP1 PUSH2 0x1BB SWAP2 SWAP1 PUSH2 0xED5 JUMP JUMPDEST PUSH2 0x53F JUMP JUMPDEST STOP JUMPDEST CALLVALUE DUP1 ISZERO PUSH2 0x1CE JUMPI PUSH1 0x0 DUP1 REVERT JUMPDEST POP PUSH2 0x1D7 PUSH2 0x88B JUMP JUMPDEST PUSH1 0x40 MLOAD PUSH2 0x1E4 SWAP2 SWAP1 PUSH2 0xFE8 JUMP JUMPDEST PUSH1 0x40 MLOAD DUP1 SWAP2 SUB SWAP1 RETURN JUMPDEST CALLVALUE DUP1 ISZERO PUSH2 0x1F9 JUMPI PUSH1 0x0 DUP1 REVERT JUMPDEST POP PUSH2 0x214 PUSH1 0x4 DUP1 CALLDATASIZE SUB DUP2 ADD SWAP1 PUSH2 0x20F SWAP2 SWAP1 PUSH2 0xED5 JUMP JUMPDEST PUSH2 0x8AF JUMP JUMPDEST PUSH1 0x40 MLOAD PUSH2 0x221 SWAP2 SWAP1 PUSH2 0x101E JUMP JUMPDEST PUSH1 0x40 MLOAD DUP1 SWAP2 SUB SWAP1 RETURN JUMPDEST CALLVALUE DUP1 ISZERO PUSH2 0x236 JUMPI PUSH1 0x0 DUP1 REVERT JUMPDEST POP PUSH2 0x251 PUSH1 0x4 DUP1 CALLDATASIZE SUB DUP2 ADD SWAP1 PUSH2 0x24C SWAP2 SWAP1 PUSH2 0xED5 JUMP JUMPDEST PUSH2 0x905 JUMP JUMPDEST STOP JUMPDEST PUSH2 0x25B PUSH2 0x2AF JUMP JUMPDEST STOP JUMPDEST CALLVALUE DUP1 ISZERO PUSH2 0x269 JUMPI PUSH1 0x0 DUP1 REVERT JUMPDEST POP PUSH2 0x284 PUSH1 0x4 DUP1 CALLDATASIZE SUB DUP2 ADD SWAP1 PUSH2 0x27F SWAP2 SWAP1 PUSH2 0xED5 JUMP JUMPDEST PUSH2 0xADE JUMP JUMPDEST STOP JUMPDEST CALLVALUE DUP1 ISZERO PUSH2 0x292 JUMPI PUSH1 0x0 DUP1 REVERT JUMPDEST POP PUSH2 0x2AD PUSH1 0x4 DUP1 CALLDATASIZE SUB DUP2 ADD SWAP1 PUSH2 0x2A8 SWAP2 SWAP1 PUSH2 0x1077 JUMP JUMPDEST PUSH2 0xB26 JUMP JUMPDEST STOP JUMPDEST CALLVALUE PUSH1 0x5 PUSH1 0x0 CALLER PUSH20 0xFFFFFFFFFFFFFFFFFFFFFFFFFFFFFFFFFFFFFFFF AND PUSH20 0xFFFFFFFFFFFFFFFFFFFFFFFFFFFFFFFFFFFFFFFF AND DUP2 MSTORE PUSH1 0x20 ADD SWAP1 DUP2 MSTORE PUSH1 0x20 ADD PUSH1 0x0 KECCAK256 DUP2 SWAP1 SSTORE POP CALLER PUSH20 0xFFFFFFFFFFFFFFFFFFFFFFFFFFFFFFFFFFFFFFFF AND PUSH32 0x5F74095C3CF9CD2B4407992767113D77FC65CB2423A83ECC71977F3ACE6B34F4 CALLVALUE PUSH1 0x5 PUSH1 0x0 CALLER PUSH20 0xFFFFFFFFFFFFFFFFFFFFFFFFFFFFFFFFFFFFFFFF AND PUSH20 0xFFFFFFFFFFFFFFFFFFFFFFFFFFFFFFFFFFFFFFFF AND DUP2 MSTORE PUSH1 0x20 ADD SWAP1 DUP2 MSTORE PUSH1 0x20 ADD PUSH1 0x0 KECCAK256 SLOAD TIMESTAMP PUSH1 0x40 MLOAD PUSH2 0x37C SWAP4 SWAP3 SWAP2 SWAP1 PUSH2 0x10B7 JUMP JUMPDEST PUSH1 0x40 MLOAD DUP1 SWAP2 SUB SWAP1 LOG2 JUMP JUMPDEST PUSH1 0x0 PUSH1 0x3 PUSH1 0x0 DUP4 PUSH20 0xFFFFFFFFFFFFFFFFFFFFFFFFFFFFFFFFFFFFFFFF AND PUSH20 0xFFFFFFFFFFFFFFFFFFFFFFFFFFFFFFFFFFFFFFFF AND DUP2 MSTORE PUSH1 0x20 ADD SWAP1 DUP2 MSTORE PUSH1 0x20 ADD PUSH1 0x0 KECCAK256 SLOAD SWAP1 POP SWAP2 SWAP1 POP JUMP JUMPDEST PUSH1 0x0 DUP1 PUSH1 0x0 SWAP1 POP PUSH1 0x0 JUMPDEST PUSH1 0x1 DUP1 SLOAD SWAP1 POP DUP2 LT ISZERO PUSH2 0x4D5 JUMPI PUSH1 0x4 PUSH1 0x0 PUSH1 0x1 DUP4 DUP2 SLOAD DUP2 LT PUSH2 0x3FE JUMPI PUSH2 0x3FD PUSH2 0x10EE JUMP JUMPDEST JUMPDEST SWAP1 PUSH1 0x0 MSTORE PUSH1 0x20 PUSH1 0x0 KECCAK256 ADD PUSH1 0x0 SWAP1 SLOAD SWAP1 PUSH2 0x100 EXP SWAP1 DIV PUSH20 0xFFFFFFFFFFFFFFFFFFFFFFFFFFFFFFFFFFFFFFFF AND PUSH20 0xFFFFFFFFFFFFFFFFFFFFFFFFFFFFFFFFFFFFFFFF AND PUSH20 0xFFFFFFFFFFFFFFFFFFFFFFFFFFFFFFFFFFFFFFFF AND DUP2 MSTORE PUSH1 0x20 ADD SWAP1 DUP2 MSTORE PUSH1 0x20 ADD PUSH1 0x0 KECCAK256 PUSH1 0x0 DUP6 PUSH20 0xFFFFFFFFFFFFFFFFFFFFFFFFFFFFFFFFFFFFFFFF AND PUSH20 0xFFFFFFFFFFFFFFFFFFFFFFFFFFFFFFFFFFFFFFFF AND DUP2 MSTORE PUSH1 0x20 ADD SWAP1 DUP2 MSTORE PUSH1 0x20 ADD PUSH1 0x0 KECCAK256 PUSH1 0x0 SWAP1 SLOAD SWAP1 PUSH2 0x100 EXP SWAP1 DIV PUSH1 0xFF AND ISZERO PUSH2 0x4C2 JUMPI DUP2 DUP1 PUSH2 0x4BE SWAP1 PUSH2 0x114C JUMP JUMPDEST SWAP3 POP POP JUMPDEST DUP1 DUP1 PUSH2 0x4CD SWAP1 PUSH2 0x1175 JUMP JUMPDEST SWAP2 POP POP PUSH2 0x3D9 JUMP JUMPDEST POP DUP1 SWAP2 POP POP SWAP2 SWAP1 POP JUMP JUMPDEST PUSH1 0x5 PUSH1 0x20 MSTORE DUP1 PUSH1 0x0 MSTORE PUSH1 0x40 PUSH1 0x0 KECCAK256 PUSH1 0x0 SWAP2 POP SWAP1 POP SLOAD DUP2 JUMP JUMPDEST DUP1 PUSH1 0x3 PUSH1 0x0 DUP5 PUSH20 0xFFFFFFFFFFFFFFFFFFFFFFFFFFFFFFFFFFFFFFFF AND PUSH20 0xFFFFFFFFFFFFFFFFFFFFFFFFFFFFFFFFFFFFFFFF AND DUP2 MSTORE PUSH1 0x20 ADD SWAP1 DUP2 MSTORE PUSH1 0x20 ADD PUSH1 0x0 KECCAK256 DUP2 SWAP1 SSTORE POP POP POP JUMP JUMPDEST PUSH1 0x2 PUSH1 0x0 CALLER PUSH20 0xFFFFFFFFFFFFFFFFFFFFFFFFFFFFFFFFFFFFFFFF AND PUSH20 0xFFFFFFFFFFFFFFFFFFFFFFFFFFFFFFFFFFFFFFFF AND DUP2 MSTORE PUSH1 0x20 ADD SWAP1 DUP2 MSTORE PUSH1 0x20 ADD PUSH1 0x0 KECCAK256 PUSH1 0x0 SWAP1 SLOAD SWAP1 PUSH2 0x100 EXP SWAP1 DIV PUSH1 0xFF AND PUSH2 0x5CB JUMPI PUSH1 0x40 MLOAD PUSH32 0x8C379A000000000000000000000000000000000000000000000000000000000 DUP2 MSTORE PUSH1 0x4 ADD PUSH2 0x5C2 SWAP1 PUSH2 0x1240 JUMP JUMPDEST PUSH1 0x40 MLOAD DUP1 SWAP2 SUB SWAP1 REVERT JUMPDEST PUSH1 0x0 DUP1 SLOAD SWAP1 PUSH2 0x100 EXP SWAP1 DIV PUSH20 0xFFFFFFFFFFFFFFFFFFFFFFFFFFFFFFFFFFFFFFFF AND PUSH20 0xFFFFFFFFFFFFFFFFFFFFFFFFFFFFFFFFFFFFFFFF AND DUP2 PUSH20 0xFFFFFFFFFFFFFFFFFFFFFFFFFFFFFFFFFFFFFFFF AND SUB PUSH2 0x659 JUMPI PUSH1 0x40 MLOAD PUSH32 0x8C379A000000000000000000000000000000000000000000000000000000000 DUP2 MSTORE PUSH1 0x4 ADD PUSH2 0x650 SWAP1 PUSH2 0x12D2 JUMP JUMPDEST PUSH1 0x40 MLOAD DUP1 SWAP2 SUB SWAP1 REVERT JUMPDEST PUSH1 0x4 PUSH1 0x0 CALLER PUSH20 0xFFFFFFFFFFFFFFFFFFFFFFFFFFFFFFFFFFFFFFFF AND PUSH20 0xFFFFFFFFFFFFFFFFFFFFFFFFFFFFFFFFFFFFFFFF AND DUP2 MSTORE PUSH1 0x20 ADD SWAP1 DUP2 MSTORE PUSH1 0x20 ADD PUSH1 0x0 KECCAK256 PUSH1 0x0 DUP3 PUSH20 0xFFFFFFFFFFFFFFFFFFFFFFFFFFFFFFFFFFFFFFFF AND PUSH20 0xFFFFFFFFFFFFFFFFFFFFFFFFFFFFFFFFFFFFFFFF AND DUP2 MSTORE PUSH1 0x20 ADD SWAP1 DUP2 MSTORE PUSH1 0x20 ADD PUSH1 0x0 KECCAK256 PUSH1 0x0 SWAP1 SLOAD SWAP1 PUSH2 0x100 EXP SWAP1 DIV PUSH1 0xFF AND ISZERO PUSH2 0x723 JUMPI PUSH1 0x40 MLOAD PUSH32 0x8C379A000000000000000000000000000000000000000000000000000000000 DUP2 MSTORE PUSH1 0x4 ADD PUSH2 0x71A SWAP1 PUSH2 0x1364 JUMP JUMPDEST PUSH1 0x40 MLOAD DUP1 SWAP2 SUB SWAP1 REVERT JUMPDEST PUSH1 0x1 PUSH1 0x4 PUSH1 0x0 CALLER PUSH20 0xFFFFFFFFFFFFFFFFFFFFFFFFFFFFFFFFFFFFFFFF AND PUSH20 0xFFFFFFFFFFFFFFFFFFFFFFFFFFFFFFFFFFFFFFFF AND DUP2 MSTORE PUSH1 0x20 ADD SWAP1 DUP2 MSTORE PUSH1 0x20 ADD PUSH1 0x0 KECCAK256 PUSH1 0x0 DUP4 PUSH20 0xFFFFFFFFFFFFFFFFFFFFFFFFFFFFFFFFFFFFFFFF AND PUSH20 0xFFFFFFFFFFFFFFFFFFFFFFFFFFFFFFFFFFFFFFFF AND DUP2 MSTORE PUSH1 0x20 ADD SWAP1 DUP2 MSTORE PUSH1 0x20 ADD PUSH1 0x0 KECCAK256 PUSH1 0x0 PUSH2 0x100 EXP DUP2 SLOAD DUP2 PUSH1 0xFF MUL NOT AND SWAP1 DUP4 ISZERO ISZERO MUL OR SWAP1 SSTORE POP DUP1 PUSH20 0xFFFFFFFFFFFFFFFFFFFFFFFFFFFFFFFFFFFFFFFF AND CALLER PUSH20 0xFFFFFFFFFFFFFFFFFFFFFFFFFFFFFFFFFFFFFFFF AND PUSH32 0x2A29CAB36D74CAB0B1382C2E828019BDA76C7994A8E09266D4B60A9CF68FB4CF TIMESTAMP PUSH1 0x40 MLOAD PUSH2 0x815 SWAP2 SWAP1 PUSH2 0xF1B JUMP JUMPDEST PUSH1 0x40 MLOAD DUP1 SWAP2 SUB SWAP1 LOG3 PUSH1 0x3 PUSH2 0x828 DUP3 PUSH2 0x3CF JUMP JUMPDEST PUSH1 0xFF AND LT PUSH2 0x888 JUMPI PUSH2 0x839 DUP2 PUSH2 0xE2F JUMP JUMPDEST DUP1 PUSH20 0xFFFFFFFFFFFFFFFFFFFFFFFFFFFFFFFFFFFFFFFF AND PUSH32 0x40F6412CF1328603FC3D500D164E0F08A7B7839B837A3BC5B8F23BEDCD219300 TIMESTAMP PUSH1 0x40 MLOAD PUSH2 0x87F SWAP2 SWAP1 PUSH2 0xF1B JUMP JUMPDEST PUSH1 0x40 MLOAD DUP1 SWAP2 SUB SWAP1 LOG2 JUMPDEST POP JUMP JUMPDEST PUSH1 0x0 DUP1 SLOAD SWAP1 PUSH2 0x100 EXP SWAP1 DIV PUSH20 0xFFFFFFFFFFFFFFFFFFFFFFFFFFFFFFFFFFFFFFFF AND DUP2 JUMP JUMPDEST PUSH1 0x0 PUSH1 0x2 PUSH1 0x0 DUP4 PUSH20 0xFFFFFFFFFFFFFFFFFFFFFFFFFFFFFFFFFFFFFFFF AND PUSH20 0xFFFFFFFFFFFFFFFFFFFFFFFFFFFFFFFFFFFFFFFF AND DUP2 MSTORE PUSH1 0x20 ADD SWAP1 DUP2 MSTORE PUSH1 0x20 ADD PUSH1 0x0 KECCAK256 PUSH1 0x0 SWAP1 SLOAD SWAP1 PUSH2 0x100 EXP SWAP1 DIV PUSH1 0xFF AND SWAP1 POP SWAP2 SWAP1 POP JUMP JUMPDEST PUSH1 0x0 DUP1 SLOAD SWAP1 PUSH2 0x100 EXP SWAP1 DIV PUSH20 0xFFFFFFFFFFFFFFFFFFFFFFFFFFFFFFFFFFFFFFFF AND PUSH20 0xFFFFFFFFFFFFFFFFFFFFFFFFFFFFFFFFFFFFFFFF AND CALLER PUSH20 0xFFFFFFFFFFFFFFFFFFFFFFFFFFFFFFFFFFFFFFFF AND EQ PUSH2 0x993 JUMPI PUSH1 0x40 MLOAD PUSH32 0x8C379A000000000000000000000000000000000000000000000000000000000 DUP2 MSTORE PUSH1 0x4 ADD PUSH2 0x98A SWAP1 PUSH2 0x13F6 JUMP JUMPDEST PUSH1 0x40 MLOAD DUP1 SWAP2 SUB SWAP1 REVERT JUMPDEST PUSH1 0x2 PUSH1 0x0 DUP3 PUSH20 0xFFFFFFFFFFFFFFFFFFFFFFFFFFFFFFFFFFFFFFFF AND PUSH20 0xFFFFFFFFFFFFFFFFFFFFFFFFFFFFFFFFFFFFFFFF AND DUP2 MSTORE PUSH1 0x20 ADD SWAP1 DUP2 MSTORE PUSH1 0x20 ADD PUSH1 0x0 KECCAK256 PUSH1 0x0 SWAP1 SLOAD SWAP1 PUSH2 0x100 EXP SWAP1 DIV PUSH1 0xFF AND ISZERO PUSH2 0xA20 JUMPI PUSH1 0x40 MLOAD PUSH32 0x8C379A000000000000000000000000000000000000000000000000000000000 DUP2 MSTORE PUSH1 0x4 ADD PUSH2 0xA17 SWAP1 PUSH2 0x1462 JUMP JUMPDEST PUSH1 0x40 MLOAD DUP1 SWAP2 SUB SWAP1 REVERT JUMPDEST PUSH1 0x1 PUSH1 0x2 PUSH1 0x0 DUP4 PUSH20 0xFFFFFFFFFFFFFFFFFFFFFFFFFFFFFFFFFFFFFFFF AND PUSH20 0xFFFFFFFFFFFFFFFFFFFFFFFFFFFFFFFFFFFFFFFF AND DUP2 MSTORE PUSH1 0x20 ADD SWAP1 DUP2 MSTORE PUSH1 0x20 ADD PUSH1 0x0 KECCAK256 PUSH1 0x0 PUSH2 0x100 EXP DUP2 SLOAD DUP2 PUSH1 0xFF MUL NOT AND SWAP1 DUP4 ISZERO ISZERO MUL OR SWAP1 SSTORE POP PUSH1 0x1 DUP2 SWAP1 DUP1 PUSH1 0x1 DUP2 SLOAD ADD DUP1 DUP3 SSTORE DUP1 SWAP2 POP POP PUSH1 0x1 SWAP1 SUB SWAP1 PUSH1 0x0 MSTORE PUSH1 0x20 PUSH1 0x0 KECCAK256 ADD PUSH1 0x0 SWAP1 SWAP2 SWAP1 SWAP2 SWAP1 SWAP2 PUSH2 0x100 EXP DUP2 SLOAD DUP2 PUSH20 0xFFFFFFFFFFFFFFFFFFFFFFFFFFFFFFFFFFFFFFFF MUL NOT AND SWAP1 DUP4 PUSH20 0xFFFFFFFFFFFFFFFFFFFFFFFFFFFFFFFFFFFFFFFF AND MUL OR SWAP1 SSTORE POP POP JUMP JUMPDEST PUSH1 0x0 PUSH1 0x3 PUSH1 0x0 DUP4 PUSH20 0xFFFFFFFFFFFFFFFFFFFFFFFFFFFFFFFFFFFFFFFF AND PUSH20 0xFFFFFFFFFFFFFFFFFFFFFFFFFFFFFFFFFFFFFFFF AND DUP2 MSTORE PUSH1 0x20 ADD SWAP1 DUP2 MSTORE PUSH1 0x20 ADD PUSH1 0x0 KECCAK256 DUP2 SWAP1 SSTORE POP POP JUMP JUMPDEST PUSH1 0x3 PUSH1 0x0 CALLER PUSH20 0xFFFFFFFFFFFFFFFFFFFFFFFFFFFFFFFFFFFFFFFF AND PUSH20 0xFFFFFFFFFFFFFFFFFFFFFFFFFFFFFFFFFFFFFFFF AND DUP2 MSTORE PUSH1 0x20 ADD SWAP1 DUP2 MSTORE PUSH1 0x20 ADD PUSH1 0x0 KECCAK256 SLOAD DUP2 GT ISZERO PUSH2 0xBA8 JUMPI PUSH1 0x40 MLOAD PUSH32 0x8C379A000000000000000000000000000000000000000000000000000000000 DUP2 MSTORE PUSH1 0x4 ADD PUSH2 0xB9F SWAP1 PUSH2 0x151A JUMP JUMPDEST PUSH1 0x40 MLOAD DUP1 SWAP2 SUB SWAP1 REVERT JUMPDEST DUP1 PUSH1 0x5 PUSH1 0x0 CALLER PUSH20 0xFFFFFFFFFFFFFFFFFFFFFFFFFFFFFFFFFFFFFFFF AND PUSH20 0xFFFFFFFFFFFFFFFFFFFFFFFFFFFFFFFFFFFFFFFF AND DUP2 MSTORE PUSH1 0x20 ADD SWAP1 DUP2 MSTORE PUSH1 0x20 ADD PUSH1 0x0 KECCAK256 SLOAD LT ISZERO PUSH2 0xC2A JUMPI PUSH1 0x40 MLOAD PUSH32 0x8C379A000000000000000000000000000000000000000000000000000000000 DUP2 MSTORE PUSH1 0x4 ADD PUSH2 0xC21 SWAP1 PUSH2 0x1586 JUMP JUMPDEST PUSH1 0x40 MLOAD DUP1 SWAP2 SUB SWAP1 REVERT JUMPDEST DUP1 PUSH1 0x5 PUSH1 0x0 CALLER PUSH20 0xFFFFFFFFFFFFFFFFFFFFFFFFFFFFFFFFFFFFFFFF AND PUSH20 0xFFFFFFFFFFFFFFFFFFFFFFFFFFFFFFFFFFFFFFFF AND DUP2 MSTORE PUSH1 0x20 ADD SWAP1 DUP2 MSTORE PUSH1 0x20 ADD PUSH1 0x0 KECCAK256 PUSH1 0x0 DUP3 DUP3 SLOAD PUSH2 0xC79 SWAP2 SWAP1 PUSH2 0x15A6 JUMP JUMPDEST SWAP3 POP POP DUP2 SWAP1 SSTORE POP DUP1 PUSH1 0x3 PUSH1 0x0 CALLER PUSH20 0xFFFFFFFFFFFFFFFFFFFFFFFFFFFFFFFFFFFFFFFF AND PUSH20 0xFFFFFFFFFFFFFFFFFFFFFFFFFFFFFFFFFFFFFFFF AND DUP2 MSTORE PUSH1 0x20 ADD SWAP1 DUP2 MSTORE PUSH1 0x20 ADD PUSH1 0x0 KECCAK256 PUSH1 0x0 DUP3 DUP3 SLOAD PUSH2 0xCCF SWAP2 SWAP1 PUSH2 0x15A6 JUMP JUMPDEST SWAP3 POP POP DUP2 SWAP1 SSTORE POP PUSH1 0x0 DUP3 PUSH20 0xFFFFFFFFFFFFFFFFFFFFFFFFFFFFFFFFFFFFFFFF AND DUP3 PUSH1 0x40 MLOAD PUSH2 0xCFC SWAP1 PUSH2 0x160B JUMP JUMPDEST PUSH1 0x0 PUSH1 0x40 MLOAD DUP1 DUP4 SUB DUP2 DUP6 DUP8 GAS CALL SWAP3 POP POP POP RETURNDATASIZE DUP1 PUSH1 0x0 DUP2 EQ PUSH2 0xD39 JUMPI PUSH1 0x40 MLOAD SWAP2 POP PUSH1 0x1F NOT PUSH1 0x3F RETURNDATASIZE ADD AND DUP3 ADD PUSH1 0x40 MSTORE RETURNDATASIZE DUP3 MSTORE RETURNDATASIZE PUSH1 0x0 PUSH1 0x20 DUP5 ADD RETURNDATACOPY PUSH2 0xD3E JUMP JUMPDEST PUSH1 0x60 SWAP2 POP JUMPDEST POP POP SWAP1 POP DUP1 PUSH2 0xD82 JUMPI PUSH1 0x40 MLOAD PUSH32 0x8C379A000000000000000000000000000000000000000000000000000000000 DUP2 MSTORE PUSH1 0x4 ADD PUSH2 0xD79 SWAP1 PUSH2 0x166C JUMP JUMPDEST PUSH1 0x40 MLOAD DUP1 SWAP2 SUB SWAP1 REVERT JUMPDEST DUP3 PUSH20 0xFFFFFFFFFFFFFFFFFFFFFFFFFFFFFFFFFFFFFFFF AND CALLER PUSH20 0xFFFFFFFFFFFFFFFFFFFFFFFFFFFFFFFFFFFFFFFF AND PUSH32 0x2795ACAD0BDED62E0795D80C0C6A89688F6B0517146A7A9A52ABC38FF3FE0955 DUP5 PUSH1 0x5 PUSH1 0x0 CALLER PUSH20 0xFFFFFFFFFFFFFFFFFFFFFFFFFFFFFFFFFFFFFFFF AND PUSH20 0xFFFFFFFFFFFFFFFFFFFFFFFFFFFFFFFFFFFFFFFF AND DUP2 MSTORE PUSH1 0x20 ADD SWAP1 DUP2 MSTORE PUSH1 0x20 ADD PUSH1 0x0 KECCAK256 SLOAD TIMESTAMP PUSH1 0x40 MLOAD PUSH2 0xE22 SWAP4 SWAP3 SWAP2 SWAP1 PUSH2 0x10B7 JUMP JUMPDEST PUSH1 0x40 MLOAD DUP1 SWAP2 SUB SWAP1 LOG3 POP POP POP JUMP JUMPDEST DUP1 PUSH1 0x0 DUP1 PUSH2 0x100 EXP DUP2 SLOAD DUP2 PUSH20 0xFFFFFFFFFFFFFFFFFFFFFFFFFFFFFFFFFFFFFFFF MUL NOT AND SWAP1 DUP4 PUSH20 0xFFFFFFFFFFFFFFFFFFFFFFFFFFFFFFFFFFFFFFFF AND MUL OR SWAP1 SSTORE POP POP JUMP JUMPDEST PUSH1 0x0 DUP1 REVERT JUMPDEST PUSH1 0x0 PUSH20 0xFFFFFFFFFFFFFFFFFFFFFFFFFFFFFFFFFFFFFFFF DUP3 AND SWAP1 POP SWAP2 SWAP1 POP JUMP JUMPDEST PUSH1 0x0 PUSH2 0xEA2 DUP3 PUSH2 0xE77 JUMP JUMPDEST SWAP1 POP SWAP2 SWAP1 POP JUMP JUMPDEST PUSH2 0xEB2 DUP2 PUSH2 0xE97 JUMP JUMPDEST DUP2 EQ PUSH2 0xEBD JUMPI PUSH1 0x0 DUP1 REVERT JUMPDEST POP JUMP JUMPDEST PUSH1 0x0 DUP2 CALLDATALOAD SWAP1 POP PUSH2 0xECF DUP2 PUSH2 0xEA9 JUMP JUMPDEST SWAP3 SWAP2 POP POP JUMP JUMPDEST PUSH1 0x0 PUSH1 0x20 DUP3 DUP5 SUB SLT ISZERO PUSH2 0xEEB JUMPI PUSH2 0xEEA PUSH2 0xE72 JUMP JUMPDEST JUMPDEST PUSH1 0x0 PUSH2 0xEF9 DUP5 DUP3 DUP6 ADD PUSH2 0xEC0 JUMP JUMPDEST SWAP2 POP POP SWAP3 SWAP2 POP POP JUMP JUMPDEST PUSH1 0x0 DUP2 SWAP1 POP SWAP2 SWAP1 POP JUMP JUMPDEST PUSH2 0xF15 DUP2 PUSH2 0xF02 JUMP JUMPDEST DUP3 MSTORE POP POP JUMP JUMPDEST PUSH1 0x0 PUSH1 0x20 DUP3 ADD SWAP1 POP PUSH2 0xF30 PUSH1 0x0 DUP4 ADD DUP5 PUSH2 0xF0C JUMP JUMPDEST SWAP3 SWAP2 POP POP JUMP JUMPDEST PUSH1 0x0 PUSH1 0xFF DUP3 AND SWAP1 POP SWAP2 SWAP1 POP JUMP JUMPDEST PUSH2 0xF4C DUP2 PUSH2 0xF36 JUMP JUMPDEST DUP3 MSTORE POP POP JUMP JUMPDEST PUSH1 0x0 PUSH1 0x20 DUP3 ADD SWAP1 POP PUSH2 0xF67 PUSH1 0x0 DUP4 ADD DUP5 PUSH2 0xF43 JUMP JUMPDEST SWAP3 SWAP2 POP POP JUMP JUMPDEST PUSH2 0xF76 DUP2 PUSH2 0xF02 JUMP JUMPDEST DUP2 EQ PUSH2 0xF81 JUMPI PUSH1 0x0 DUP1 REVERT JUMPDEST POP JUMP JUMPDEST PUSH1 0x0 DUP2 CALLDATALOAD SWAP1 POP PUSH2 0xF93 DUP2 PUSH2 0xF6D JUMP JUMPDEST SWAP3 SWAP2 POP POP JUMP JUMPDEST PUSH1 0x0 DUP1 PUSH1 0x40 DUP4 DUP6 SUB SLT ISZERO PUSH2 0xFB0 JUMPI PUSH2 0xFAF PUSH2 0xE72 JUMP JUMPDEST JUMPDEST PUSH1 0x0 PUSH2 0xFBE DUP6 DUP3 DUP7 ADD PUSH2 0xEC0 JUMP JUMPDEST SWAP3 POP POP PUSH1 0x20 PUSH2 0xFCF DUP6 DUP3 DUP7 ADD PUSH2 0xF84 JUMP JUMPDEST SWAP2 POP POP SWAP3 POP SWAP3 SWAP1 POP JUMP JUMPDEST PUSH2 0xFE2 DUP2 PUSH2 0xE97 JUMP JUMPDEST DUP3 MSTORE POP POP JUMP JUMPDEST PUSH1 0x0 PUSH1 0x20 DUP3 ADD SWAP1 POP PUSH2 0xFFD PUSH1 0x0 DUP4 ADD DUP5 PUSH2 0xFD9 JUMP JUMPDEST SWAP3 SWAP2 POP POP JUMP JUMPDEST PUSH1 0x0 DUP2 ISZERO ISZERO SWAP1 POP SWAP2 SWAP1 POP JUMP JUMPDEST PUSH2 0x1018 DUP2 PUSH2 0x1003 JUMP JUMPDEST DUP3 MSTORE POP POP JUMP JUMPDEST PUSH1 0x0 PUSH1 0x20 DUP3 ADD SWAP1 POP PUSH2 0x1033 PUSH1 0x0 DUP4 ADD DUP5 PUSH2 0x100F JUMP JUMPDEST SWAP3 SWAP2 POP POP JUMP JUMPDEST PUSH1 0x0 PUSH2 0x1044 DUP3 PUSH2 0xE77 JUMP JUMPDEST SWAP1 POP SWAP2 SWAP1 POP JUMP JUMPDEST PUSH2 0x1054 DUP2 PUSH2 0x1039 JUMP JUMPDEST DUP2 EQ PUSH2 0x105F JUMPI PUSH1 0x0 DUP1 REVERT JUMPDEST POP JUMP JUMPDEST PUSH1 0x0 DUP2 CALLDATALOAD SWAP1 POP PUSH2 0x1071 DUP2 PUSH2 0x104B JUMP JUMPDEST SWAP3 SWAP2 POP POP JUMP JUMPDEST PUSH1 0x0 DUP1 PUSH1 0x40 DUP4 DUP6 SUB SLT ISZERO PUSH2 0x108E JUMPI PUSH2 0x108D PUSH2 0xE72 JUMP JUMPDEST JUMPDEST PUSH1 0x0 PUSH2 0x109C DUP6 DUP3 DUP7 ADD PUSH2 0x1062 JUMP JUMPDEST SWAP3 POP POP PUSH1 0x20 PUSH2 0x10AD DUP6 DUP3 DUP7 ADD PUSH2 0xF84 JUMP JUMPDEST SWAP2 POP POP SWAP3 POP SWAP3 SWAP1 POP JUMP JUMPDEST PUSH1 0x0 PUSH1 0x60 DUP3 ADD SWAP1 POP PUSH2 0x10CC PUSH1 0x0 DUP4 ADD DUP7 PUSH2 0xF0C JUMP JUMPDEST PUSH2 0x10D9 PUSH1 0x20 DUP4 ADD DUP6 PUSH2 0xF0C JUMP JUMPDEST PUSH2 0x10E6 PUSH1 0x40 DUP4 ADD DUP5 PUSH2 0xF0C JUMP JUMPDEST SWAP5 SWAP4 POP POP POP POP JUMP JUMPDEST PUSH32 0x4E487B7100000000000000000000000000000000000000000000000000000000 PUSH1 0x0 MSTORE PUSH1 0x32 PUSH1 0x4 MSTORE PUSH1 0x24 PUSH1 0x0 REVERT JUMPDEST PUSH32 0x4E487B7100000000000000000000000000000000000000000000000000000000 PUSH1 0x0 MSTORE PUSH1 0x11 PUSH1 0x4 MSTORE PUSH1 0x24 PUSH1 0x0 REVERT JUMPDEST PUSH1 0x0 PUSH2 0x1157 DUP3 PUSH2 0xF36 JUMP JUMPDEST SWAP2 POP PUSH1 0xFF DUP3 SUB PUSH2 0x116A JUMPI PUSH2 0x1169 PUSH2 0x111D JUMP JUMPDEST JUMPDEST PUSH1 0x1 DUP3 ADD SWAP1 POP SWAP2 SWAP1 POP JUMP JUMPDEST PUSH1 0x0 PUSH2 0x1180 DUP3 PUSH2 0xF02 JUMP JUMPDEST SWAP2 POP PUSH32 0xFFFFFFFFFFFFFFFFFFFFFFFFFFFFFFFFFFFFFFFFFFFFFFFFFFFFFFFFFFFFFFFF DUP3 SUB PUSH2 0x11B2 JUMPI PUSH2 0x11B1 PUSH2 0x111D JUMP JUMPDEST JUMPDEST PUSH1 0x1 DUP3 ADD SWAP1 POP SWAP2 SWAP1 POP JUMP JUMPDEST PUSH1 0x0 DUP3 DUP3 MSTORE PUSH1 0x20 DUP3 ADD SWAP1 POP SWAP3 SWAP2 POP POP JUMP JUMPDEST PUSH32 0x4F6E6C792077616C6C657420477561726469616E732061726520616C6C6F7765 PUSH1 0x0 DUP3 ADD MSTORE PUSH32 0x6420746F20766F746520666F72206E65772077616C6C6574206F776E65722E00 PUSH1 0x20 DUP3 ADD MSTORE POP JUMP JUMPDEST PUSH1 0x0 PUSH2 0x122A PUSH1 0x3F DUP4 PUSH2 0x11BD JUMP JUMPDEST SWAP2 POP PUSH2 0x1235 DUP3 PUSH2 0x11CE JUMP JUMPDEST PUSH1 0x40 DUP3 ADD SWAP1 POP SWAP2 SWAP1 POP JUMP JUMPDEST PUSH1 0x0 PUSH1 0x20 DUP3 ADD SWAP1 POP DUP2 DUP2 SUB PUSH1 0x0 DUP4 ADD MSTORE PUSH2 0x1259 DUP2 PUSH2 0x121D JUMP JUMPDEST SWAP1 POP SWAP2 SWAP1 POP JUMP JUMPDEST PUSH32 0x4164647265737320697320616C7265616479207468652077616C6C6574206F77 PUSH1 0x0 DUP3 ADD MSTORE PUSH32 0x6E65720000000000000000000000000000000000000000000000000000000000 PUSH1 0x20 DUP3 ADD MSTORE POP JUMP JUMPDEST PUSH1 0x0 PUSH2 0x12BC PUSH1 0x23 DUP4 PUSH2 0x11BD JUMP JUMPDEST SWAP2 POP PUSH2 0x12C7 DUP3 PUSH2 0x1260 JUMP JUMPDEST PUSH1 0x40 DUP3 ADD SWAP1 POP SWAP2 SWAP1 POP JUMP JUMPDEST PUSH1 0x0 PUSH1 0x20 DUP3 ADD SWAP1 POP DUP2 DUP2 SUB PUSH1 0x0 DUP4 ADD MSTORE PUSH2 0x12EB DUP2 PUSH2 0x12AF JUMP JUMPDEST SWAP1 POP SWAP2 SWAP1 POP JUMP JUMPDEST PUSH32 0x596F75206861766520616C726561647920766F74656420666F72207468697320 PUSH1 0x0 DUP3 ADD MSTORE PUSH32 0x63616E6469646174650000000000000000000000000000000000000000000000 PUSH1 0x20 DUP3 ADD MSTORE POP JUMP JUMPDEST PUSH1 0x0 PUSH2 0x134E PUSH1 0x29 DUP4 PUSH2 0x11BD JUMP JUMPDEST SWAP2 POP PUSH2 0x1359 DUP3 PUSH2 0x12F2 JUMP JUMPDEST PUSH1 0x40 DUP3 ADD SWAP1 POP SWAP2 SWAP1 POP JUMP JUMPDEST PUSH1 0x0 PUSH1 0x20 DUP3 ADD SWAP1 POP DUP2 DUP2 SUB PUSH1 0x0 DUP4 ADD MSTORE PUSH2 0x137D DUP2 PUSH2 0x1341 JUMP JUMPDEST SWAP1 POP SWAP2 SWAP1 POP JUMP JUMPDEST PUSH32 0x596F75206D7573742062652077616C6C6574206F776E657220666F7220746869 PUSH1 0x0 DUP3 ADD MSTORE PUSH32 0x7320616374696F6E000000000000000000000000000000000000000000000000 PUSH1 0x20 DUP3 ADD MSTORE POP JUMP JUMPDEST PUSH1 0x0 PUSH2 0x13E0 PUSH1 0x28 DUP4 PUSH2 0x11BD JUMP JUMPDEST SWAP2 POP PUSH2 0x13EB DUP3 PUSH2 0x1384 JUMP JUMPDEST PUSH1 0x40 DUP3 ADD SWAP1 POP SWAP2 SWAP1 POP JUMP JUMPDEST PUSH1 0x0 PUSH1 0x20 DUP3 ADD SWAP1 POP DUP2 DUP2 SUB PUSH1 0x0 DUP4 ADD MSTORE PUSH2 0x140F DUP2 PUSH2 0x13D3 JUMP JUMPDEST SWAP1 POP SWAP2 SWAP1 POP JUMP JUMPDEST PUSH32 0x4164647265737320697320616C7265616479206120677561726469616E000000 PUSH1 0x0 DUP3 ADD MSTORE POP JUMP JUMPDEST PUSH1 0x0 PUSH2 0x144C PUSH1 0x1D DUP4 PUSH2 0x11BD JUMP JUMPDEST SWAP2 POP PUSH2 0x1457 DUP3 PUSH2 0x1416 JUMP JUMPDEST PUSH1 0x20 DUP3 ADD SWAP1 POP SWAP2 SWAP1 POP JUMP JUMPDEST PUSH1 0x0 PUSH1 0x20 DUP3 ADD SWAP1 POP DUP2 DUP2 SUB PUSH1 0x0 DUP4 ADD MSTORE PUSH2 0x147B DUP2 PUSH2 0x143F JUMP JUMPDEST SWAP1 POP SWAP2 SWAP1 POP JUMP JUMPDEST PUSH32 0x576974686472617720616D6F756E74206973206C6172676572207468616E2061 PUSH1 0x0 DUP3 ADD MSTORE PUSH32 0x6C6C6F77616E63652C20696E63726561736520796F757220616C6C6F77616E63 PUSH1 0x20 DUP3 ADD MSTORE PUSH32 0x652E000000000000000000000000000000000000000000000000000000000000 PUSH1 0x40 DUP3 ADD MSTORE POP JUMP JUMPDEST PUSH1 0x0 PUSH2 0x1504 PUSH1 0x42 DUP4 PUSH2 0x11BD JUMP JUMPDEST SWAP2 POP PUSH2 0x150F DUP3 PUSH2 0x1482 JUMP JUMPDEST PUSH1 0x60 DUP3 ADD SWAP1 POP SWAP2 SWAP1 POP JUMP JUMPDEST PUSH1 0x0 PUSH1 0x20 DUP3 ADD SWAP1 POP DUP2 DUP2 SUB PUSH1 0x0 DUP4 ADD MSTORE PUSH2 0x1533 DUP2 PUSH2 0x14F7 JUMP JUMPDEST SWAP1 POP SWAP2 SWAP1 POP JUMP JUMPDEST PUSH32 0x496E73756666696369656E742062616C616E6365000000000000000000000000 PUSH1 0x0 DUP3 ADD MSTORE POP JUMP JUMPDEST PUSH1 0x0 PUSH2 0x1570 PUSH1 0x14 DUP4 PUSH2 0x11BD JUMP JUMPDEST SWAP2 POP PUSH2 0x157B DUP3 PUSH2 0x153A JUMP JUMPDEST PUSH1 0x20 DUP3 ADD SWAP1 POP SWAP2 SWAP1 POP JUMP JUMPDEST PUSH1 0x0 PUSH1 0x20 DUP3 ADD SWAP1 POP DUP2 DUP2 SUB PUSH1 0x0 DUP4 ADD MSTORE PUSH2 0x159F DUP2 PUSH2 0x1563 JUMP JUMPDEST SWAP1 POP SWAP2 SWAP1 POP JUMP JUMPDEST PUSH1 0x0 PUSH2 0x15B1 DUP3 PUSH2 0xF02 JUMP JUMPDEST SWAP2 POP PUSH2 0x15BC DUP4 PUSH2 0xF02 JUMP JUMPDEST SWAP3 POP DUP3 DUP3 LT ISZERO PUSH2 0x15CF JUMPI PUSH2 0x15CE PUSH2 0x111D JUMP JUMPDEST JUMPDEST DUP3 DUP3 SUB SWAP1 POP SWAP3 SWAP2 POP POP JUMP JUMPDEST PUSH1 0x0 DUP2 SWAP1 POP SWAP3 SWAP2 POP POP JUMP JUMPDEST POP JUMP JUMPDEST PUSH1 0x0 PUSH2 0x15F5 PUSH1 0x0 DUP4 PUSH2 0x15DA JUMP JUMPDEST SWAP2 POP PUSH2 0x1600 DUP3 PUSH2 0x15E5 JUMP JUMPDEST PUSH1 0x0 DUP3 ADD SWAP1 POP SWAP2 SWAP1 POP JUMP JUMPDEST PUSH1 0x0 PUSH2 0x1616 DUP3 PUSH2 0x15E8 JUMP JUMPDEST SWAP2 POP DUP2 SWAP1 POP SWAP2 SWAP1 POP JUMP JUMPDEST PUSH32 0x576974686472617720756E73756363657366756C000000000000000000000000 PUSH1 0x0 DUP3 ADD MSTORE POP JUMP JUMPDEST PUSH1 0x0 PUSH2 0x1656 PUSH1 0x14 DUP4 PUSH2 0x11BD JUMP JUMPDEST SWAP2 POP PUSH2 0x1661 DUP3 PUSH2 0x1620 JUMP JUMPDEST PUSH1 0x20 DUP3 ADD SWAP1 POP SWAP2 SWAP1 POP JUMP JUMPDEST PUSH1 0x0 PUSH1 0x20 DUP3 ADD SWAP1 POP DUP2 DUP2 SUB PUSH1 0x0 DUP4 ADD MSTORE PUSH2 0x1685 DUP2 PUSH2 0x1649 JUMP JUMPDEST SWAP1 POP SWAP2 SWAP1 POP JUMP INVALID LOG2 PUSH5 0x6970667358 0x22 SLT KECCAK256 DUP9 SUB PUSH27 0x3E00E3022E5534B1EEB6440773BFC90C00B6549CC6BCF2F273E534 SWAP11 OR PUSH5 0x736F6C6343 STOP ADDMOD 0xF STOP CALLER "
				},
				"gasEstimates": {
					"creation": {
						"codeDepositCost": "1165200",
						"executionCost": "98414",
						"totalCost": "1263614"
					},
					"external": {
						"": "infinite",
						"addGuardian(address)": "77848",
						"balances(address)": "2859",
						"checkAllowance(address)": "2842",
						"checkGuardian(address)": "2905",
						"countTrueVotes(address)": "infinite",
						"deposit()": "infinite",
						"owner()": "2511",
						"resetAddressAllowance(address)": "5647",
						"setAllowance(address,uint256)": "22899",
						"voteNewOwner(address)": "infinite",
						"withdraw(address,uint256)": "infinite"
					},
					"internal": {
						"setNewOwner(address)": "24278"
					}
				},
				"methodIdentifiers": {
					"addGuardian(address)": "a526d83b",
					"balances(address)": "27e235e3",
					"checkAllowance(address)": "1a197a26",
					"checkGuardian(address)": "a428b362",
					"countTrueVotes(address)": "1ef4e720",
					"deposit()": "d0e30db0",
					"owner()": "8da5cb5b",
					"resetAddressAllowance(address)": "e1721f7b",
					"setAllowance(address,uint256)": "310ec4a7",
					"voteNewOwner(address)": "7aa6a7f6",
					"withdraw(address,uint256)": "f3fef3a3"
				}
			},
			"storageLayout": {
				"storage": [
					{
						"astId": 3,
						"contract": "contracts/EtherWallet2.sol:EtherWallet2",
						"label": "owner",
						"offset": 0,
						"slot": "0",
						"type": "t_address"
					},
					{
						"astId": 6,
						"contract": "contracts/EtherWallet2.sol:EtherWallet2",
						"label": "guardianList",
						"offset": 0,
						"slot": "1",
						"type": "t_array(t_address)dyn_storage"
					},
					{
						"astId": 46,
						"contract": "contracts/EtherWallet2.sol:EtherWallet2",
						"label": "guardians",
						"offset": 0,
						"slot": "2",
						"type": "t_mapping(t_address,t_bool)"
					},
					{
						"astId": 50,
						"contract": "contracts/EtherWallet2.sol:EtherWallet2",
						"label": "allowance",
						"offset": 0,
						"slot": "3",
						"type": "t_mapping(t_address,t_uint256)"
					},
					{
						"astId": 56,
						"contract": "contracts/EtherWallet2.sol:EtherWallet2",
						"label": "votes",
						"offset": 0,
						"slot": "4",
						"type": "t_mapping(t_address,t_mapping(t_address,t_bool))"
					},
					{
						"astId": 60,
						"contract": "contracts/EtherWallet2.sol:EtherWallet2",
						"label": "balances",
						"offset": 0,
						"slot": "5",
						"type": "t_mapping(t_address,t_uint256)"
					}
				],
				"types": {
					"t_address": {
						"encoding": "inplace",
						"label": "address",
						"numberOfBytes": "20"
					},
					"t_array(t_address)dyn_storage": {
						"base": "t_address",
						"encoding": "dynamic_array",
						"label": "address[]",
						"numberOfBytes": "32"
					},
					"t_bool": {
						"encoding": "inplace",
						"label": "bool",
						"numberOfBytes": "1"
					},
					"t_mapping(t_address,t_bool)": {
						"encoding": "mapping",
						"key": "t_address",
						"label": "mapping(address => bool)",
						"numberOfBytes": "32",
						"value": "t_bool"
					},
					"t_mapping(t_address,t_mapping(t_address,t_bool))": {
						"encoding": "mapping",
						"key": "t_address",
						"label": "mapping(address => mapping(address => bool))",
						"numberOfBytes": "32",
						"value": "t_mapping(t_address,t_bool)"
					},
					"t_mapping(t_address,t_uint256)": {
						"encoding": "mapping",
						"key": "t_address",
						"label": "mapping(address => uint256)",
						"numberOfBytes": "32",
						"value": "t_uint256"
					},
					"t_uint256": {
						"encoding": "inplace",
						"label": "uint256",
						"numberOfBytes": "32"
					}
				}
			},
			"userdoc": {
				"kind": "user",
				"methods": {},
				"version": 1
			}
		}
	}
}